:100000000C94E0000C9418140C94FD000C94FD006A
:100010000C94FD000C94FD000C94FD000C94FD006C
:100020000C94FD000C94FD000C94FD000C94FD005C
:100030000C94FD000C94FD000C942C220C94FF00F9
:100040000C94FD000C94FD000C94FD000C948C0BA2
:100050000C94FD000C94E8190C9420190C94FD00EC
:100060000C94FD000C94FD000C94FD000C94FD001C
:100070000C94FD000C94FD000C94FD000C94BF0149
:100080000C9486010C94FD000C94FD000C94FD0072
:10009000050628063E06530668067D069206C20639
:1000A0006108BF08CD08E4081A091C0A1C0A1C0ACA
:1000B00036094E0965097D0994091C0AA309BF097F
:1000C000D809060A08000000BE922449123EABAAD5
:1000D000AA2ABECDCCCC4C3E00000080BEABAAAA62
:1000E000AA3E00000000BF000000803F00000000AA
:1000F00000084178D3BB4387D1133D190E3CC3BDE3
:100100004282AD2B3E68EC8276BED98FE1A93E4C8F
:1001100080EFFFBE01C4FF7F3F00000000000763C7
:100120004236B79BD8A71A39685618AEBAAB558C69
:100130001D3CB7CC5763BD6DEDFD753EF6177231B2
:10014000BF000000803F7C10800C701748F4E0FC7A
:1001500018FC2003E8036400F4016400AC0DD20F26
:10016000B40F600900009411E803941154100807BB
:100170002C01640096003200A00F401FA00F401F0A
:10018000A00F7017D0070400B80B0200130019006D
:10019000050014000A0003000A0001001900140001
:1001A0000000820002003BFF05000200060005007F
:1001B0000600040007000D000900AD9F989F66FF30
:1001C00011241FBECFEFCDBFDFE7DEBF10E6A0E0FA
:1001D000B0E6E6E8FEE402C005900D92AE30B1074D
:1001E000D9F726E6AEE0B0E601C01D92A030B20716
:1001F000E1F70E948F170C9441270C9400001F9286
:100200000F920FB60F9211248F939F93AF93BF93CA
:10021000EF93FF9380E8809365048091160B80FF35
:1002200060C0E0E1FBE080818E7F808312861386D0
:1002300081E0868380912460823019F410922460DA
:1002400050C0809124608330D9F4109226601092BF
:100250002860E0E2F8E0868180688683A0E1BBE068
:1002600080E29EE41C968D939C931D978C918160F7
:100270008C9385818062858381E08093246031C086
:10028000E0E2F8E086818F77868385818F7D8583A4
:1002900085E080932760E5E5F0E680859185A2857D
:1002A000B3850196A11DB11D80879187A287B38771
:1002B00080912D60882349F083E0809324608091B1
:1002C0002D60815080932D6003C082E08093246074
:1002D000E0E1FBE080E593EC848795878081816095
:1002E00080838091160B81FF03C082E08093160B00
:1002F00080E880936604FF91EF91BF91AF919F9149
:100300008F910F900FBE0F901F9018951F920F9214
:100310000FB60F9211248F939F93EF93FF9380E872
:10032000809365049091266080912560981780F4F1
:10033000E091266081E08E0F80932660F0E0E75127
:10034000FF498081E0E2F8E08283848180648483D5
:100350009091266080912560981305C0E0E2F8E056
:1003600085818F7D858380E880936604FF91EF917E
:100370009F918F910F900FBE0F901F9018951F9215
:100380000F920FB60F9211242F933F934F935F93C9
:100390008F939F93AF93BF93EF93FF9380E88093E6
:1003A0006504E0E2F8E08181908182FF12C087E07D
:1003B00080932760E5E5F0E680819181A281B38199
:1003C0000196A11DB11D80839183A283B38381E037
:1003D00012C186FF12C086E080932760E5E5F0E653
:1003E00084819581A681B7810196A11DB11D848369
:1003F0009583A683B78381E0FEC080912860811138
:100400000BC01092146099232CF481E08093136048
:100410009F7702C01092136080912860803208F0AC
:10042000D7C0809128608330D0F4E0912860F0E05C
:10043000E751FF498081981791F084E0809327600D
:10044000E5E5F0E684899589A689B7890196A11D1D
:10045000B11D848B958BA68BB78B81E0CCC0E091CE
:10046000286081E08E0F80932860F0E0E655FD491A
:1004700090838091E96080FF47C08091286084303C
:1004800009F0B8C08091EC60981791F084E08093F7
:100490002760E5E5F0E684899589A689B789019604
:1004A000A11DB11D848B958BA68BB78B81E0A3C05A
:1004B0008091E9608130B1F480911360811112C0A4
:1004C00083E080932760E5E5F0E6808D918DA28D35
:1004D000B38D0196A11DB11D808F918FA28FB38F17
:1004E00081E089C082E080932760E5E5F0E6848DB5
:1004F000958DA68DB78D0196A11DB11D848F958F09
:10050000A68FB78F81E077C0809128608330D1F4C7
:100510008091E960811116C080911360811112C031
:1005200083E080932760E5E5F0E6808D918DA28DD4
:10053000B38D0196A11DB11D808F918FA28FB38FB6
:1005400081E059C04091286050E02091EB6030E09C
:100550002C5F3F4F4217530741F580911460981765
:1005600091F084E080932760E5E5F0E68089918949
:10057000A289B3890196A11DB11D808B918BA28B9D
:10058000B38B81E038C082E080932760E5E5F0E638
:10059000848D958DA68DB78D0196A11DB11D848F7B
:1005A000958FA68FB78F81E026C08091286081301B
:1005B00009F49F7720911460292788E097E0220FA3
:1005C00008F429278A95D9F72093146080E013C096
:1005D00086E080932760E5E5F0E684859585A6852D
:1005E000B7850196A11DB11D84879587A687B7871A
:1005F00081E001C080E08823E1F1E0E2F8E086815B
:100600008F77868385818F7D8583E0E1FBE0808124
:100610008E7F80831286138680912760823021F03E
:1006200080912760833061F48091296090912A60E5
:1006300080931C0B90931D0B82E08093246012C06A
:1006400080E593EC80931C0B90931D0B80912D60A3
:10065000882341F083E08093246080912D60815055
:1006600080932D60E0E1FBE083E086838081816000
:10067000808380E880936604FF91EF91BF91AF91F2
:100680009F918F915F914F913F912F910F900FBE4E
:100690000F901F9018958091246081110FC0809158
:1006A0002B6090912C60892B49F080912B60909168
:1006B0002C60019780932B6090932C60809109614E
:1006C000882329F080910961815080930961089500
:1006D000FC0180E00EC0AF014F5F5F4F9081892722
:1006E00098E037E0880F08F483279A95D9F7622FAE
:1006F000FA012FEF260F6111EECF089510922660B8
:100700001092286081E080932460E0E2F8E0868126
:1007100080688683858180688583A0E1BBE080E274
:100720009EE41C968D939C931D97F894858180621E
:1007300085838C9181608C9378940895FF920F93B8
:100740001F93CF93DF939091246091111BC0F22EE1
:100750008F73880F8160C9EED0E6888369834A83EE
:1007600063E0CE010E9468038B8384E08093256060
:10077000F0922D600093296010932A600E947E03FE
:1007800081E001C080E0DF91CF911F910F91FF9038
:1007900008950F931F9390912460911119C0E42F35
:1007A000F0E03496B197B4F48F73880FE9EEF0E679
:1007B00080836183428383E08093256020932D6052
:1007C0000093296010932A600E947E0381E003C099
:1007D00080E001C080E01F910F91089581E0809337
:1007E0002260089580912260089580931E60609336
:1007F0001D6081E08093206010921F6008952AE1BF
:10080000829FC0011124FC01E65FFE49858908959D
:100810002AE1829FC0011124FC01E65FFE4986891E
:1008200008952AE1829FC0011124FC01E65FFE4980
:10083000848908952AE1829FC0011124FC01E65FAA
:10084000FE49818D08952AE1829FC0011124FC0197
:10085000E65FFE498485958508952DE0829FC0015D
:100860001124FC01E60FF11DEE0FFF1FE65FFE49AC
:100870008081918108952DE0829FC0011124FC01A7
:10088000E60FF11D3896EE0FFF1FE65FFE498081EF
:10089000918108958091CA62089580E00AC09AE12A
:1008A000899FF0011124E65FFE4996899064968B3A
:1008B0008F5F9091CA62891790F30895CF9380E07B
:1008C000C0E00AC09AE1899FF0011124E65FFE4969
:1008D000948991FDC1E08F5F9091CA62891790F36E
:1008E000CC2359F00E94682260930F6070931060CF
:1008F000809311609093126017C0209171633091C2
:100900007263A8EEB3E00E94CC269B01AC0160911B
:100910000F607091106080911160909112600E9440
:100920007322811101C0C1E080E0A9C090911C60D8
:10093000992309F484C0C1118FC04091CF625091B6
:10094000D06220914563309146634217530708F007
:100950005EC0A0E061C0682F70E0FB01E752FF4974
:100960002081492F50E030E0092E02C035952795AF
:100970000A94E2F720FF25C02DE0269FF001279F73
:10098000F00D1124E40FF51FEE0FFF1FE65FFE4987
:1009900060817181E091D162F091D26220916D63AA
:1009A00030916E632E0F3F1F2617370770F521E039
:1009B00030E0092E02C0220F331F0A94E2F7A22B67
:1009C00024C02DE0269FF001279FF00D1124E40F95
:1009D000F51FEE0FFF1FE65FFE4960817181E09118
:1009E000D162F091D26220916B6330916C632E0FD3
:1009F0003F1F6217730748F021E030E0092E02C064
:100A0000220F331F0A94E2F7A22B9F5F02C090E0EF
:100A1000A0E0963008F49FCF482F50E0FA01E7524B
:100A2000FF4920812F7330E06A2F70E026173707C7
:100A300099F0FA01E752FF49A068A0830DC0282F62
:100A400030E0F901E752FF4990819F7329F0F901E5
:100A5000E752FF4990E8908390911B6091110EC07E
:100A6000E82FF0E0E752FF49908199233CF480930E
:100A7000196010921A6091E090931B608F5F9091C3
:100A8000CA62891708F452CFCF91089580931C60F1
:100A90000895CF93DF93CDB7DEB76497CDBFDEBFA8
:100AA0004091CA62442309F484C080E090E88987B9
:100AB0009A878FEF9FE78B879C871D821E828FEF1F
:100AC0009FEF8F839887198A1A8A50E050C0FC01E3
:100AD0002DE0529FE00DF11D1124EE0FFF1FE65F88
:100AE000FE49208131816F8178852617370710F400
:100AF0002F8338876D817E816217730710F42D83F1
:100B00003E83019602C080E090E086309105FCF2C1
:100B100080E01CC09DE0599FF0011124E80FF11DF9
:100B20003896EE0FFF1FE65FFE49208131816B850D
:100B30007C852617370714F42B873C8769857A85CF
:100B40006217730714F429873A878F5F823010F396
:100B50002AE1529FF0011124E65FFE4985899A89B6
:100B6000892B8A8B86899989892B898B5F5F54179A
:100B700050F280918A6490918B646AE070E00E94E8
:100B800090266F87788B8091156090911660A09168
:100B90001760B091186089839A83AB83BC834B8BB9
:100BA00084E1FE013196ABECB2E601900D928A959C
:100BB000E1F76496CDBFDEBFDF91CF9108958F92AC
:100BC0009F92AF92BF92CF92DF92EF92FF920F93DC
:100BD0001F93CF93DF938091246081112DC4F894EB
:100BE00080912B6090912C607894892B09F024C41B
:100BF000E09123608E2F90E08A31910508F01CC4AB
:100C0000FC01E85BFF4F0C94C6268091226088238C
:100C100021F089E0809323600FC4809120608823B5
:100C200021F080E18093236007C480911B608823BA
:100C300021F086E180932360FFC3809109618111D7
:100C4000FBC384E68093096181E080932360F4C351
:100C50008091CA62811103C010922360EDC381E0CC
:100C600080930E6082E08093236008E813E123E024
:100C700043E061E38FE30E949E03DEC3809127601F
:100C8000823061F483E08093236000E21EE423E07D
:100C90004DE360E38FE30E949E03CEC30E944D04A8
:100CA00010922360C9C380912760823061F484E090
:100CB0008093236000E117E223E041E064E38FE3E7
:100CC0000E949E03B9C30E944D0410922360B4C3D6
:100CD00080912760823061F485E08093236008E88A
:100CE00013E123E040E061E38FE30E949E03A4C38D
:100CF0000E944D04109223609FC380912760823030
:100D000061F486E08093236008E813E123E041E08A
:100D100062E381E00E94C9038FC30E944D041092D8
:100D200023608AC380912760823081F480910E60B5
:100D300090E001972091AD623AE1389FF001399F30
:100D4000F00D1124E65FFE49218F0FC080910E60E7
:100D500090E001972AE1289FF001299FF00D1124CE
:100D6000E65FFE4986898064868B87E080932360F6
:100D700008E813E123E043E160E080910E600E9407
:100D8000C9035AC380912760823009F07EC1009167
:100D90000E6010E0015011098AE1809FE001819FFF
:100DA000D00D1124C65FDE498E898F7B8E8BEAEAD7
:100DB000F2E683818C8B248130E0322F22278581DB
:100DC000280F311DA5E3B2E80E94CC262FEF3FE3A8
:100DD00040E050E00E94A4262E873F87B12CC12C12
:100DE000D12C760138C0CB2DD0E0DE011396AA0FAE
:100DF000BB1FA655BD498C9190E0982F8827FE0116
:100E0000EE0FFF1FEF54FD492081820F911DC80E88
:100E1000D91EE11CF11C2C9130E0322F2227808159
:100E2000280F311DAAE6B8E10E94CC262FEF3FE340
:100E300040E050E00E94A4266DE0609FC001619FE9
:100E4000900D1124C80FD91FCC0FDD1FC65FDE49DE
:100E500028833983B39425E02B1528F6AAE6B8E158
:100E6000A70196010E94DB262FEF3FE340E050E010
:100E70000E94A4268AE1809FF001819FF00D112439
:100E8000E65FFE4924873587EAEAF2E6628970E088
:100E9000762F66278389680F711D6E5F7F4F072E3F
:100EA000000C880B990B0E9498239B01AC016EE308
:100EB00073E680E69CE40E94242320E030E84EE5BF
:100EC00055E40E94B2220E9455246B017C0124EA61
:100ED0003DE04FE859E30E94DA242AE530E847E490
:100EE0005AE30E94B3224B015C0120E030E040E471
:100EF00050E4C701B6010E94472526E436EA4BEDCF
:100F000053E30E94DA249B01AC01C501B4010E94A5
:100F1000B3229B01AC0160E070E080E89FE30E9497
:100F2000242323E333E948E853E40E94B22220E07B
:100F300030E048EC52E40E94DA240E949D24462FBF
:100F4000572F682F792F411580E858078FEF6807D2
:100F500078073CF0411520E852076105710534F42B
:100F600009C040E050E86FEF7FEF04C04FEF5FE74C
:100F700060E070E08AE1809FF001819FF00D112414
:100F8000E65FFE49408B518BEAEAF2E6648970E045
:100F9000762F66278589680F711D675F7F4F072E43
:100FA000000C880B990B0E9498239B01AC016CE705
:100FB00079E880E69CE40E94242320E030E84EE5B6
:100FC00055E40E94B2220E9455246B017C0124EA60
:100FD0003DE04FE859E30E94DA242AE530E847E48F
:100FE0005AE30E94B3224B015C0120E030E040E470
:100FF00050E4C701B6010E94472526E436EA4BEDCE
:1010000053E30E94DA249B01AC01C501B4010E94A4
:10101000B3229B01AC0160E070E080E89FE30E9496
:10102000242323E333E948E853E40E94B22220E07A
:1010300030E048EC52E40E94DA240E949D24462FBE
:10104000572F682F792F411580E858078FEF6807D1
:1010500078073CF0411520E852076105710534F42A
:1010600009C040E050E86FEF7FEF04C04FEF5FE74B
:1010700060E070E08AE1809FF001819FF00D112413
:10108000E65FFE49428B538B0FC080910E6090E06B
:1010900001972AE1289FF001299FF00D1124E65FB6
:1010A000FE4986898064868B88E08093236008E807
:1010B00013E123E042E060E280910E600E94C903E8
:1010C000BBC1809127608230B1F480910E6090E0C6
:1010D0000197AAEAB2E613962C9113973AE1389F4A
:1010E000F001399FF00D1124E65FFE49258B14961F
:1010F0008C91868B0FC080910E6090E001972AE161
:10110000289FF001299FF00D1124E65FFE49868992
:101110008064868B80910E608F5F80930E609091CB
:10112000CA62981708F580917660909177608D3A41
:101130009E4D21F00E9449050E945E048091156039
:1011400090911660A0911760B09118600196A11D52
:10115000B11D8093156090931660A0931760B093B3
:1011600018601092236068C196E09093236008E8AD
:1011700013E123E041E062E30E94C9035DC11092E4
:10118000CA628AE08093236008E813E123E040E02C
:101190006BE38FE30E949E034FC1809127608230F2
:1011A00061F48BE08093236008E813E123E041E0E1
:1011B00060E080E00E94C9033FC11092216010925C
:1011C00022601092236038C1809127608230F9F448
:1011D0008091CA62803170F49CE0909323608F5FAD
:1011E000482F406808E813E120E06BE380E00E94AC
:1011F0009E0322C1811103C01092216003C081E0CF
:1012000080932160109222601092236015C180911A
:101210002760833041F481E0809321601092226046
:101220001092236009C110922160109222601092E6
:10123000236002C180912760823089F48091CA6264
:101240008F5F8093CA628BE08093236008E813E18C
:1012500023E041E060E080E00E94C903EDC010920D
:1012600021601092226010922360E6C08091CA62D1
:10127000811107C010921F601092206010922360AD
:10128000DBC008E813E123E040911E6060E28FE3D9
:101290000E949E0381E180932360CEC080912760ED
:1012A000823061F408E813E123E040E060E28FE37C
:1012B0000E949E0382E180932360BEC010921F6053
:1012C0001092206010922360B7C080912760823016
:1012D00069F408E813E123E040911D6061E28FE3C7
:1012E0000E949E0383E180932360A6C010921F603A
:1012F00010922060109223609FC0809127608230FE
:1013000061F408E813E123E040E061E28FE30E942A
:101310009E0384E1809323608FC010921F6010921F
:1013200020601092236088C080912760823021F471
:1013300081E080931F6002C010921F6010922060B5
:101340001092236079C09091CA62992321F0809114
:101350001960891738F010921A6010921B60109271
:1013600023606AC040916F6308E813E123E063E300
:101370008F5F0E949E0387E1809323605DC0809110
:101380002760823071F48091196008E813E123E04E
:1013900040E062E38F5F0E949E0388E180932360B8
:1013A0004BC010921A6010921B601092236044C0D0
:1013B00080912760823019F580911960282F30E0E4
:1013C000F901E752FF494081942F9F7369F4F901B5
:1013D000E752FF494F77408381E080931A60109273
:1013E0001B601092236028C008E813E123E062E349
:1013F0008F5F0E949E0389E1809323601DC010923D
:101400001A6010921B601092236016C080912760B2
:10141000823061F4E0911960F0E0E752FF49808189
:101420008F77808381E080931A6002C010921A60E7
:1014300010921B6010922360DF91CF911F910F914A
:10144000FF90EF90DF90CF90BF90AF909F908F90E4
:1014500008950F931F93CF93DF9380E090E00E9455
:101460000227182F81E090E00E940227082F8FEFBB
:101470009FEF9127092E0294202D2F702927392FB5
:101480003025330F307E2327302D3927307F369596
:10149000092E000C331F9695969596959F7193276C
:1014A0009827822F9027092E0294202D2F7029270C
:1014B000392F3025330F307E2327302D3927307FC9
:1014C0003695092E000C331F9695969596959F712B
:1014D00093279827822FEC014AE750E062E070E002
:1014E00083E193E60E94FE2630E021C0E32FF0E086
:1014F000ED5EFC492081CE019227092E0294202D19
:101500002F702927492F4025440F407E2427402D46
:101510004927407F4695092E000C441F96959695C5
:1015200096959F7194279827822FEC013F5F3A3759
:10153000E8F28CE790E00E940A27113029F40111AB
:1015400003C0C817D90741F04AE750E066E471E0EC
:1015500083E193E60E94F226DF91CF911F910F91D4
:10156000089581E0809334600895809134600895F7
:101570008091021081FDC1C080913460882309F4FC
:10158000BCC08091326090913360009709F02CC00C
:1015900083E193E680932E6090932F608FEF9FEF0F
:1015A00021E09227092E0294202D2F702927392F10
:1015B0003025330F307E2327302D3927307F369565
:1015C000092E000C331F9695969596959F7193273B
:1015D0009827822F809330609093316061E080E0A3
:1015E00090E00E940F2780C08130910509F028C04B
:1015F000809130609091316020E09227092E029412
:10160000202D2F702927392F3025330F307E2327A7
:10161000302D3927307F3695092E000C331F9695D3
:10162000969596959F7193279827822F8093306087
:101630009093316060E081E090E00E940F2754C0F9
:101640008C37910529F4609130600E940F274CC0BF
:101650008D37910569F4609131600E940F271092D7
:1016600034608FEF9FEF80933260909333603CC083
:101670008E37910548F0109234608FEF9FEF809382
:1016800032609093336030C0E0912E60F0912F6013
:10169000619180913060909131609627092E02947B
:1016A000202D2F702927392F3025330F307E232707
:1016B000302D3927307F3695092E000C331F969533
:1016C000969596959F7193279827822F80933060E7
:1016D00090933160E0932E60F0932F6080913260A0
:1016E000909133600E940F27809132609091336017
:1016F000019680933260909333600895F8948093BC
:1017000082609093836078940895F89480918260C9
:1017100090918360789408951F920F920FB60F9264
:1017200011248F939F93AF93BF93EF93FF93809177
:10173000050982FD02C083FF1DC0E4E8F0E683E0F6
:101740008387A0E0B9E08DE015968C93159787E02C
:1017500014968C9310821486E9E3F0E684819581D7
:10176000A681B7810196A11DB11D84839583A683AF
:10177000B783B6C086FF6EC084FF2DC08091070975
:10178000882389F081E080938F60E9E3F0E680852B
:101790009185A285B3850196A11DB11D8087918792
:1017A000A287B38710C082E080938F60E9E3F0E600
:1017B00084859585A685B7850196A11DB11D848771
:1017C0009587A687B78783E080930409E4E8F0E66D
:1017D0001082148685C08091886090918960892BE1
:1017E00099F0E4E8F0E684819581019784839583FC
:1017F000A281B381CD010196828393838C918093E2
:10180000080981E084876CC080918E60882369F02C
:10181000E4E8F0E61286818190E0880F991F8160EC
:101820008093070982E084875BC083E0809304098A
:10183000E4E8F0E610821486E9E3F0E68081918125
:10184000A281B3810196A11DB11D80839183A283E2
:10185000B38346C08823BCF580918C6090918D60E5
:10186000892B81F0E4E8F0E6A681B781CD010196ED
:1018700086839783809108098C9380859185019751
:101880008087918780918C6090918D60892BA9F4DD
:1018900087E080930409E4E8F0E610821486E9E327
:1018A000F0E680819181A281B3810196A11DB11DD5
:1018B00080839183A283B38313C082E08093040961
:1018C000809390600DC0E9E3F0E680899189A28958
:1018D000B3890196A11DB11D808B918BA28BB38B17
:1018E00080E880936604FF91EF91BF91AF919F9143
:1018F0008F910F900FBE0F901F9018958DE0E4E828
:10190000F0E6DF011D928A95E9F7E0E4F4E08289D0
:101910008860828B83898860838BE0E0F9E01082A5
:1019200012828EE5868381E083838DEE858381EC50
:10193000838308950F931F939091846091111AC02F
:101940009091050990FF18C0E4E8F0E691E09083DB
:10195000818392876283738344835583268337838D
:1019600000871187138694878181880F80930709E8
:1019700080E003C084E001C084E01F910F910895CE
:101980009091846091111AC09091050990FF18C040
:10199000E4E8F0E691E090838183128662837383AA
:1019A0004483558316821782108611861386948786
:1019B0008181880F8093070980E0089584E008956D
:1019C00084E008958091826090918360892B49F032
:1019D0008091826090918360019780938260909360
:1019E0008360089590919160911109C0E1E9F0E65A
:1019F000828363834483258381E08083089580E02C
:101A0000089590919260911106C0E1E9F0E6868315
:101A100081E08183089580E008958091B9640895FC
:101A20009FEF980F983050F4E82FF0E03197EE0FC9
:101A3000FF1FE058FB4985899689089580E090E072
:101A400008950F931F9380918160811158C0109267
:101A50000309E0E4F4E08CE08683808583FD0EC01A
:101A6000E9E3F0E6808D918DA28DB38D0196A11DE5
:101A7000B11D808F918FA28FB38F15C182E48A959B
:101A8000F1F700C08091480482FD17C0E0E4F4E063
:101A900088E0818392E49A95F1F700C08283E9E3BC
:101AA000F0E684899589A689B7890196A11DB11DA3
:101AB000848B958BA68BB78BF6C0E0E4F4E084E0D2
:101AC0008183A2E4AA95F1F700C08283B2E4BA95BB
:101AD000F1F700C08DE0E4E8F0E6DF011D928A95A1
:101AE000E9F7E0E0F9E0108212828EE5868381E07A
:101AF00083839DEE958391EC9383809381608091A5
:101B000090608111D0C0809181608130C9F4809152
:101B10009160882321F086E080938160C4C0809129
:101B20009260882321F088E080938160BCC00E948D
:101B3000850B892B09F0B7C082E080938160B3C028
:101B4000863021F5E6E0F4E685E38083A1E9B0E69E
:101B500012968C911297818313968C91139782839E
:101B600014968C911497838315968C91848345E009
:101B700050E0BF0180E10E94C00C811104C087E0E9
:101B80008093816090C0109281608DC0873069F42D
:101B900080918F60882319F01092816084C081E069
:101BA00080938160109291607EC08830B1F4E6E04D
:101BB000F4E68AE3808380919760818342E050E07D
:101BC000BF0180E10E94C00C811104C089E08093B4
:101BD000816069C01092816066C0893069F480912B
:101BE0008F60882319F0109281605DC081E080933E
:101BF00081601092926057C08230B1F410920664F6
:101C000009E710E02DE833E641E050E066E074E6D5
:101C100080E10E949A0C811104C083E0809381606E
:101C200042C0109281603FC08330A1F480918F60E8
:101C3000882319F01092816036C089E7EDE8F3E659
:101C4000A0E8B4E601900D928A95E1F784E08093D4
:101C5000816029C08430B9F4E6E0F4E68BE3808348
:101C60008091BB648F5F818342E050E0BF0180E1DF
:101C70000E94C00C811104C085E08093816013C074
:101C80001092816010C0853071F480918F6088233C
:101C900019F01092816007C081E08093816084E632
:101CA00090E00E947E0B1F910F910895CF93DF93D8
:101CB0002091DD6230E040915763509158632417C2
:101CC000350719F4C0E0D0E002C0C0E0D0E2409196
:101CD000CF625091D0622091136330911463241726
:101CE000350708F4C460882369F02091D1623091EF
:101CF000D26280912F63909130632817390770F476
:101D0000C1600CC02091D1623091D2628091156384
:101D1000909116632817390708F4C2602091D362A6
:101D20003091D46280911763909118638217930762
:101D30000CF4C0612091D5623091D6628091196314
:101D400090911A63281739070CF4C8608091D96202
:101D50009091DA622091216330912263281739072C
:101D60003CF020911D6330911E638217930714F499
:101D7000C06430C020911F63309120632817390759
:101D80003CF020911B6330911C6382179307C4F4CD
:101D90002091536330915463A8EEB3E00E94CC26A7
:101DA0009B01AC016091BB607091BC608091BD6093
:101DB0009091BE600E947322882361F0C0620AC0C5
:101DC0000E9468226093BB607093BC608093BD608A
:101DD0009093BE600E940D0D833029F0843039F05D
:101DE000823031F402C0D46003C0D26001C0D86038
:101DF0008091DB6286FDD1602091736330917463C2
:101E000090E0822393238F7B9927892B49F480913B
:101E1000DC62232F332790E028233923232B09F07A
:101E2000C0684091CB625091CC626091CD6270915C
:101E3000CE628091B7609091B860A091B960B09186
:101E4000BA60481759076A077B07D9F00E946822D1
:101E50006093B3607093B4608093B5609093B66004
:101E60008091CB629091CC62A091CD62B091CE6214
:101E70008093B7609093B860A093B960B093BA6054
:101E800010C06091B3607091B4608091B560909122
:101E9000B66028EE33E040E050E00E9473228111EA
:101EA000D061CE01DF91CF9108952091D162309120
:101EB000D2628091296390912A6328173907A8F488
:101EC00020915F6330916063A8EEB3E00E94CC265E
:101ED0009B01AC016091AF607091B0608091B16086
:101EE0009091B2600E94732208950E9468226093CC
:101EF000AF607093B0608093B1609093B26080E007
:101F00000895CF92DF92EF92FF920F931F93CF939A
:101F1000C091AE60882309F468C06091D36270916B
:101F2000D4620091336310913463061717070CF4E1
:101F30005EC0C1111DC0072E000C880B990B0E94BA
:101F400098236B017C01B801110F880B990B0E943B
:101F5000982320E030E048E452E40E94B2229B0142
:101F6000AC01C701B6010E94482418160CF441C008
:101F70006091D5627091D6620091316310913263A5
:101F800060177107C4F1C1111CC0072E000C880B2B
:101F9000990B0E9498236B017C01B801110F880BEB
:101FA000990B0E94982320E030E048E452E40E941C
:101FB000B3229B01AC01C701B6010E941F238823F5
:101FC000E4F08091CF629091D06220912D633091A6
:101FD0002E638217930798F020912B6330912C6326
:101FE0002817390770F08C2F0DC080E00BC080E0FF
:101FF00009C08C2F07C080E005C08C2F03C081E092
:1020000001C080E08C1799F08093AE6081110FC001
:1020100081E08093AD600E9468226093A960709314
:10202000AA608093AB609093AC6080E01EC080910A
:10203000AD608823C1F02091616330916263A8EEA6
:10204000B3E00E94CC269B01AC016091A960709125
:10205000AA608091AB609091AC600E94732288234B
:1020600021F01092AD608091AE60CF911F910F91E1
:10207000FF90EF90DF90CF900895CF92DF92EF9294
:10208000FF928091A860811124C04091D362509149
:10209000D4622091376330913863241735075CF0A0
:1020A0004091D5625091D66220913563309136636C
:1020B0004217530774F481E08093A8600E9468225D
:1020C0006093A4607093A5608093A6609093A760CE
:1020D00086C0882309F453C06091D3627091D462A2
:1020E000072E000C880B990B0E9498236B017C0132
:1020F0006091376370913863072E000C880B990B41
:102100000E94982320E030E048E452E40E94B2228A
:102110009B01AC01C701B6010E944824181624F1A6
:102120006091D5627091D662072E000C880B990BD6
:102130000E9498236B017C01609135637091366336
:10214000072E000C880B990B0E94982320E030E0AA
:1021500048E452E40E94B3229B01AC01C701B601DE
:102160000E941F2388235CF40E9468226093A4606D
:102170007093A5608093A6609093A76030C0209173
:10218000CF623091D0628091396390913A63821727
:10219000930770F481E08093A8600E9468226093A6
:1021A000A4607093A5608093A6609093A76017C009
:1021B0002091656330916663A8EEB3E00E94CC265F
:1021C0009B01AC016091A4607091A5608091A660B4
:1021D0009091A7600E94732281111092A860809153
:1021E000A860FF90EF90DF90CF9008951F93CF935A
:1021F000DF93C82FD62F142F882341F08091A3603E
:10220000823089F581E08093A3602DC08091A36026
:10221000823079F04091D5625091D662209143632B
:10222000309144632417350724F082E08093A36043
:102230001AC08230C1F42091D5623091D66280916B
:10224000416390914263281739076CF081E08093D5
:10225000A3600E94682260939F607093A060809347
:10226000A1609093A260DD2311F0CC2311F0112323
:1022700091F08091A360811103C081E08093A360FD
:102280000E94682260939F607093A0608093A16019
:102290009093A26063C08091A360813021F520916A
:1022A0003D6330913E63A8EEB3E00E94CC269B01D3
:1022B000AC0160919F607091A0608091A16090914D
:1022C000A2600E947322882309F448C01092A36080
:1022D0000E94682260939F607093A0608093A160C9
:1022E0009093A2603BC0811139C02091D56230919A
:1022F000D66280913F63909140638217930724F1E7
:1023000020913B6330913C63A8EEB3E00E94CC2661
:102310009B01AC0160919F607091A0608091A16071
:102320009091A2600E9473228823C1F081E0809383
:10233000A3600E94682260939F607093A060809366
:10234000A1609093A2600AC00E94682260939F607F
:102350007093A0608093A1609093A2608091A3602D
:10236000DF91CF911F910895809175630E94100DA8
:1023700020914763309148632817390740F48091D2
:102380009E60811104C081E080939E6010C08091A6
:1023900075630E94100D2091496330914A63821742
:1023A000930728F480919E60811110929E60809125
:1023B0009E600895809177630E94100D20914B6379
:1023C00030914C632817390740F480919D6081114A
:1023D00004C081E080939D6010C0809177630E946B
:1023E000100D20914D6330914E638217930728F4AE
:1023F00080919D60811110929D6080919D600895F3
:10240000CF93809179630E94100D20914F6330919A
:1024100050632817390730F0809179630E94100DBE
:10242000C0E001C0C1E080919C60C817C9F0209154
:10243000636330916463A8EEB3E00E94CC269B01F5
:10244000AC01609198607091996080919A609091D0
:102450009B600E947322882369F0C0939C600AC02D
:102460000E946822609398607093996080939A604C
:1024700090939B6080919C60CF91089580917B6345
:1024800090917C63079711F080E001C081E020917A
:102490007D6330917E632730310509F4826020919D
:1024A0007F63309180632730310509F48860209183
:1024B0008163309182632730310509F48062209175
:1024C0008363309184632730310509F4806420915F
:1024D0008563309186632730310509F4806808955B
:1024E00080917B6390917C630B9711F080E001C039
:1024F00081E020917D6330917E632B30310509F4BA
:10250000826020917F63309180632B30310509F424
:10251000886020918163309182632B30310509F40A
:10252000806220918363309184632B30310509F4FC
:10253000806420918563309186632B30310509F4E6
:102540008068089580917B6390917C63049711F07B
:1025500080E001C081E020917D6330917E63243072
:10256000310509F4826020917F63309180632430CB
:10257000310509F4886020918163309182632430B1
:10258000310509F4806220918363309184632430A3
:10259000310509F48064209185633091866324308D
:1025A000310509F48068089580917B6390917C6384
:1025B000059711F080E001C081E020917D633091AA
:1025C0007E632530310511F4826004C02630310568
:1025D00009F4846020917F63309180632530310558
:1025E00011F4886004C02630310509F4806120911F
:1025F0008163309182632530310509F48062209136
:102600008363309184632530310509F4806420911F
:102610008563309186632530310509F4806808951B
:1026200080917B6390917C630C9711F080E001C0F6
:1026300081E020917D6330917E632C30310509F477
:10264000826020917F63309180632C30310509F4E2
:10265000886020918163309182632C30310509F4C8
:10266000806220918363309184632C30310509F4BA
:10267000806420918563309186632C30310509F4A4
:102680008068089580917B6390917C630D9711F031
:1026900080E001C081E020917D6330917E632D3028
:1026A000310509F4826020917F63309180632D3081
:1026B000310509F4886020918163309182632D3067
:1026C000310509F4806220918363309184632D3059
:1026D000310509F4806420918563309186632D3043
:1026E000310509F48068089580917B6390917C6343
:1026F000039711F080E001C081E020917D6330916B
:102700007E632330310509F4826020917F6330912C
:1027100080632330310509F4886020918163309112
:1027200082632330310509F4806220918363309104
:1027300084632330310509F48064209185633091EE
:1027400086632330310509F48068089580917B63A6
:1027500090917C63089711F080E001C081E02091A6
:102760007D6330917E632830310509F482602091C9
:102770007F63309180632830310509F488602091AF
:102780008163309182632830310509F480622091A1
:102790008363309184632830310509F4806420918B
:1027A0008563309186632830310509F48068089587
:1027B00080917B6390917C63099711F080E001C068
:1027C00081E020917D6330917E632930310509F4E9
:1027D000826020917F63309180632930310509F454
:1027E000886020918163309182632930310509F43A
:1027F000806220918363309184632930310509F42C
:10280000806420918563309186632930310509F415
:102810008068089581E080930A0680910D0680FF0C
:10282000FCCFE0E0F6E081E085878089918908951A
:102830001F920F920FB60F92112484E080936604CA
:1028400080918E0B80FFFCCF1092800B80918E0BBD
:1028500080FFFCCF60E082E99BE00E943227E0E647
:10286000F4E088E1868380E4868380E8858388E0DD
:102870008093A6048091010180FDFCCF60E080E0A0
:1028800091E00E94322761E080E690E00E943227CA
:102890008091650082FFFCCF80E098E00197F1F71E
:1028A00080E880936704F8CFCF93DF93CDB7DEB78E
:1028B0006497CDBFDEBF50917E60552309F480C080
:1028C00080E090E889879A878FEF9FE78B879C87C6
:1028D0001D821E828FEF9FEF8F839887198A1A8A35
:1028E00040E050C0FC012DE0429FE00DF11D11249D
:1028F000EE0FFF1FE152FD49208131816F81788504
:102900002617370710F42F8338876D817E81621771
:10291000730710F42D833E83019602C080E090E09F
:1029200086309105FCF280E01CC09DE0499FF001DB
:102930001124E80FF11D3896EE0FFF1FE152FD49FB
:10294000208131816B857C852617370714F42B870E
:102950003C8769857A856217730714F429873A875B
:102960008F5F823010F32AE1429FF0011124E1527F
:10297000FD4985899A89892B8A8B86899989892B32
:10298000898B4F5F451750F280917C6090917D60FC
:102990008F87988B8091786090917960A0917A6010
:1029A000B0917B6089839A83AB83BC835B8B84E12A
:1029B000FE013196ABECB2E601900D928A95E1F7FB
:1029C0006496CDBFDEBFDF91CF9108958F929F9225
:1029D000BF92CF92DF92EF92FF920F931F93CF930C
:1029E000DF938091CF6081110FC08091CB62909175
:1029F000CC62A091CD62B091CE620397A105B105E2
:102A000018F081E08093CF600E940012182F0E947E
:102A1000B411D82E0E94DA11C82F8091DD6288236C
:102A2000E1F08091CF608823E9F0812F0E94810F2F
:102A3000082F81E020917F6030918060232B09F482
:102A400080E04D2D602F0E94F610D82F0E94550F68
:102A5000B82E0E943D10C82E09C0D0E0C12C00E065
:102A6000B12C04C0D0E0C12C00E0B12C8091CE602C
:102A700081110CC0DD2051F0CC2341F081E0809326
:102A8000CE6010927F601092806006C0882321F093
:102A9000C11102C01092CE60002349F080917F6086
:102AA000909180608D7F80937F6090938060809113
:102AB000DD62882349F08091CF60882341F0802F28
:102AC0000E94560E7C0105C0E12CF12C02C0E12CC5
:102AD000F12CE114F10439F180917F6090918060D4
:102AE0009701282B392B82179307E9F02091556322
:102AF0003091566340E050E06091CA607091CB60C5
:102B00008091CC609091CD600E9473228823A9F0BF
:102B100080917F60909180608E299F2980937F6053
:102B2000909380600AC00E9468226093CA6070938C
:102B3000CB608093CC609093CD608091DD628823E0
:102B400029F09091CF60992319F003C0D0E001C023
:102B5000D0E020917F6030918060232B31F4882376
:102B600021F08091CF60811106C01092C96010924F
:102B7000C86000E052C011110CC0DD2051F0CC2320
:102B800041F08091C860811104C081E08093C860E9
:102B900000E0111102C0D11005C08091C860811100
:102BA0001092C8608091C860811104C0011102C0F8
:102BB000D230C1F48091C960811109C0EF2821F0A1
:102BC0001092C86000E003C081E08093C9600E9459
:102BD00068226093C4607093C5608093C6609093D0
:102BE000C7601BC08091C9608823B9F020915D63E4
:102BF00030915E63A8EEB3E00E94CC269B01AC014D
:102C00006091C4607091C5608091C6609091C7600A
:102C10000E94732281111092C960A8958091C960A9
:102C2000882309F4DAC0D11101C0D1E08091C360DA
:102C30009FEF980F9E3F68F08091010180FDFAC0E0
:102C400065E080E091E00E94322781E08093C360DC
:102C5000F1C08130C1F48091010180FDEBC084E0BE
:102C60008093650483EA0E94010D0E9468226093AC
:102C7000BF607093C0608093C1609093C26082E037
:102C80008093C360D7C0823021F5209123633091B7
:102C9000246340E050E06091BF607091C06080911B
:102CA000C1609091C2600E947322882309F4C2C05F
:102CB00088E0809365040E9468226093BF607093EF
:102CC000C0608093C1609093C26083E08093C360D2
:102CD000B1C0833021F5209125633091266340E017
:102CE00050E06091BF607091C0608091C160909130
:102CF000C2600E947322882309F49CC080E1809303
:102D000065040E9468226093BF607093C0608093E6
:102D1000C1609093C26084E08093C3608BC08430B4
:102D200009F088C0209127633091286340E050E08B
:102D30006091BF607091C0608091C1609091C260ED
:102D40000E947322882309F475C088E0809366048A
:102D500060E482E99BE00E9432270F2EF0E88F2E7C
:102D6000FBE09F2EF02DF401118280E482836091BC
:102D7000596370915A636F5F7F4F80E29EE40E94B7
:102D80007C267B01CB01019786A797A7A0915B6367
:102D9000B0915C639B010E94CC2624E630E040E0C9
:102DA00050E00E94A426E21AF30AF401E4A6F5A674
:102DB00080918E0B80FFFCCF81E08093800B0E947E
:102DC00068226093BF607093C0608093C1609093ED
:102DD000C26080E88093C3602DC084E08093660465
:102DE00080918E0B80FFFCCF1092800B80918E0B18
:102DF00080FFFCCF60E082E99BE00E94322788E1FF
:102E0000809366048091C3608F3F61F480910101DB
:102E100080FD10C060E080E091E00E9432271092B7
:102E2000C36008C0882331F080E00E94010D8FEF5D
:102E30008093C360112361F08091C360811108C049
:102E40008091CF60882321F081E00E94460503C075
:102E500080E00E944605DD2321F00E94D412C82F95
:102E600001C0C0E08091C360803831F50E947012CB
:102E7000C82B002319F00E943E12C82BBB2039F04A
:102E80008091C860882319F00E941013C82BCC20B1
:102E900039F08091C860882319F00E944213C82B32
:102EA0008091C860882319F00E94D813C82BD230B3
:102EB00019F40E94A212C82B112319F00E94A61324
:102EC000C82B80917F6090918060892B21F4809144
:102ED000DD62811102C0D11004C08091CF608111E8
:102EE00003C00E947413C82B8091D060C81751F0A2
:102EF000C093D0604091696360916763242F8C2FE9
:102F00000E94F20C81E0DF91CF911F910F91FF9011
:102F1000EF90DF90CF90BF909F908F90089580E0CA
:102F200094E024E8FC012483C0E4D4E021E02C8375
:102F3000A0E6B4E014961C92149740EA54E0FA011B
:102F4000148234EDFC01308328833CED3C933AE05D
:102F5000FA013083FC01108A118A128A138A148ABA
:102F6000158A168A178A188A198A38E03A8B3B8B99
:102F70001C8A1D8A1E8A1F8A50961C925097519651
:102F80001C92519752961C92529753961C925397AB
:102F900054961C92549755961C92559756961C928F
:102FA000569757961C925797FA01108A118A128ADF
:102FB000138A148A158A168A178AFC0122872A879F
:102FC0001A962C93FA012287E0EEF5E0158284E050
:102FD000818782E08683828360E288E690E00E94B7
:102FE00032278091650081FFFCCF61E883E690E0A5
:102FF0000E94322761E082E690E00E94322769E277
:1030000080E890E00E94322763E080E690E00E9432
:1030100032278091650084FFFCCF0E94290AE0E0FE
:10302000FBE080E29EE48487958781E0858380834E
:10303000E0E1FBE011822FEF3FEF24873587128616
:10304000138685838091A80485FF0BC0E0EAF4E035
:10305000848182608483E0E6F4E084818F778483D6
:103060000AC0E0EAF4E084818D7F8483E0E6F4E046
:103070008481806884830E94A122FFE72AE186E0A0
:10308000F15020408040E1F700C0000080E48093D0
:1030900065049FEFE3E2F4EF9150E040F040E1F788
:1030A00000C0000095E09093B000C0EAD4E08A89A7
:1030B000887F8A8B8A8984608A8B8C89887F8C8BB5
:1030C0008C8984608C8B8A89877F8A8B8C89877FA7
:1030D0008C8B00E016E081E0F801828386E081833A
:1030E00090836894FF24F3F8FD8282E180878FE467
:1030F00093EC0197F1F700C000000E940A1484E1EC
:10310000F80180878FE493EC0197F1F700C000008D
:103110000E940A14FE820E947E0C83E38093400981
:1031200080E090E001C001968F3F9105E1F3D8F374
:103130000E94D321E7E8F3E13197F1F700C00000E6
:1031400063E28FE00E94E221E0E2F8E083E890E0B1
:103150008087918780EC8683858180688583E0E025
:10316000F8E085818068858378948681806886838D
:10317000858180688583E0EAF4E084818D7F8483A3
:103180008091696390916A634FEF489F9001499FD6
:10319000300D11243695279536952795ABE7B4E188
:1031A0000E94CC269695879560916763282F482FBB
:1031B00080E00E94F20C80E00E94010D0E94EE036C
:1031C0006FE28FEE0E94F5030E94DF050E94210D41
:1031D0000E94202180917660909177608D3A9E4D7B
:1031E00019F40E94541404C0109276601092776013
:1031F0000E94E6140E94B80A809135609091366072
:10320000A0913760B09138600196A11DB11D8093E7
:10321000356090933660A0933760B0933860D4CF18
:10322000813610F087550895813410F08753089542
:10323000805308958A3010F4805D0895895C089564
:103240001F920F920FB60F9211241F932F933F934B
:103250004F935F936F937F938F939F93AF93BF939E
:10326000CF93DF93EF93FF9380E880936504809181
:10327000F964873009F44AC028F4853069F0863053
:10328000D1F088C08A3009F46DC08B3009F475C064
:10329000893009F07FC057C0E0E0F8E08AE382831C
:1032A0008481806484831092D2601092D16086E021
:1032B0008093F96476C0E091D2608091D360E81386
:1032C00013C08091D16081958093D16082958F7079
:1032D0000E941A19E0E0F8E082838481806484838C
:1032E00089E08093F9645DC0F0E0E650FB4980819D
:1032F00082958F700E941A19E0E0F8E08283848141
:103300008064848387E08093F9644BC01091D2601D
:10331000C12FD0E0C650DB4988818F700E941A19F6
:10332000E0E0F8E082838481806484831F5F1093EF
:10333000D26088819091D160890F8093D16086E0BE
:103340008093F9642EC08091D1608F700E941A1909
:10335000E0E0F8E082838481806484838AE0809363
:10336000F9641FC0E0E0F8E08DE08283848180642E
:1033700084838BE08093F96414C0E0E0F8E08AE095
:10338000828384818064848385818F7D858310928C
:10339000F96407C0E0E0F8E085818F7D85831092B5
:1033A000F96480E880936604FF91EF91DF91CF91FB
:1033B000BF91AF919F918F917F916F915F914F914D
:1033C0003F912F911F910F900FBE0F901F90189556
:1033D0001F920F920FB60F9211240F931F932F93EA
:1033E0003F934F935F936F937F938F939F93AF938D
:1033F000BF93CF93EF93FF9380E880936504E0E061
:10340000F8E08181C08182FF04C080E88093660477
:1034100096C086FF04C080E88093660490C08091C7
:10342000050885FF04C080E88093660488C0809109
:10343000F964843020F080E88093660480C0CA3349
:1034400059F41092D3601092F96581E08093F96489
:1034500080E88093660473C0CD3079F48091F9647C
:10346000813021F48091D360833018F41092F96494
:1034700063C083E08093F9645FC0CA30B9F480917F
:10348000F964833019F01092F96456C08091F9659F
:10349000882319F01092F9644FC08091D360815055
:1034A0008093D36084E08093F96446C08C2F90E0D1
:1034B0000E94E626892B09F43FC08091F96481308F
:1034C000A9F40091D3600F3F19F41092F96434C04D
:1034D00010E08C2F0E941019F801E650FB498295EC
:1034E000807F808382E08093F96426C08091F964B4
:1034F000823011F58C2F0E9410192091D360E22F99
:10350000F0E0E650FB499081892B8083211109C0AE
:103510003091FA649091D460391719F01092F964DF
:103520000BC02F5F2093D3609091F965890F809332
:10353000F96581E08093F96480E880936604FF91E7
:10354000EF91CF91BF91AF919F918F917F916F91AB
:103550005F914F913F912F911F910F910F900FBE4F
:103560000F901F9018958430910581F018F40397FF
:1035700039F01BC08630910579F0079789F015C0A6
:103580006623A9F00E94EE0380E00895662389F087
:103590000E94B10A80E008956093756080E008950C
:1035A000862F0E941E2280E0089582E0089580E028
:1035B000089580E00895CF93DF93EB018430910567
:1035C00051F08630910561F0039779F40E94F2037F
:1035D000888380E00BC00E94B50A888380E006C023
:1035E00080917560888380E001C082E0DF91CF9197
:1035F00008959F92AF92BF92CF92DF92EF92FF9287
:103600000F931F93CF93DF931F92CDB7DEB78C013B
:103610006B01693E83E0780708F043C0CB01079651
:10362000969587959695879596958795A82E8093DC
:10363000FC648D5F8093D3600F2EF3E09F2EF02DFE
:103640002CC0E92CF12CF701E650FB491082B12C7B
:103650001FC0C114D104F9F0BE016F5F7F4FC801D4
:103660000E94DB1A81111EC0898190E00B2C02C0E0
:10367000880F991F0A94E2F7F701E650FB49908101
:10368000892B80830F5F1F4F81E0C81AD108B39444
:1036900087E08B15F0F6AA949394A110D2CF80E026
:1036A00001C082E00F90DF91CF911F910F91FF90A9
:1036B000EF90DF90CF90BF90AF909F9008956E37BE
:1036C000710508F085C0262F220F2093FC642D5F22
:1036D0002093D36023E076C08D339105B0F4E22FC0
:1036E000F0E0DC01AA0FBB1FAD5EBC4911963C9116
:1036F0001197E650FB493083E1E0E20FF0E02E5FE6
:103700003C91E650FB4930835AC0883E33E0930732
:1037100089F4E22FF0E03091766040917760E650D6
:10372000FB494083E1E0E20FF0E02E5FE650FB4909
:10373000308345C0893E33E0930779F4E22FF0E00F
:10374000E650FB491082E1E0E20FF0E02E5FE65028
:10375000FB4930917E60308332C08A3E33E093076C
:1037600089F4E22FF0E030917C6040917D60E6507A
:10377000FB494083E1E0E20FF0E02E5FE650FB49B9
:1037800030831DC0AC014B5E53404A31510510F5EA
:10379000E22FF0E0DC01AB5EB348AA0FBB1FA152E1
:1037A000BD4911963C911197E650FB493083E1E009
:1037B000E20FF0E02E5F3C91E650FB493083615010
:1037C000710901966115710509F086CF80E00895B1
:1037D00082E0089582E00895EF92FF920F931F9385
:1037E000CF93DF93AC01FB016E37710508F0DCC0AD
:1037F0008091006590E09B01220F331F2817390745
:1038000009F0D4C086E08093D360D0E0C7E0B2C0B6
:103810004D335105C0F4AC2FB0E0A650BB498C919C
:1038200090E0982F8827A1E0AC0FB0E0CE5FA650C3
:10383000BB492C91822BDA01AA0FBB1FAD5EBC499C
:103840008D939C9394C0483E83E05807A9F4AC2F15
:10385000B0E0A650BB498C9190E0982F8827A1E05A
:10386000AC0FB0E0CE5FA650BB492C91822B809369
:103870007660909377607BC0493E83E05807D1F42F
:10388000AC2FB0E0A650BB498C9190E0982F8827D0
:10389000A1E0AC0FB0E0CE5FA650BB492C91822BCB
:1038A0008330910520F082E080937E6060C0809339
:1038B0007E605DC04A3E83E05807A9F4AC2FB0E0BB
:1038C000A650BB498C9190E0982F8827A1E0AC0FBF
:1038D000B0E0CE5FA650BB492C91822B80937C60D8
:1038E00090937D6044C08A010B5E13400A3111053C
:1038F00008F05EC0AC2FB0E0A650BB498C9190E0C0
:10390000982F8827A1E0AC0FB0E0CE5FA650BB494E
:103910002C917C01E22A9801A5ECBEE40E94CC2601
:1039200096958795969587956DE0689F9001699F1C
:10393000300D1124C801821B930B0A9770F08091FF
:1039400075608823A1F0DA01AB5EB348AA0FBB1FF4
:10395000A152BD49ED92FC920AC0DA01AB5EB348B8
:10396000AA0FBB1FA152BD49ED92FC92D1E0319745
:103970004F5F5F4F309709F04BCFDD23D9F0809137
:10398000786090917960A0917A60B0917B600196A7
:10399000A11DB11D8093786090937960A0937A60A7
:1039A000B0937B6080E007C082E005C082E003C086
:1039B00082E001C080E0DF91CF911F910F91FF90D5
:1039C000EF900895AF92BF92DF92EF92FF920F9324
:1039D0001F93CF93DF93EC017B016E37710508F0E5
:1039E0000CC4862F880F8093FC648D5F8093D36016
:1039F0000DEF14E6FCC3C336D10561F4D8011C9267
:103A00005801B2E0AB0EB11C0E944A04F801818358
:103A10008501E9C3CE01845691098034964008F0AF
:103A200067C0FE01F695E795F695E7959F01ABE730
:103A3000B4E10E94CC26AC0156954795DD24DA947A
:103A4000D40E24E6249FC001259F900D1124BE01B1
:103A5000681B790B862F61110AC08D2D0E942304EB
:103A6000D8019C9311968C930E5F1F4FBCC361507D
:103A7000663048F48D2D0E942D04F80190838183D7
:103A80000E5F1F4FB0C369EF680F623050F48D2D89
:103A90000E943B04D8019C9311968C930E5F1F4F9C
:103AA000A2C3893089F48D2D0E94FF03F801808321
:103AB0005801F2E0AF0EB11C8D2D0E940804D80110
:103AC00011968C9385018FC38A3009F098C38D2D90
:103AD0000E941104F80180835801F2E0AF0EB11C7E
:103AE0008D2D0E941A04D80111968C9385017BC3F9
:103AF000C031B7E2DB0741F4F801108280918564A0
:103B000081830E5F1F4F6FC3C131F7E2DF0759F4A6
:103B1000E0E8F4E68781D8018C93868111968C9336
:103B20000E5F1F4F60C3C231B7E2DB0759F4E0E814
:103B3000F4E68185D8018C93808511968C930E5F75
:103B40001F4F51C3C331B7E2DB0759F4E0E8F4E695
:103B50008385D8018C93828511968C930E5F1F4FBD
:103B600042C3C431B7E2DB0759F4E0E8F4E68585E7
:103B7000D8018C93848511968C930E5F1F4F33C3AD
:103B8000C531B7E2DB0759F4E0E8F4E68785D801F0
:103B90008C93868511968C930E5F1F4F24C3C6317C
:103BA000B7E2DB0759F4E0E8F4E68189D8018C93A9
:103BB000808911968C930E5F1F4F15C3C731B7E2F2
:103BC000DB0759F4E0E8F4E68389D8018C93828915
:103BD00011968C930E5F1F4F06C3C831B7E2DB0707
:103BE00059F4E0E8F4E68689D8018C93858911962A
:103BF0008C930E5F1F4FF7C2C931B7E2DB0759F450
:103C0000E0E8F4E6808DD8018C93878911968C9337
:103C10000E5F1F4FE8C2CA31B7E2DB0759F4E0E894
:103C2000F4E6828DD8018C93818D11968C930E5F72
:103C30001F4FD9C2CB31B7E2DB0759F4E0E8F4E615
:103C4000848DD8018C93838D11968C930E5F1F4FBA
:103C5000CAC2CC31B7E2DB0759F4E0E8F4E6868D5E
:103C6000D8018C93858D11968C930E5F1F4FBBC22C
:103C7000CD31B7E2DB0759F4E0E8F4E680A1D801E2
:103C80008C93878D11968C930E5F1F4FACC2CE31F3
:103C9000B7E2DB0759F4E0E8F4E682A1D8018C939F
:103CA00081A111968C930E5F1F4F9DC2CF31B7E259
:103CB000DB0759F4E0E8F4E684A1D8018C9383A1F2
:103CC00011968C930E5F1F4F8EC2C032B7E2DB0796
:103CD00041F4F80110828091B56481830E5F1F4F1B
:103CE00082C2C132F7E2DF0749F4D8011C92809109
:103CF000B96411968C930E5F1F4F75C2C232B7E242
:103D0000DB0751F480918060F801808380917F60AF
:103D100081830E5F1F4F67C2C83FFAE2DF07F9F4E5
:103D2000F8948091716090917260A0917360B091ED
:103D300074607894F801B08398012E5F3F4FA1839F
:103D4000F2E0EF16F10408F42DC2F80192838383A8
:103D5000F1E0EF1AF10821960C5F1F4F44C2C23008
:103D60002BE2D207F9F4F89480916160909162603F
:103D7000A0916360B09164607894F801B083980179
:103D80002E5F3F4FA183F2E0EF16F10408F40CC25E
:103D9000F80192838383F1E0EF1AF10821960C5F1A
:103DA0001F4F21C2CA3F2AE2D207F9F4F89480914A
:103DB000656090916660A0916760B091686078944A
:103DC000F801B08398012E5F3F4FA183F2E0EF1618
:103DD000F10408F4EBC1F80192838383F1E0EF1A58
:103DE000F10821960C5F1F4FFEC1CC3F2AE2D2079B
:103DF000F9F4F8948091696090916A60A0916B6089
:103E0000B0916C607894F801B08398012E5F3F4FB9
:103E1000A183F2E0EF16F10408F4CAC1F80192831D
:103E20008383F1E0EF1AF10821960C5F1F4FDBC18D
:103E3000CE3F2AE2D207F9F4F89480915560909130
:103E40005660A0915760B09158607894F801B083A3
:103E500098012E5F3F4FA183F2E0EF16F10408F4C2
:103E6000A9C1F80192838383F1E0EF1AF10821964A
:103E70000C5F1F4FB8C1C6302BE2D207F9F4F8949B
:103E800080916D6090916E60A0916F60B091706054
:103E90007894F801B08398012E5F3F4FA183F2E040
:103EA000EF16F10408F488C1F80192838383F1E0EE
:103EB000EF1AF10821960C5F1F4F95C1C1152BE237
:103EC000D207F9F4F8948091596090915A60A091CA
:103ED0005B60B0915C607894F801B08398012E5FCC
:103EE0003F4FA183F2E0EF16F10408F467C1F80137
:103EF00092838383F1E0EF1AF10821960C5F1F4F44
:103F000072C1C4302BE2D207F9F4F89480915D605D
:103F100090915E60A0915F60B09160607894F801CC
:103F2000B08398012E5F3F4FA183F2E0EF16F104BA
:103F300008F446C1F80192838383F1E0EF1AF10897
:103F400021960C5F1F4F4FC1C8302BE2D207F9F406
:103F5000F8948091396090913A60A0913B60B09163
:103F60003C607894F801B08398012E5F3F4FA183A5
:103F7000F2E0EF16F10408F425C1F801928383837F
:103F8000F1E0EF1AF10821960C5F1F4F2CC1CA30E7
:103F90002BE2D207F9F4F89480913D6090913E6055
:103FA000A0913F60B09140607894F801B08398018F
:103FB0002E5F3F4FA183F2E0EF16F10408F404C135
:103FC000F80192838383F1E0EF1AF10821960C5FE8
:103FD0001F4F09C1CC302BE2D207F9F4F89480913D
:103FE000416090914260A0914360B09144607894A8
:103FF000F801B08398012E5F3F4FA183F2E0EF16E6
:10400000F10408F4E3C0F80192838383F1E0EF1A2E
:10401000F10821960C5F1F4FE6C0CE302BE2D2078D
:10402000F9F4F8948091456090914660A0914760C2
:10403000B09148607894F801B08398012E5F3F4FAB
:10404000A183F2E0EF16F10408F4C2C0F8019283F4
:104050008383F1E0EF1AF10821960C5F1F4FC3C074
:10406000C0312BE2D207F9F4F89480914960909125
:104070004A60A0914B60B0914C607894F801B08395
:1040800098012E5F3F4FA183F2E0EF16F10408F490
:10409000A1C0F80192838383F1E0EF1AF108219621
:1040A0000C5F1F4FA0C0C2312BE2D207E9F4809110
:1040B0004D6090914E60A0914F60B0915060F801BA
:1040C000B08398012E5F3F4FA183F2E0EF16F10419
:1040D00008F482C0F80192838383F1E0EF1AF108BB
:1040E00021960C5F1F4F7FC0C4312BE2D207E9F449
:1040F0008091516090915260A0915360B091546052
:10410000F801B08398012E5F3F4FA183F2E0EF16D4
:10411000F10408F463C0F80192838383F1E0EF1A9D
:10412000F10821960C5F1F4F5EC0C6312BE2D2070B
:10413000E9F48091356090913660A0913760B0913C
:104140003860F801B08398012E5F3F4FA183F2E001
:10415000EF16F10408F444C0F80192838383F1E080
:10416000EF1AF10821960C5F1F4F3DC0C8312BE2BA
:10417000D20709F046C00E946822D8019C9398019A
:104180002E5F3F4F11968C93B2E0EB16F10450F185
:10419000F80172836383F1E0EF1AF10821960C5F56
:1041A0001F4F21C089011FC089011DC089011BC08B
:1041B000890119C0890117C0890115C0890113C07F
:1041C000890111C089010FC089010DC089010BC08F
:1041D000890109C0890107C0890105C0890103C09F
:1041E000890101C0890121E0E21AF1082196E11458
:1041F000F10409F000CC80E005C082E003C082E059
:1042000001C082E0DF91CF911F910F91FF90EF905D
:10421000DF90BF90AF900895882349F0EAEFF4E66D
:10422000918190689183828383E08093D36085E05D
:104230008093F964E0E0F8E08581806285830895E9
:104240008091F964843009F0A4C08091FB648430CB
:1042500009F44EC030F48130A9F1833009F45EC016
:1042600087C0853021F0803109F46DC081C0809114
:10427000D360863009F07EC08091FE648F3F81F468
:104280009091FF6491110CC0EAEFF4E6828190E016
:10429000982F8827238161E0822B0E94B31A77C070
:1042A00081116AC08091FF64811168C0EAEFF4E671
:1042B000828190E0982F8827238160E0822B0E94E2
:1042C000B31A65C08091D360863009F059C0EAEF17
:1042D000F4E6648170E0762F66278581682B828101
:1042E00090E0982F88272381822B0E94F91A4FC0D3
:1042F0008091D360863009F045C0EAEFF4E664812E
:1043000070E0762F66278581682B828190E0982F58
:1043100088272381822B0E94E21C39C08091D360C0
:10432000863091F5EAEFF4E6648170E0762F662737
:104330008581682B828190E0982F88272381822BAA
:104340000E945F1B24C08091D3608930F8F0EAEFAF
:10435000F4E6648170E0762F66278581682B828180
:1043600090E0982F88272381822B0E94EC1B0FC09E
:1043700081E00DC083E00BC083E009C083E007C08B
:1043800083E005C083E003C083E001C083E00E94B6
:104390000C21089580934409809143098823E4F710
:1043A0008091440908951F93CF93DF93C0E0D4E038
:1043B00010E81E8380EC0E94CA211D83DF91CF91FB
:1043C0001F910895FF920F931F93CF93DF93F82EC1
:1043D000062FC0E0D4E010E81E8382E00E94CA21CC
:1043E0008F2D0E94CA21802F0E94CA211D83DF9138
:1043F000CF911F910F91FF900895EF92FF920F932D
:104400001F93CF93DF93E82EF62E042FC0E0D4E065
:1044100010E81E8385E00E94CA218E2D0E94CA21C9
:104420008F2D0E94CA21802F0E94CA211D83DF91F7
:10443000CF911F910F91FF90EF900895882331F055
:1044400048E068E08CE00E94FD21089540E068E0CB
:104450008CE00E94FD2108951F920F920FB60F92DB
:1044600011242F933F934F935F936F937F938F9379
:104470009F93AF93BF93EF93FF9381E08093060BDD
:104480000E944B030E94E20C8091D5609091D6600F
:10449000A091D760B091D8600196A11DB11D809305
:1044A000D5609093D660A093D760B093D860FF9109
:1044B000EF91BF91AF919F918F917F916F915F919C
:1044C0004F913F912F910F900FBE0F901F90189515
:1044D000F8946091D5607091D6608091D76090918A
:1044E000D860789408958F929F92AF92BF92CF92A6
:1044F000DF92EF92FF924B015C0169017A010E9409
:104500006822DC01CB0188199909AA09BB098C151D
:104510009D05AE05BF0510F081E001C080E0FF9071
:10452000EF90DF90CF90BF90AF909F908F900895C5
:104530009091040895FFFCCF8093020880E090E002
:104540000895E0E0F8E086EB92E08087918782E2D0
:10455000878380E4868380E090E68093FC65909377
:10456000FD6508955058BB27AA270E94CA220C94C3
:104570000E240E94002438F00E94072420F039F411
:104580009F3F19F426F40C94FD230EF4E095E7FB0D
:104590000C94F723E92F0E941F2458F3BA176207DF
:1045A00073078407950720F079F4A6F50C9441244D
:1045B0000EF4E0950B2EBA2FA02D0B01B90190013E
:1045C0000C01CA01A0011124FF27591B99F0593F82
:1045D00050F4503E68F11A16F040A22F232F342FCA
:1045E0004427585FF3CF469537952795A795F04018
:1045F0005395C9F77EF41F16BA0B620B730B840B2D
:10460000BAF09150A1F0FF0FBB1F661F771F881FE4
:10461000C2F70EC0BA0F621F731F841F48F487953C
:1046200077956795B795F7959E3F08F0B0CF93952E
:10463000880F08F09927EE0F9795879508950E94A7
:10464000D32308F481E008950E9438230C940E24AB
:104650000E94072458F00E94002440F029F45F3F94
:1046600029F00C94F72351110C9442240C94FD234F
:104670000E941F2468F39923B1F3552391F3951BEE
:10468000550BBB27AA2762177307840738F09F5F73
:104690005F4F220F331F441FAA1FA9F335D00E2EE0
:1046A0003AF0E0E832D091505040E695001CCAF74D
:1046B0002BD0FE2F29D0660F771F881FBB1F261710
:1046C00037074807AB07B0E809F0BB0B802DBF01E7
:1046D000FF2793585F4F3AF09E3F510578F00C94B6
:1046E000F7230C9442245F3FE4F3983ED4F386957D
:1046F00077956795B795F7959F5FC9F7880F911DD7
:104700009695879597F90895E1E0660F771F881FC2
:10471000BB1F621773078407BA0720F0621B730B75
:10472000840BBA0BEE1F88F7E0950895E89409C052
:1047300097FB3EF490958095709561957F4F8F4FD4
:104740009F4F9923A9F0F92F96E9BB279395F695EA
:10475000879577956795B795F111F8CFFAF4BB0F68
:1047600011F460FF1BC06F5F7F4F8F4F9F4F16C0CC
:10477000882311F096E911C0772321F09EE8872F56
:10478000762F05C0662371F096E8862F70E060E012
:104790002AF09A95660F771F881FDAF7880F96958B
:1047A000879597F90895990F0008550FAA0BE0E82F
:1047B000FEEF16161706E807F907C0F012161306E3
:1047C000E407F50798F0621B730B840B950B39F423
:1047D0000A2661F0232B242B252B21F408950A2689
:1047E00009F4A140A6958FEF811D811D089597F9C9
:1047F0009F6780E870E060E008959FEF80EC089587
:1048000000240A94161617061806090608950024AF
:104810000A9412161306140605060895092E039429
:10482000000C11F4882352F0BB0F40F4BF2B11F49D
:1048300060FF04C06F5F7F4F8F4F9F4F089557FDFC
:104840009058440F551F59F05F3F71F04795880FFE
:1048500097FB991F61F09F3F79F087950895121695
:1048600013061406551FF2CF4695F1DF08C0161641
:1048700017061806991FF1CF8695710561050894F2
:104880000895E894BB2766277727CB0197F9089509
:104890000E94D32308F48FEF089516F00C94D125CD
:1048A0000C94FD2368940C94F7230E942724A8F30A
:1048B0009923C1F3AEF3DF93CF931F930F93FF922E
:1048C000C92FDD2788232AF02197660F771F881FBD
:1048D000DAF720E030E040E85FEB9FE3883920F032
:1048E000803E38F021968F770E94B322E4ECF0E00E
:1048F00004C00E94B322E1EFF0E00E94DF258B01AB
:10490000BE01EC01FB2E6F5771097595771F880B5F
:10491000990B0E94982328E132E741E35FE30E946C
:10492000ED24AF2D9801AE01FF900F911F91CF9113
:10493000DF910E94CA220C940E240E942724A8F121
:104940009E57B0F1985160F039F1983070F5092E0A
:104950009927660F771F881F991F0A94D1F71CC0EB
:10496000BB27993F4CF4B111B1E0B62B672F782FDC
:104970008827985FB1F708C0869577956795B795B2
:1049800008F4B1609395C1F7BB0F30F411F460FFE8
:1049900003C06F5F7F4F8F4F3EF490958095709569
:1049A00061957F4F8F4F9F4F089568940C944224D8
:1049B0000C9441240E94ED240C940E240E940024A7
:1049C00038F00E94072420F0952311F00C94F7236F
:1049D0000C94FD2311240C9442240E941F2470F394
:1049E000959FC1F3950F50E0551F629FF001729F94
:1049F000BB27F00DB11D639FAA27F00DB11DAA1FA3
:104A0000649F6627B00DA11D661F829F2227B00DEF
:104A1000A11D621F739FB00DA11D621F839FA00D7A
:104A2000611D221F749F3327A00D611D231F849FCA
:104A3000600D211D822F762F6A2F11249F57504021
:104A40009AF0F1F088234AF0EE0FFF1FBB1F661F9C
:104A5000771F881F91505040A9F79E3F510580F065
:104A60000C94F7230C9442245F3FE4F3983ED4F374
:104A7000869577956795B795F795E7959F5FC1F709
:104A8000FE2B880F911D9695879597F90895FA0149
:104A9000EE0FFF1F309621053105A1F1611571055B
:104AA00061F48038BFE39B0749F168949038810531
:104AB00061F08038BFEF9B0741F099234AF5FF3F33
:104AC000E1053105210519F1E8940894E795D9012C
:104AD000AA2329F4AB2FBE2FF85FD0F310C0FF5FDD
:104AE00070F4A695E0F7F73950F019F0FF3A38F472
:104AF0009F779F930DD00F9007FC9058089546F034
:104B00000C94FD2360E070E080E89FE308954FE798
:104B10009F775F934F933F932F930E9455242F913C
:104B20003F914F915F910E94DA240C949F2529F4C4
:104B300016F00C94F7230C9441240C94FD230E944E
:104B40002724A8F39638A0F707F80F92E8942BE3F0
:104B50003AEA48EB5FE70E94F0240F920F920F921F
:104B60004DB75EB70F920E944826EEE1F1E00E9439
:104B7000DF254F915F91EF91FF91E595EE1FFF1FAC
:104B800049F0FE57E0684427EE0F441FFA95E1F71D
:104B90004195550B0E9412260F9007FE0C94062695
:104BA00008959F3F31F0915020F487957795679550
:104BB000B795880F911D9695879597F90895DF937E
:104BC000CF931F930F93FF92EF92DF927B018C01A3
:104BD000689406C0DA2EEF010E94ED24FE01E894ED
:104BE000A5912591359145915591A6F3EF010E942C
:104BF000CA22FE019701A801DA9469F7DF90EF90CD
:104C0000FF900F911F91CF91DF9108959B01AC010F
:104C100060E070E080E89FE30C9424230C94F72379
:104C20000C94D1250E942724D8F39923C9F3940F1B
:104C3000511DA3F39150504094F059F0882332F065
:104C4000660F771F881F91505040C1F79E3F510556
:104C50002CF7880F911D9695879597F908955F3FDA
:104C6000ACF0983E9CF0BB27869577956795B795F5
:104C700008F4B1609395C1F7BB0F58F711F460FFCA
:104C8000E8CF6F5F7F4F8F4F9F4FE3CF0C9442244D
:104C9000FA01DC01AA0FBB1F9B01AC01BF5728F42E
:104CA000222733274427507820C0B75190F4AB2FE8
:104CB0000024469537952795011CA395D2F3002033
:104CC00071F0220F331F441FB395DAF30ED00C940A
:104CD000B22261307105A0E88A07B94630F49B0121
:104CE000AC016627772788279078309621F02083BB
:104CF0003183428353830895AA1BBB1B51E107C034
:104D0000AA1FBB1FA617B70710F0A61BB70B881F5B
:104D1000991F5A95A9F780959095BC01CD010895EA
:104D200097FB072E16F4009407D077FD09D00E9458
:104D30007C2607FC05D03EF4909581959F4F089501
:104D4000709561957F4F0895A1E21A2EAA1BBB1B97
:104D5000FD010DC0AA1FBB1FEE1FFF1FA217B30747
:104D6000E407F50720F0A21BB30BE40BF50B661F5D
:104D7000771F881F991F1A9469F760957095809521
:104D800090959B01AC01BD01CF010895EE0FFF1F6F
:104D90000590F491E02D0994A29FB001B39FC0014A
:104DA000A39F700D811D1124911DB29F700D811D57
:104DB0001124911D08950E94CC26A59F900DB49FAB
:104DC000900DA49F800D911D1124089591110C94B4
:104DD000FB2680538A5028F0865C8062815686507C
:104DE000B0F70895FB01DC0102C005900D9241501F
:104DF0005040D8F7089599278827089560507C4E31
:104E00000C94382703D0808199270895FC01E05045
:104E1000FC4E08950E940627808191810895262FD7
:104E20000E9406270080021619F00E941B27019796
:104E300001970895262FAF93BF93E0E0F0E1328110
:104E400031FDFDCF3DE934BF33E13083DC01A050BB
:104E5000BC4E2C933DE934BF20E020830196BF91E6
:104E6000AF910895DC0128ED209334006C930895F0
:104E7000FB01DC0102C001900D9241505040D8F777
:064E80000895F894FFCF35
:0E4E8600000000020000000098220000000062
:00000001FF
