:100000000C94DF000C94C9110C94FC000C94FC00BF
:100010000C94FC000C94FC000C94FC000C94FC0070
:100020000C94FC000C94FC000C94FC000C94FC0060
:100030000C94FC000C94FC000C9487210C94FE00A2
:100040000C94FC000C94FC000C94FC000C94F00943
:100050000C94FC000C94AB190C94E3180C94FC0069
:100060000C94FC000C94FC000C94FC000C94FC0020
:100070000C94FC000C94FC000C94FC000C94BE014D
:100080000C9485010C94FC000C94FC000C94FC0076
:100090009B04BE04D404E904FE0413052805C70626
:1000A0001A0728073F07750780088008800891070E
:1000B000A907C007D807EF078008FE071B08330809
:1000C000630808000000BE922449123EABAAAA2A87
:1000D000BECDCCCC4C3E00000080BEABAAAAAA3E4E
:1000E00000000000BF000000803F0000000000088A
:1000F0004178D3BB4387D1133D190E3CC3BD428227
:10010000AD2B3E68EC8276BED98FE1A93E4C80EFE4
:10011000FFBE01C4FF7F3F000000000007634236BE
:10012000B79BD8A71A39685618AEBAAB558C1D3C88
:10013000B7CC5763BD6DEDFD753EF6177231BF004C
:100140000000803F7C10800C701748F4E0FC18FC25
:100150002003E8036400F4016400AC0DD20FB40F77
:10016000600900009411E8039411541008072C0151
:10017000640096003200A00F401FA00F401FA00F88
:100180007017D0070400B80B020013001900050017
:1001900014000A0003000A00010019001400000006
:1001A000820002003BFF0500020006000500060079
:1001B000040007000D000900AD9F989F66FF112401
:1001C0001FBECFEFCDBFDFE7DEBF10E6A0E0B0E699
:1001D000E0EEFCE402C005900D92AE30B107D9F715
:1001E00025E6AEE0B0E601C01D92A33FB207E1F7FD
:1001F0000E9433170C946E260C9400001F920F92ED
:100200000FB60F9211248F939F93AF93BF93EF93E9
:10021000FF9380E8809365048091160B80FF60C097
:10022000E0E1FBE080818E7F80831286138681E08F
:10023000868380912160823019F41092216050C031
:10024000809121608330D9F4109223601092256050
:10025000E0E2F8E0868180688683A0E1BBE080E28E
:100260009EE41C968D939C931D978C9181608C933A
:1002700085818062858381E08093216031C0E0E2E6
:10028000F8E086818F77868385818F7D858385E001
:1002900080932460E2E5F0E680859185A285B385B0
:1002A0000196A11DB11D80879187A287B387809198
:1002B0002A60882349F083E08093216080912A603E
:1002C000815080932A6003C082E080932160E0E146
:1002D000FBE080E593EC8487958780818160808353
:1002E0008091160B81FF03C082E08093160B80E89B
:1002F00080936604FF91EF91BF91AF919F918F9191
:100300000F900FBE0F901F9018951F920F920FB66F
:100310000F9211248F939F93EF93FF9380E8809324
:1003200065049091236080912260981780F4E09199
:10033000236081E08E0F80932360F0E0E452FF4958
:100340008081E0E2F8E082838481806484839091FC
:10035000236080912260981305C0E0E2F8E0858177
:100360008F7D858380E880936604FF91EF919F9154
:100370008F910F900FBE0F901F9018951F920F92A4
:100380000FB60F9211242F933F934F935F938F9348
:100390009F93AF93BF93EF93FF9380E8809365049F
:1003A000E0E2F8E08181908182FF12C087E08093D3
:1003B0002460E2E5F0E680819181A281B38101961B
:1003C000A11DB11D80839183A283B38381E012C1FB
:1003D00086FF12C086E080932460E2E5F0E6848127
:1003E0009581A681B7810196A11DB11D8483958356
:1003F000A683B78381E0FEC08091256081110BC088
:100400001092106099232CF481E080930F609F7705
:1004100002C010920F6080912560803208F0D7C032
:10042000809125608330D0F4E0912560F0E0E452C3
:10043000FF498081981791F084E080932460E2E581
:10044000F0E684899589A689B7890196A11DB11D19
:10045000848B958BA68BB78B81E0CCC0E091256017
:1004600081E08E0F80932560F0E0E356FD49908394
:100470008091DC6080FF47C080912560843009F066
:10048000B8C08091DF60981791F084E08093246079
:10049000E2E5F0E684899589A689B7890196A11DD0
:1004A000B11D848B958BA68BB78B81E0A3C0809107
:1004B000DC608130B1F480910F60811112C083E063
:1004C00080932460E2E5F0E6808D918DA28DB38D5E
:1004D0000196A11DB11D808F918FA28FB38F81E0F6
:1004E00089C082E080932460E2E5F0E6848D958DFA
:1004F000A68DB78D0196A11DB11D848F958FA68FF6
:10050000B78F81E077C0809125608330D1F48091EE
:10051000DC60811116C080910F60811112C083E0F0
:1005200080932460E2E5F0E6808D918DA28DB38DFD
:100530000196A11DB11D808F918FA28FB38F81E095
:1005400059C04091256050E02091DE6030E02C5F82
:100550003F4F4217530741F580911060981791F073
:1005600084E080932460E2E5F0E680899189A289A5
:10057000B3890196A11DB11D808B918BA28BB38B8A
:1005800081E038C082E080932460E2E5F0E6848D6B
:10059000958DA68DB78D0196A11DB11D848F958F68
:1005A000A68FB78F81E026C080912560813009F445
:1005B0009F7720911060292788E097E0220F08F4A8
:1005C00029278A95D9F72093106080E013C086E030
:1005D00080932460E2E5F0E684859585A685B7855D
:1005E0000196A11DB11D84879587A687B78781E0F5
:1005F00001C080E08823E1F1E0E2F8E086818F77B6
:10060000868385818F7D8583E0E1FBE080818E7F1D
:1006100080831286138680912460823021F080913D
:100620002460833061F480912660909127608093EC
:100630001C0B90931D0B82E08093216012C080E51B
:1006400093EC80931C0B90931D0B80912A60882360
:1006500041F083E08093216080912A6081508093F3
:100660002A60E0E1FBE083E0868380818160808313
:1006700080E880936604FF91EF91BF91AF919F91C5
:100680008F915F914F913F912F910F900FBE0F90DF
:100690001F9018958091216081110FC08091286072
:1006A00090912960892B49F0809128609091296070
:1006B000019780932860909329608091FC60882343
:1006C00029F08091FC6081508093FC600895FC01CA
:1006D00080E00EC0AF014F5F5F4F9081892798E0A7
:1006E00037E0880F08F483279A95D9F7622FFA012B
:1006F0002FEF260F6111EECF089510922360109214
:10070000256081E080932160E0E2F8E086818068E6
:100710008683858180688583A0E1BBE080E29EE4DA
:100720001C968D939C931D97F89485818062858398
:100730008C9181608C9378940895FF920F931F930E
:10074000CF93DF939091216091111BC0F22E8F7394
:10075000880F8160CCEDD0E6888369834A8363E0AB
:10076000CE010E9467038B8384E080932260F09225
:100770002A6000932660109327600E947D0381E029
:1007800001C080E0DF91CF911F910F91FF900895FC
:100790000F931F9390912160911119C0E42FF0E005
:1007A0003496B197B4F48F73880FECEDF0E6808344
:1007B0006183428383E08093226020932A600093C8
:1007C0002660109327600E947D0381E003C080E0D3
:1007D00001C080E01F910F910895609111607091A8
:1007E00012608091136090911460089581E080936D
:1007F0001F60089580911F60089580931B6060932F
:100800001A6081E080931D6010921C6008958093AF
:10081000176060931660409315601092186081E035
:100820008093196008958091196008952AE1829F4C
:10083000C0011124FC01E350FF49858908952AE194
:10084000829FC0011124FC01E350FF49868908956D
:100850002AE1829FC0011124FC01E350FF498489F1
:1008600008952AE1829FC0011124FC01E350FF4951
:10087000818D08952AE1829FC0011124FC01E3507B
:10088000FF498485958508952DE0829FC00111243C
:10089000FC01E60FF11DEE0FFF1FE350FF498081C1
:1008A000918108952DE0829FC0011124FC01E60F83
:1008B000F11D3896EE0FFF1FE350FF4980819181B3
:1008C00008958091BD62089580E00AC09AE1899FF1
:1008D000F0011124E350FF4996899064968B8F5F55
:1008E0009091BD62891790F308958F929F92AF9275
:1008F000BF92CF92DF92EF92FF920F931F93CF930D
:10090000DF93809121608111FBC3F894809128606E
:10091000909129607894892B09F0F2C3E0912060CE
:100920008E2F90E08931910508F0EAC3FC01E85B65
:10093000FF4F0C94F32580911F60882321F088E0FD
:1009400080932060DDC380911D60882321F08FE0BB
:1009500080932060D5C380911960882321F085E1C0
:1009600080932060CDC38091FC608111C9C384E66F
:100970008093FC6081E080932060C2C38091BD625F
:10098000811103C010922060BBC381E080930E6090
:1009900082E08093206008E813E123E043E061E314
:1009A0008FE30E949D03ACC380912460823061F488
:1009B00083E08093206000E21EE423E04DE360E3E7
:1009C0008FE30E949D039CC30E94640410922060E8
:1009D00097C380912460823061F484E0809320602A
:1009E00000E117E223E041E064E38FE30E949D030E
:1009F00087C30E9464041092206082C380912460A7
:100A0000823061F485E08093206008E813E123E000
:100A100040E061E38FE30E949D0372C30E9464047F
:100A2000109220606DC380912460823061F486E072
:100A30008093206008E813E123E043E160E081E077
:100A40000E94C8035DC30E9464041092206058C3D2
:100A500080912460823009F07EC100910E6010E028
:100A6000015011098AE1809FE001819FD00D11247E
:100A7000C350DF498E898F7B8E8BEDE9F2E683814F
:100A80008C8B248130E0322F22278581280F311D65
:100A9000A5E3B2E80E94F9252FEF3FE340E050E0E4
:100AA0000E94D1252E873F87B12CC12CD12C7601F5
:100AB00038C0CB2DD0E0DE011396AA0FBB1FA35682
:100AC000BD498C9190E0982F8827FE01EE0FFF1F03
:100AD000EC55FD492081820F911DC80ED91EE11CE5
:100AE000F11C2C9130E0322F22278081280F311DFC
:100AF000AAE6B8E10E94F9252FEF3FE340E050E07D
:100B00000E94D1256DE0609FC001619F900D11246E
:100B1000C80FD91FCC0FDD1FC350DF49288339838D
:100B2000B39485E08B1528F6AAE6B8E1A7019601F3
:100B30000E9408262FEF3FE340E050E00E94D125BD
:100B40008AE1809FF001819FF00D1124E350FF495D
:100B500024873587EDE9F2E6628970E0762F662713
:100B60008389680F711D6E5F7F4F072E000C880B05
:100B7000990B0E94EE229B01AC016EE373E680E6C6
:100B80009CE40E947A2220E030E84EE555E40E9481
:100B90000D220E9482236B017C0124EA3DE04FE894
:100BA00059E30E9407242AE530E847E45AE30E940B
:100BB0000E224B015C0120E030E040E450E4C7012C
:100BC000B6010E94742426E436EA4BED53E30E94FA
:100BD00007249B01AC01C501B4010E940E229B01B8
:100BE000AC0160E070E080E89FE30E947A2223E39A
:100BF00033E948E853E40E940D2220E030E048EC5D
:100C000052E40E9407240E94CA23462F572F682FC0
:100C1000792F411580E858078FEF680778073CF077
:100C2000411580E858076105710534F409C040E0BA
:100C300050E86FEF7FEF04C04FEF5FE760E070E0D8
:100C40008AE1809FF001819FF00D1124E350FF495C
:100C5000408B518BEDE9F2E6648970E0762F6627D0
:100C60008589680F711D675F7F4F072E000C880B09
:100C7000990B0E94EE229B01AC016CE779E880E6BB
:100C80009CE40E947A2220E030E84EE555E40E9480
:100C90000D220E9482236B017C0124EA3DE04FE893
:100CA00059E30E9407242AE530E847E45AE30E940A
:100CB0000E224B015C0120E030E040E450E4C7012B
:100CC000B6010E94742426E436EA4BED53E30E94F9
:100CD00007249B01AC01C501B4010E940E229B01B7
:100CE000AC0160E070E080E89FE30E947A2223E399
:100CF00033E948E853E40E940D2220E030E048EC5C
:100D000052E40E9407240E94CA23462F572F682FBF
:100D1000792F411580E858078FEF680778073CF076
:100D2000411580E858076105710534F409C040E0B9
:100D300050E86FEF7FEF04C04FEF5FE760E070E0D7
:100D40008AE1809FF001819FF00D1124E350FF495B
:100D5000428B538B0FC080910E6090E001972AE187
:100D6000289FF001299FF00D1124E350FF49868947
:100D70008064868B87E08093206008E813E123E09D
:100D800042E060E280910E600E94C803B9C1809188
:100D900024608230B1F480910E6090E00197ADE95B
:100DA000B2E613962C9113973AE1389FF001399FE0
:100DB000F00D1124E350FF49258B14968C91868BFE
:100DC0000FC080910E6090E001972AE1289FF0010A
:100DD000299FF00D1124E350FF4986898064868B9A
:100DE00080910E608F5F80930E609091BD62981726
:100DF000B0F48091116090911260A0911360B09155
:100E000014600196A11DB11D809311609093126032
:100E1000A0931360B09314601092206071C196E0AB
:100E20009093206008E813E123E043E160E00E9432
:100E3000C80366C11092BD6289E08093206008E813
:100E400013E123E040E06BE38FE30E949D0358C170
:100E500080912460823061F48AE08093206008E809
:100E600013E123E041E060E080E00E94C80348C154
:100E700010921E6010921F601092206041C18091FC
:100E800024608230F9F48091BD62803170F49BE07F
:100E9000909320608F5F482F406808E813E120E0BE
:100EA0006BE380E00E949D032BC1811103C010926F
:100EB0001E6003C081E080931E6010921F6010923C
:100EC00020601EC180912460833041F481E08093D2
:100ED0001E6010921F601092206012C110921E605E
:100EE00010921F60109220600BC1809124608230AC
:100EF00089F48091BD628F5F8093BD628AE08093A8
:100F0000206008E813E123E041E060E080E00E9417
:100F1000C803F6C010921E6010921F6010922060ED
:100F2000EFC08091BD62811107C010921C601092C9
:100F30001D6010922060E4C008E813E123E04091B6
:100F40001B6060E28FE30E949D0380E1809320603C
:100F5000D7C080912460823061F408E813E123E077
:100F600040E060E28FE30E949D0381E18093206076
:100F7000C7C010921C6010921D6010922060C0C00B
:100F800080912460823069F408E813E123E0409105
:100F90001A6061E28FE30E949D0382E180932060EA
:100FA000AFC010921C6010921D6010922060A8C00B
:100FB00080912460823061F408E813E123E040E08E
:100FC00061E28FE30E949D0383E18093206098C0DB
:100FD00010921C6010921D601092206091C0809150
:100FE0002460823021F481E080931C6002C0109262
:100FF0001C6010921D601092206082C09091BD62B2
:10100000992331F080911760882311F0981738F4F4
:1010100010921860109219601092206071C008E858
:1010200013E123E04091156063E30E949D0386E194
:101030008093206065C080912460823069F408E864
:1010400013E123E040E062E3809117600E949D037A
:1010500087E18093206054C010921860109219604C
:10106000109220604DC080912460823029F540911B
:101070001660411115C08091176090E001972AE138
:10108000289FF001299FF00D1124E350FF49118E94
:1010900081E080931860109219601092206030C037
:1010A00008E813E123E062E3809117600E949D034A
:1010B00088E18093206024C010921860109219601B
:1010C000109220601DC080912460823099F480913C
:1010D000176090E00197209116603AE1389FF00187
:1010E000399FF00D1124E350FF49218F81E0809357
:1010F000186002C01092186010921960109220605F
:10110000DF91CF911F910F91FF90EF90DF90CF90E3
:10111000BF90AF909F908F9008950F931F93CF93A0
:10112000DF9380E090E00E942F26182F81E090E06E
:101130000E942F26082F8FEF9FEF9127092E0294F0
:10114000202D2F702927392F3025330F307E23276C
:10115000302D3927307F3695092E000C331F969598
:10116000969596959F7193279827822F9027092E01
:101170000294202D2F702927392F3025330F307EF0
:101180002327302D3927307F3695092E000C331F49
:101190009695969596959F7193279827822FEC01A7
:1011A0004AE750E062E070E086E093E60E942B267A
:1011B00030E021C0E32FF0E0EA5FFC492081CE015E
:1011C0009227092E0294202D2F702927492F402580
:1011D000440F407E2427402D4927407F4695092E05
:1011E000000C441F9695969596959F719427982785
:1011F000822FEC013F5F3A37E8F28CE790E00E94E3
:101200003726113029F4011103C0C817D90741F05E
:101210004AE750E064E471E086E093E60E941F260E
:10122000DF91CF911F910F91089581E080933160FC
:1012300008958091316008958091021081FDC1C0B0
:1012400080913160882309F4BCC080912F60909117
:101250003060009709F02CC086E093E680932B6005
:1012600090932C608FEF9FEF21E09227092E02943C
:10127000202D2F702927392F3025330F307E23273B
:10128000302D3927307F3695092E000C331F969567
:10129000969596959F7193279827822F80932D601E
:1012A00090932E6061E080E090E00E943C2680C038
:1012B0008130910509F028C080912D6090912E60B9
:1012C00020E09227092E0294202D2F702927392FF4
:1012D0003025330F307E2327302D3927307F369548
:1012E000092E000C331F9695969596959F7193271E
:1012F0009827822F80932D6090932E6060E081E08C
:1013000090E00E943C2654C08C37910529F46091EE
:101310002D600E943C264CC08D37910569F4609188
:101320002E600E943C26109231608FEF9FEF8093D9
:101330002F60909330603CC08E37910548F010923A
:1013400031608FEF9FEF80932F609093306030C0BB
:10135000E0912B60F0912C60619180912D609091D3
:101360002E609627092E0294202D2F702927392FC1
:101370003025330F307E2327302D3927307F3695A7
:10138000092E000C331F9695969596959F7193277D
:101390009827822F80932D6090932E60E0932B608E
:1013A000F0932C6080912F60909130600E943C26D9
:1013B00080912F6090913060019680932F60909380
:1013C00030600895F89480937F6090938060789463
:1013D0000895F89480917F6090918060789408954A
:1013E0001F920F920FB60F9211248F939F93AF937A
:1013F000BF93EF93FF938091050982FD02C083FFA5
:101400001DC0E1E8F0E683E08387A0E0B9E08DE06D
:1014100015968C93159787E014968C9310821486FA
:10142000E6E3F0E684819581A681B7810196A11D4E
:10143000B11D84839583A683B783B6C086FF6EC033
:1014400084FF2DC080910709882389F081E0809373
:101450008C60E6E3F0E680859185A285B3850196F0
:10146000A11DB11D80879187A287B38710C082E03C
:1014700080938C60E6E3F0E684859585A685B78544
:101480000196A11DB11D84879587A687B78783E044
:1014900080930409E1E8F0E61082148685C080910B
:1014A000856090918660892B99F0E1E8F0E684816F
:1014B0009581019784839583A281B381CD010196A3
:1014C000828393838C918093080981E084876CC028
:1014D00080918B60882369F0E1E8F0E612868181D3
:1014E00090E0880F991F81608093070982E08487CC
:1014F0005BC083E080930409E1E8F0E61082148683
:10150000E6E3F0E680819181A281B3810196A11D7D
:10151000B11D80839183A283B38346C08823BCF529
:101520008091896090918A60892B81F0E1E8F0E6F2
:10153000A681B781CD0101968683978380910809A2
:101540008C938085918501978087918780918960B0
:1015500090918A60892BA9F487E080930409E1E8DF
:10156000F0E610821486E6E3F0E680819181A281A4
:10157000B3810196A11DB11D80839183A283B383A2
:1015800013C082E08093040980938D600DC0E6E370
:10159000F0E680899189A289B3890196A11DB11DC8
:1015A000808B918BA28BB38B80E880936604FF9134
:1015B000EF91BF91AF919F918F910F900FBE0F90C0
:1015C0001F9018958DE0E1E8F0E6DF011D928A9505
:1015D000E9F7E0E4F4E082898860828B838988609F
:1015E000838BE0E0F9E0108212828EE5868381E051
:1015F00083838DEE858381EC838308950F931F93FE
:101600009091816091111AC09091050990FF18C0C6
:10161000E1E8F0E691E090838183928762837383AF
:1016200044835583268337830087118713869487E5
:101630008181880F8093070980E003C084E001C0A6
:1016400084E01F910F9108959091816091111AC0CB
:101650009091050990FF18C0E1E8F0E691E09083D1
:101660008183128662837383448355831682178233
:1016700010861186138694878181880F80930709CD
:1016800080E0089584E0089584E0089580917F606B
:1016900090918060892B49F080917F60909180606B
:1016A000019780937F6090938060089590918E6001
:1016B000911109C0EEE8F0E68283638344832583B9
:1016C00081E08083089580E0089590918F6091116A
:1016D00006C0EEE8F0E6868381E08183089580E02D
:1016E00008958091AC6408959FEF980F983050F45E
:1016F000E82FF0E03197EE0FFF1FED58FB49858989
:101700009689089580E090E008950F931F9380914B
:101710007E60811158C010920309E0E4F4E08CE08F
:101720008683808583FD0EC0E6E3F0E6808D918D93
:10173000A28DB38D0196A11DB11D808F918FA28FB7
:10174000B38F15C182E48A95F1F700C080914804F7
:1017500082FD17C0E0E4F4E088E0818392E49A958A
:10176000F1F700C08283E6E3F0E684899589A689D3
:10177000B7890196A11DB11D848B958BA68BB78B64
:10178000F6C0E0E4F4E084E08183A2E4AA95F1F7F6
:1017900000C08283B2E4BA95F1F700C08DE0E1E8C1
:1017A000F0E6DF011D928A95E9F7E0E0F9E01082AA
:1017B00012828EE5868381E083839DEE958391EC92
:1017C000938380937E6080918D608111D0C08091E1
:1017D0007E608130C9F480918E60882321F086E09C
:1017E00080937E60C4C080918F60882321F088E060
:1017F00080937E60BCC00E94E909892B09F0B7C0C4
:1018000082E080937E60B3C0863021F5E9EFF3E695
:1018100085E38083AEE8B0E612968C9112978183BF
:1018200013968C911397828314968C9114978383CB
:1018300015968C91848345E050E0BF0180E10E94C1
:10184000240B811104C087E080937E6090C01092C9
:101850007E608DC0873069F480918C60882319F098
:1018600010927E6084C081E080937E6010928E60D2
:101870007EC08830B1F4E9EFF3E68AE3808380919B
:101880009460818342E050E0BF0180E10E94240B1C
:10189000811104C089E080937E6069C010927E60EF
:1018A00066C0893069F480918C60882319F01092A9
:1018B0007E605DC081E080937E6010928F6057C033
:1018C0008230B1F41092F96309E710E020E833E6C2
:1018D00041E050E069EF73E680E10E94FE0A811169
:1018E00004C083E080937E6042C010927E603FC05F
:1018F0008330A1F480918C60882319F010927E606F
:1019000036C089E7E0E8F3E6A3E7B4E601900D927C
:101910008A95E1F784E080937E6029C08430B9F431
:10192000E9EFF3E68BE380838091AE648F5F818380
:1019300042E050E0BF0180E10E94240B811104C00D
:1019400085E080937E6013C010927E6010C0853069
:1019500071F480918C60882319F010927E6007C02A
:1019600081E080937E6084E690E00E94E2091F910E
:101970000F910895CF93DF932091D06230E0409192
:101980004A6350914B632417350719F4C0E0D0E047
:1019900002C0C0E0D0E24091C2625091C362209187
:1019A0000663309107632417350708F4C460882361
:1019B00069F02091C4623091C56280912263909158
:1019C00023632817390770F4C1600CC02091C462EA
:1019D0003091C56280910863909109632817390797
:1019E00008F4C2602091C6623091C76280910A6398
:1019F00090910B63821793070CF4C0612091C86229
:101A00003091C96280910C6390910D63281739075A
:101A10000CF4C8608091CC629091CD6220911463E7
:101A200030911563281739073CF0209110633091ED
:101A300011638217930714F4C06430C020911263BD
:101A400030911363281739073CF020910E633091D1
:101A50000F6382179307C4F4209146633091476364
:101A6000A8EEB3E00E94F9259B01AC016091B8603B
:101A70007091B9608091BA609091BB600E94CE2154
:101A8000882361F0C0620AC00E94C3216093B860DD
:101A90007093B9608093BA609093BB600E94710BA1
:101AA000833029F0843039F0823031F402C0D460C0
:101AB00003C0D26001C0D8608091CE6286FDD16043
:101AC000209166633091676390E0822393238F7B3C
:101AD0009927892B49F48091CF62232F332790E0F7
:101AE00028233923232B09F0C0684091BE6250910E
:101AF000BF626091C0627091C1628091B460909148
:101B0000B560A091B660B091B760481759076A07F1
:101B10007B07D9F00E94C3216093B0607093B160DD
:101B20008093B2609093B3608091BE629091BF62E7
:101B3000A091C062B091C1628093B4609093B5608F
:101B4000A093B660B093B76010C06091B060709120
:101B5000B1608091B2609091B36028EE33E040E0D4
:101B600050E00E94CE218111D061CE01DF91CF9152
:101B700008952091C4623091C56280911C63909158
:101B80001D6328173907A8F42091526330915363DD
:101B9000A8EEB3E00E94F9259B01AC016091AC6016
:101BA0007091AD608091AE609091AF600E94CE2147
:101BB00008950E94C3216093AC607093AD608093E0
:101BC000AE609093AF6080E008959091AB60882301
:101BD00051F14091C6625091C762209126633091C5
:101BE0002763241735070CF14091C8625091C962F0
:101BF000209124633091256342175307C4F020914C
:101C0000C2623091C36240912063509121632417D6
:101C1000350778F040911E6350911F6342175307B8
:101C200050F0892F09C080E007C080E005C080E047
:101C300003C081E001C080E0891799F08093AB6018
:101C400081110FC081E08093AA600E94C32160933C
:101C5000A6607093A7608093A8609093A96080E0CD
:101C600008958091AA608823C1F020915463309137
:101C70005563A8EEB3E00E94F9259B01AC01609189
:101C8000A6607091A7608091A8609091A9600E9461
:101C9000CE21882321F01092AA608091AB60089534
:101CA0002091C6623091C76280912A6390912B6324
:101CB000821793075CF02091C8623091C9628091CD
:101CC0002863909129632817390774F481E0809381
:101CD000A5600E94C3216093A1607093A26080936D
:101CE000A3609093A46030C02091C2623091C3621F
:101CF00080912C6390912D638217930770F481E09B
:101D00008093A5600E94C3216093A1607093A2603C
:101D10008093A3609093A46017C020915863309182
:101D20005963A8EEB3E00E94F9259B01AC016091D4
:101D3000A1607091A2608091A3609091A4600E94C4
:101D4000CE2181111092A5608091A56008951F9306
:101D5000CF93DF93C82FD62F142F882341F0809183
:101D6000A060823089F581E08093A0602DC08091D1
:101D7000A060823079F04091C8625091C962209190
:101D80003663309137632417350724F082E080935F
:101D9000A0601AC08230C1F42091C8623091C9623B
:101DA0008091346390913563281739076CF081E096
:101DB0008093A0600E94C32160939C6070939D609B
:101DC00080939E6090939F60DD2311F0CC2311F0EF
:101DD000112391F08091A060811103C081E0809374
:101DE000A0600E94C32160939C6070939D6080936B
:101DF0009E6090939F6063C08091A060813021F5C8
:101E00002091306330913163A8EEB3E00E94F92550
:101E10009B01AC0160919C6070919D6080919E607F
:101E200090919F600E94CE21882309F448C01092AF
:101E3000A0600E94C32160939C6070939D6080931A
:101E40009E6090939F603BC0811139C02091C86211
:101E50003091C96280913263909133638217930706
:101E600024F120912E6330912F63A8EEB3E00E94FD
:101E7000F9259B01AC0160919C6070919D608091FF
:101E80009E6090919F600E94CE218823C1F081E0E6
:101E90008093A0600E94C32160939C6070939D60BA
:101EA00080939E6090939F600AC00E94C3216093BC
:101EB0009C6070939D6080939E6090939F608091E2
:101EC000A060DF91CF911F910895809168630E9477
:101ED000740B20913A6330913B632817390740F423
:101EE00080919B60811104C081E080939B6010C051
:101EF000809168630E94740B20913C6330913D6334
:101F00008217930728F480919B60811110929B6047
:101F100080919B60089580916A630E94740B209168
:101F20003E6330913F632817390740F480919A60EF
:101F3000811104C081E080939A6010C080916A632F
:101F40000E94740B20914063309141638217930784
:101F500028F480919A60811110929A6080919A6021
:101F60000895CF9380916C630E94740B209142631B
:101F7000309143632817390730F080916C630E94D9
:101F8000740BC0E001C0C1E080919960C817C9F02E
:101F90002091566330915763A8EEB3E00E94F92573
:101FA0009B01AC0160919560709196608091976003
:101FB000909198600E94CE21882369F0C093996027
:101FC0000AC00E94C32160939560709396608093CD
:101FD00097609093986080919960CF9108958091D7
:101FE0006E6390916F63079711F080E001C081E00C
:101FF00020917063309171632730310509F482605C
:1020000020917263309173632730310509F4886041
:1020100020917463309175632730310509F4806233
:1020200020917663309177632730310509F480641D
:1020300020917863309179632730310509F4806805
:10204000089580916E6390916F630B9711F080E01B
:1020500001C081E020917063309171632B303105B4
:1020600009F4826020917263309173632B303105E3
:1020700009F4886020917463309175632B303105C9
:1020800009F4806220917663309177632B303105BB
:1020900009F4806420917863309179632B303105A5
:1020A00009F48068089580916E6390916F6304973E
:1020B00011F080E001C081E0209170633091716384
:1020C0002430310509F4826020917263309173638A
:1020D0002430310509F48860209174633091756370
:1020E0002430310509F48062209176633091776362
:1020F0002430310509F4806420917863309179634C
:102100002430310509F48068089580916E639091C0
:102110006F63059711F080E001C081E0209170634A
:10212000309171632530310511F4826004C026308E
:10213000310509F484602091726330917363253016
:10214000310511F4886004C02630310509F480613E
:1021500020917463309175632530310509F48062F4
:1021600020917663309177632530310509F48064DE
:1021700020917863309179632530310509F48068C6
:10218000089580916E6390916F630C9711F080E0D9
:1021900001C081E020917063309171632C30310572
:1021A00009F4826020917263309173632C303105A1
:1021B00009F4886020917463309175632C30310587
:1021C00009F4806220917663309177632C30310579
:1021D00009F4806420917863309179632C30310563
:1021E00009F48068089580916E6390916F630D97F4
:1021F00011F080E001C081E0209170633091716343
:102200002D30310509F4826020917263309173633F
:102210002D30310509F48860209174633091756325
:102220002D30310509F48062209176633091776317
:102230002D30310509F48064209178633091796301
:102240002D30310509F48068089580916E63909176
:102250006F63039711F080E001C081E0209170630B
:10226000309171632330310509F4826020917263EB
:10227000309173632330310509F4886020917463D1
:10228000309175632330310509F4806220917663C3
:10229000309177632330310509F4806420917863AD
:1022A000309179632330310509F480680895809175
:1022B0006E6390916F63089711F080E001C081E038
:1022C00020917063309171632830310509F4826088
:1022D00020917263309173632830310509F488606E
:1022E00020917463309175632830310509F4806260
:1022F00020917663309177632830310509F480644A
:1023000020917863309179632830310509F4806831
:10231000089580916E6390916F63099711F080E04A
:1023200001C081E0209170633091716329303105E3
:1023300009F4826020917263309173632930310512
:1023400009F48860209174633091756329303105F8
:1023500009F48062209176633091776329303105EA
:1023600009F48064209178633091796329303105D4
:1023700009F48068089581E080930A0680910D0633
:1023800080FFFCCFE0E0F6E081E0858780899189DD
:1023900008951F920F920FB60F92112484E080933C
:1023A000660480918E0B80FFFCCF1092800B809191
:1023B0008E0B80FFFCCF60E082E99BE00E945F26ED
:1023C000E0E6F4E088E1868380E4868380E8858324
:1023D00088E08093A6048091010180FDFCCF60E03D
:1023E00080E091E00E945F2661E080E690E00E943C
:1023F0005F268091650082FFFCCF80E098E0019726
:10240000F1F780E880936704F8CF809344098091C6
:1024100043098823E4F7809144090895CF93DF931B
:10242000CDB7DEB76497CDBFDEBF5091BD625523F7
:1024300009F480C080E090E889879A878FEF9FE752
:102440008B879C871D821E828FEF9FEF8F839887DB
:10245000198A1A8A40E050C0FC012DE0429FE00D2D
:10246000F11D1124EE0FFF1FE350FF492081318140
:102470006F8178852617370710F42F8338876D8191
:102480007E816217730710F42D833E83019602C08C
:1024900080E090E086309105FCF280E01CC09DE079
:1024A000499FF0011124E80FF11D3896EE0FFF1F30
:1024B000E350FF49208131816B857C8526173707E2
:1024C00014F42B873C8769857A856217730714F4A7
:1024D00029873A878F5F823010F32AE1429FF0010B
:1024E0001124E350FF4985899A89892B8A8B868933
:1024F0009989892B898B4F5F451750F280917D64B4
:1025000090917E646AE070E00E94BD256F87788BB1
:102510000E94ED0369837A838B839C838091BD62E3
:102520008B8B84E1FE013196AEEBB2E601900D9209
:102530008A95E1F76496CDBFDEBFDF91CF91089514
:10254000CF93DF93CDB7DEB76497CDBFDEBF509199
:102550007B60552309F480C080E090E889879A87E2
:102560008FEF9FE78B879C871D821E828FEF9FEFE7
:102570008F839887198A1A8A40E050C0FC012DE0A9
:10258000429FE00DF11D1124EE0FFF1FEE52FD4999
:10259000208131816F8178852617370710F42F83CA
:1025A00038876D817E816217730710F42D833E8317
:1025B000019602C080E090E086309105FCF280E058
:1025C0001CC09DE0499FF0011124E80FF11D3896D1
:1025D000EE0FFF1FEE52FD49208131816B857C8516
:1025E0002617370714F42B873C8769857A8562178D
:1025F000730714F429873A878F5F823010F32AE13A
:10260000429FF0011124EE52FD4985899A89892B58
:102610008A8B86899989892B898B4F5F451750F260
:102620008091796090917A608F87988B80917560A6
:1026300090917660A0917760B091786089839A8359
:10264000AB83BC835B8B84E1FE013196AEEBB2E6DB
:1026500001900D928A95E1F76496CDBFDEBFDF91C0
:10266000CF9108958F929F92BF92CF92DF92EF9277
:10267000FF920F931F93CF93DF938091D2608111CC
:102680000FC08091BE629091BF62A091C062B09174
:10269000C1620397A105B10518F081E08093D26073
:1026A0000E94B10F182F0E94650FD82E0E948B0F29
:1026B000C82F8091D0628823E1F08091D260882376
:1026C000E9F0812F0E94E50D082F81E020917C60C8
:1026D00030917D60232B09F480E04D2D602F0E9406
:1026E000A70ED82F0E94B90DB82E0E94500EC82EEA
:1026F00009C0D0E0C12C00E0B12C04C0D0E0C12C56
:1027000000E0B12C8091D16081110CC0DD2051F02E
:10271000CC2341F081E08093D16010927C601092D4
:102720007D6006C0882321F0C11102C01092D160E3
:10273000002349F080917C6090917D608D7F809333
:102740007C6090937D608091D062882349F0809175
:10275000D260882341F0802F0E94BA0C7C0105C012
:10276000E12CF12C02C0E12CF12CE114F10439F13F
:1027700080917C6090917D609701282B392B821786
:102780009307E9F0209148633091496340E050E0BD
:102790006091CD607091CE608091CF609091D0605B
:1027A0000E94CE218823A9F080917C6090917D6069
:1027B0008E299F2980937C6090937D600AC00E943F
:1027C000C3216093CD607093CE608093CF6090936F
:1027D000D0608091D062882329F09091D2609923B3
:1027E00019F003C0D0E001C0D0E020917C603091AE
:1027F0007D60232B31F4882321F08091D2608111F8
:1028000006C01092CC601092CB6000E052C0111153
:102810000CC0DD2051F0CC2341F08091CB608111C0
:1028200004C081E08093CB6000E0111102C0D110A0
:1028300005C08091CB6081111092CB608091CB60FC
:10284000811104C0011102C0D230C1F48091CC606A
:10285000811109C0EF2821F01092CB6000E003C085
:1028600081E08093CC600E94C3216093C760709325
:10287000C8608093C9609093CA601BC08091CC608F
:102880008823B9F02091506330915163A8EEB3E0F2
:102890000E94F9259B01AC016091C7607091C860EE
:1028A0008091C9609091CA600E94CE2181111092DE
:1028B000CC60A8958091CC60882309F4DAC0D1114E
:1028C00001C0D1E08091C6609FEF980F9E3F68F0F5
:1028D0008091010180FDFAC065E080E091E00E94F6
:1028E0005F2681E08093C660F1C08130C1F48091A1
:1028F000010180FDEBC084E08093650483EA0E94BF
:10290000650B0E94C3216093C2607093C360809383
:10291000C4609093C56082E08093C660D7C0823067
:1029200021F5209116633091176340E050E06091EB
:10293000C2607091C3608091C4609091C5600E9434
:10294000CE21882309F4C2C088E0809365040E94E8
:10295000C3216093C2607093C3608093C4609093FE
:10296000C56083E08093C660B1C0833021F52091BB
:1029700018633091196340E050E06091C26070913B
:10298000C3608091C4609091C5600E94CE2188236D
:1029900009F49CC080E1809365040E94C321609388
:1029A000C2607093C3608093C4609093C56084E0FC
:1029B0008093C6608BC0843009F088C020911A6370
:1029C00030911B6340E050E06091C2607091C36041
:1029D0008091C4609091C5600E94CE21882309F443
:1029E00075C088E08093660460E482E99BE00E9401
:1029F0005F260F2EF0E88F2EFBE09F2EF02DF401C6
:102A0000118280E4828360914C6370914D636F5FAB
:102A10007F4F80E29EE40E94A9257B01CB010197B4
:102A200086A797A7A0914E63B0914F639B010E9428
:102A3000F92524E630E040E050E00E94D125E21A7A
:102A4000F30AF401E4A6F5A680918E0B80FFFCCF7B
:102A500081E08093800B0E94C3216093C2607093D9
:102A6000C3608093C4609093C56080E88093C66023
:102A70002DC084E08093660480918E0B80FFFCCF94
:102A80001092800B80918E0B80FFFCCF60E082E97A
:102A90009BE00E945F2688E1809366048091C66077
:102AA0008F3F61F48091010180FD10C060E080E003
:102AB00091E00E945F261092C66008C0882331F022
:102AC00080E00E94650B8FEF8093C660112309F4AC
:102AD00066C18091C660811162C18091D26081110E
:102AE00021C05DC120917360309174602D3A3E4DDC
:102AF00051F49AE1899FF0011124EE52FD49948925
:102B000091FD0BC00DC09AE1899FF0011124E350A3
:102B1000FF49948991FD03C003C041E001C041E039
:102B20008F5F02C080E040E09091D0628917D0F2C0
:102B3000442329F08091C160882309F426C12091A3
:102B4000646330916563A8EEB3E00E94F9259B01B0
:102B5000AC016091BD607091BE608091BF6090914A
:102B6000C0600E94CE21882309F419C18091C16000
:102B7000811105C081E08093C1601092BC6080919A
:102B8000D0629091BC60981708F4CCC0F1C020913D
:102B90007360309174602D3A3E4D09F062C0492F48
:102BA00050E02AE1249FF001259FF00D1124EE5200
:102BB000FD49218D682F70E030E0082E02C0359568
:102BC00027950A94E2F720FF26C02DE0249FF0010C
:102BD000259FF00D1124E60FF71FEE0FFF1FEE5299
:102BE000FD4940815181E091C462F091C56220911C
:102BF0006063309161632E0F3F1F2417350708F083
:102C00008FC021E030E0082E02C0220F331F0A944B
:102C1000E2F7C22B85C02DE0249FF001259FF00D27
:102C20001124E60FF71FEE0FFF1FEE52FD49408102
:102C30005181E091C462F091C56220915E63309150
:102C40005F632E0F3F1F4217530708F469C021E04E
:102C500030E0082E02C0220F331F0A94E2F7C22B85
:102C60005FC0492F50E02AE1249FF001259FF00D1D
:102C70001124E350FF49218D682F70E030E0082EC9
:102C800002C0359527950A94E2F720FF25C02DE074
:102C9000249FF001259FF00D1124E60FF71FEE0F82
:102CA000FF1FE350FF4940815181E091C462F091E0
:102CB000C56220916063309161632E0F3F1F24171E
:102CC000350770F521E030E0082E02C0220F331FD7
:102CD0000A94E2F7C22B24C02DE0249FF001259F27
:102CE000F00D1124E60FF71FEE0FFF1FE350FF4911
:102CF00040815181E091C462F091C56220915E6390
:102D000030915F632E0F3F1F4217530748F021E0B9
:102D100030E0082E02C0220F331F0A94E2F7C22BC4
:102D20008F5F02C080E0C0E0863008F430CF209191
:102D30007360309174602D3A3E4D91F00E941304FF
:102D4000811118C0409162638091BC606C2F8F5FCD
:102D50000E9407048091BC608F5F8093BC600AC0B2
:102D60004AE1949FF0011124EE52FD49C18F02C047
:102D70001092C1600E94C3216093BD607093BE60D9
:102D80008093BF609093C0600AC00E94C32160938B
:102D9000BD607093BE608093BF609093C060DD2380
:102DA00021F00E948510C82F01C0C0E08091C6604C
:102DB000803831F50E942110C82B002319F00E94A1
:102DC000EF0FC82BBB2039F08091CB60882319F01E
:102DD0000E94C110C82BCC2039F08091CB60882391
:102DE00019F00E94F310C82B8091CB60882319F052
:102DF0000E948911C82BD23019F40E945310C82B9D
:102E0000112319F00E945711C82B80917C6090917A
:102E10007D60892B21F48091D062811102C0D11094
:102E200004C08091D260811103C00E942511C82B7B
:102E30008091D360C81751F0C093D36040915C6318
:102E400060915A63242F8C2F0E94560B81E0DF91F2
:102E5000CF911F910F91FF90EF90DF90CF90BF9097
:102E60009F908F90089580E094E024E8FC012483F3
:102E7000C0E4D4E021E02C83A0E6B4E014961C92D8
:102E8000149740EA54E0FA01148234EDFC013083D7
:102E900028833CED3C933AE0FA013083FC01108A30
:102EA000118A128A138A148A158A168A178A188A2E
:102EB000198A38E03A8B3B8B1C8A1D8A1E8A1F8A2E
:102EC00050961C92509751961C92519752961C9274
:102ED000529753961C92539754961C92549755961A
:102EE0001C92559756961C92569757961C92579738
:102EF000FA01108A118A128A138A148A158A168A8C
:102F0000178AFC0122872A871A962C93FA012287B6
:102F1000E0EEF5E0158284E0818782E0868382839B
:102F200060E288E690E00E945F268091650081FF64
:102F3000FCCF61E883E690E00E945F2661E082E6D4
:102F400090E00E945F2669E280E890E00E945F26A0
:102F500063E080E690E00E945F268091650084FF38
:102F6000FCCF0E948D08E0E0FBE080E29EE48487D5
:102F7000958781E085838083E0E1FBE011822FEF7C
:102F80003FEF248735871286138685838091A804B6
:102F900085FF0BC0E0EAF4E0848182608483E0E690
:102FA000F4E084818F7784830AC0E0EAF4E08481CE
:102FB0008D7F8483E0E6F4E08481806884830E94CE
:102FC000FC21FFE72AE186E0F15020408040E1F754
:102FD00000C0000080E4809365049FEFE3E2F4EF1B
:102FE0009150E040F040E1F700C0000095E0909380
:102FF000B000C0EAD4E08A89887F8A8B8A8984609D
:103000008A8B8C89887F8C8B8C8984608C8B8A8955
:10301000877F8A8B8C89877F8C8B00E016E081E02C
:10302000F801828386E0818390836894FF24F3F81B
:10303000FD8282E180878FE493EC0197F1F700C075
:1030400000000E94BB1184E1F80180878FE493ECBB
:103050000197F1F700C000000E94BB11FE820E94A0
:10306000E20A83E38093400980E090E001C001968A
:103070008F3F9105E1F3D8F3C0E0D4E010E81E8360
:1030800083E00E9405128EE00E94051280E00E94FB
:1030900005121D831E8383E00E9405128FE00E94AB
:1030A000051280E00E9405121D831E8382E00E94AB
:1030B00005128FE00E94051283E20E9405121D8313
:1030C000E0E2F8E083E890E08087918780EC8683F7
:1030D000858180688583E0E0F8E08581806885836C
:1030E0007894A0E0BBE08C9115968C9186818068E5
:1030F0008683858180688583E0EAF4E084818D7F22
:10310000848380915C6390915D634FEF489F900151
:10311000499F300D11243695279536952795ABE7B5
:10312000B4E10E94F9259695879560915A63282FFE
:10313000482F80E00E94560B80E00E94650B0E94A1
:10314000F6036FE28FEE0E94FD030E9475040E9459
:10315000850B0E94DD2080917360909174608D3AA0
:103160009E4D19F40E94A01206C010927360109236
:1031700074600E940E120E9432130E941C098091FA
:10318000326090913360A0913460B09135600196C7
:10319000A11DB11D8093326090933360A093346081
:1031A000B0933560D2CF813610F0875508958134C1
:1031B00010F087530895805308958A3010F4805D8D
:1031C0000895895C08951F920F920FB60F921124F3
:1031D0001F932F933F934F935F936F937F938F939F
:1031E0009F93AF93BF93CF93DF93EF93FF9380E8C9
:1031F000809365048091EC64873009F44AC028F418
:10320000853069F08630D1F088C08A3009F46DC00D
:103210008B3009F475C0893009F07FC057C0E0E0F9
:10322000F8E08AE382838481806484831092D5608D
:103230001092D46086E08093EC6476C0E091D56013
:103240008091D660E81313C08091D46081958093FB
:10325000D46082958F700E94DD18E0E0F8E08283F0
:1032600084818064848389E08093EC645DC0F0E0B5
:10327000E351FB49808182958F700E94DD18E0E068
:10328000F8E0828384818064848387E08093EC64A7
:103290004BC01091D560C12FD0E0C351DB4988816C
:1032A0008F700E94DD18E0E0F8E082838481806402
:1032B00084831F5F1093D56088819091D460890FBB
:1032C0008093D46086E08093EC642EC08091D460BB
:1032D0008F700E94DD18E0E0F8E0828384818064D2
:1032E00084838AE08093EC641FC0E0E0F8E08DE026
:1032F00082838481806484838BE08093EC6414C037
:10330000E0E0F8E08AE082838481806484838581C0
:103310008F7D85831092EC6407C0E0E0F8E0858142
:103320008F7D85831092EC6480E880936604FF9122
:10333000EF91DF91CF91BF91AF919F918F917F914D
:103340006F915F914F913F912F911F910F900FBE01
:103350000F901F9018951F920F920FB60F92112485
:103360000F931F932F933F934F935F936F937F938D
:103370008F939F93AF93BF93CF93EF93FF9380E887
:1033800080936504E0E0F8E08181C08182FF04C0A1
:1033900080E88093660496C086FF04C080E880932E
:1033A000660490C08091050885FF04C080E8809382
:1033B000660488C08091EC64843020F080E88093BB
:1033C000660480C0CA3359F41092D6601092EC653E
:1033D00081E08093EC6480E88093660473C0CD3014
:1033E00079F48091EC64813021F48091D66083304F
:1033F00018F41092EC6463C083E08093EC645FC0C7
:10340000CA30B9F48091EC64833019F01092EC6406
:1034100056C08091EC65882319F01092EC644FC07F
:103420008091D66081508093D66084E08093EC6474
:1034300046C08C2F90E00E941326892B09F43FC0D0
:103440008091EC648130A9F40091D6600F3F19F4AB
:103450001092EC6434C010E08C2F0E94D318F80155
:10346000E351FB498295807F808382E08093EC6406
:1034700026C08091EC64823011F58C2F0E94D31805
:103480002091D660E22FF0E0E351FB499081892B37
:103490008083211109C03091ED649091D760391774
:1034A00019F01092EC640BC02F5F2093D6609091BE
:1034B000EC65890F8093EC6581E08093EC6480E893
:1034C00080936604FF91EF91CF91BF91AF919F914F
:1034D0008F917F916F915F914F913F912F911F91AC
:1034E0000F910F900FBE0F901F901895843091058B
:1034F00059F08630910571F0039781F4662381F0CD
:103500000E94F60380E00895662361F00E94150989
:1035100080E008956093726080E0089582E00895ED
:1035200080E0089580E00895CF93DF93EB0184302D
:10353000910551F08630910581F0039799F40E942E
:10354000FA03888380E00FC00E94190921E0892BCB
:1035500009F420E0288380E006C0809172608883AF
:1035600080E001C082E0DF91CF9108959F92AF92F9
:10357000BF92CF92DF92EF92FF920F931F93CF9360
:10358000DF931F92CDB7DEB78C016B01693E83E0FC
:10359000780708F043C0CB010796969587959695D6
:1035A000879596958795A82E8093EF648D5F80937D
:1035B000D6600F2EF3E09F2EF02D2CC0E92CF12CBD
:1035C000F701E351FB491082B12C1FC0C114D10493
:1035D000F9F0BE016F5F7F4FC8010E94941A8111FC
:1035E0001EC0898190E00B2C02C0880F991F0A949D
:1035F000E2F7F701E351FB499081892B80830F5F4C
:103600001F4F81E0C81AD108B39487E08B15F0F6FC
:10361000AA949394A110D2CF80E001C082E00F90D1
:10362000DF91CF911F910F91FF90EF90DF90CF909E
:10363000BF90AF909F9008956E37710508F085C0D8
:10364000262F220F2093EF642D5F2093D66023E076
:1036500076C08D339105B0F4E22FF0E0DC01AA0FC3
:10366000BB1FAA5FBC4911963C911197E351FB49DE
:103670003083E1E0E20FF0E02E5F3C91E351FB4943
:1036800030835AC0883E33E0930789F4E22FF0E09C
:103690003091736040917460E351FB494083E1E0F5
:1036A000E20FF0E02E5FE351FB49308345C0893ED5
:1036B00033E0930779F4E22FF0E0E351FB49108205
:1036C000E1E0E20FF0E02E5FE351FB4930917B60D7
:1036D000308332C08A3E33E0930789F4E22FF0E072
:1036E0003091796040917A60E351FB494083E1E099
:1036F000E20FF0E02E5FE351FB4930831DC0AC01C7
:103700004B5E53404A31510510F5E22FF0E0DC01E9
:10371000AB5EB348AA0FBB1FAE52BD4911963C9198
:103720001197E351FB493083E1E0E20FF0E02E5FB7
:103730003C91E351FB493083615071090196611559
:10374000710509F086CF80E0089582E0089582E057
:103750000895EF92FF920F931F93CF93DF93AC01E5
:10376000FB016E37710508F0DCC08091F36490E0D6
:103770009B01220F331F2817390709F0D4C086E0B8
:103780008093D660D0E0C7E0B2C04D335105C0F49D
:10379000AC2FB0E0A351BB498C9190E0982F8827C3
:1037A000A1E0AC0FB0E0CE5FA351BB492C91822BBE
:1037B000DA01AA0FBB1FAA5FBC498D939C9394C0EA
:1037C000483E83E05807A9F4AC2FB0E0A351BB49B1
:1037D0008C9190E0982F8827A1E0AC0FB0E0CE5FED
:1037E000A351BB492C91822B80937360909374609A
:1037F0007BC0493E83E05807D1F4AC2FB0E0A35121
:10380000BB498C9190E0982F8827A1E0AC0FB0E0E5
:10381000CE5FA351BB492C91822B8330910520F0C0
:1038200082E080937B6060C080937B605DC04A3E95
:1038300083E05807A9F4AC2FB0E0A351BB498C91A9
:1038400090E0982F8827A1E0AC0FB0E0CE5FA351A5
:10385000BB492C91822B8093796090937A6044C00D
:103860008A010B5E13400A31110508F05EC0AC2FCF
:10387000B0E0A351BB498C9190E0982F8827A1E03C
:10388000AC0FB0E0CE5FA351BB492C917C01E22A82
:103890009801A5ECBEE40E94F9259695879596952A
:1038A00087956DE0689F9001699F300D1124C801D4
:1038B000821B930B0A9770F0809172608823A1F0AD
:1038C000DA01AB5EB348AA0FBB1FAE52BD49ED9201
:1038D000FC920AC0DA01AB5EB348AA0FBB1FAE521E
:1038E000BD49ED92FC92D1E031974F5F5F4F309729
:1038F00009F04BCFDD23D9F080917560909176600F
:10390000A0917760B09178600196A11DB11D809360
:10391000756090937660A0937760B093786080E054
:1039200007C082E005C082E003C082E001C080E001
:10393000DF91CF911F910F91FF90EF900895AF927B
:10394000BF92DF92EF92FF920F931F93CF93DF937B
:10395000EC017B016E37710508F00CC4862F880FCF
:103960008093EF648D5F8093D66000EF14E6FCC314
:10397000C336D10561F4D8011C925801B2E0AB0EF8
:10398000B11C0E946104F80181838501E9C3CE0165
:10399000845691098034964008F067C0FE01F69580
:1039A000E795F695E7959F01ABE7B4E10E94F9250D
:1039B000AC0156954795DD24DA94D40E24E6249F75
:1039C000C001259F900D1124BE01681B790B862F25
:1039D00061110AC08D2D0E943A04D8019C93119662
:1039E0008C930E5F1F4FBCC36150663048F48D2D21
:1039F0000E944404F801908381830E5F1F4FB0C37F
:103A000069EF680F623050F48D2D0E945204D80186
:103A10009C9311968C930E5F1F4FA2C3893089F43B
:103A20008D2D0E941604F80180835801F2E0AF0E3C
:103A3000B11C8D2D0E941F04D80111968C93850115
:103A40008FC38A3009F098C38D2D0E942804F80195
:103A500080835801F2E0AF0EB11C8D2D0E9431041D
:103A6000D80111968C9385017BC3C031B7E2DB0787
:103A700041F4F80110828091786481830E5F1F4FBA
:103A80006FC3C131F7E2DF0759F4E3E7F4E687815A
:103A9000D8018C93868111968C930E5F1F4F60C363
:103AA000C231B7E2DB0759F4E3E7F4E68185D801D8
:103AB0008C93808511968C930E5F1F4F51C3C33139
:103AC000B7E2DB0759F4E3E7F4E68385D8018C938A
:103AD000828511968C930E5F1F4F42C3C431B7E2AB
:103AE000DB0759F4E3E7F4E68585D8018C938485F8
:103AF00011968C930E5F1F4F33C3C531B7E2DB07BE
:103B000059F4E3E7F4E68785D8018C93868511960E
:103B10008C930E5F1F4F24C3C631B7E2DB0759F405
:103B2000E3E7F4E68189D8018C93808911968C9320
:103B30000E5F1F4F15C3C731B7E2DB0759F4E3E748
:103B4000F4E68389D8018C93828911968C930E5F59
:103B50001F4F06C3C831B7E2DB0759F4E3E7F4E6C9
:103B60008689D8018C93858911968C930E5F1F4F9F
:103B7000F7C2C931B7E2DB0759F4E3E7F4E6808D19
:103B8000D8018C93878911968C930E5F1F4FE8C2E2
:103B9000CA31B7E2DB0759F4E3E7F4E6828DD801D6
:103BA0008C93818D11968C930E5F1F4FD9C2CB31B0
:103BB000B7E2DB0759F4E3E7F4E6848DD8018C9390
:103BC000838D11968C930E5F1F4FCAC2CC31B7E222
:103BD000DB0759F4E3E7F4E6868DD8018C93858DF5
:103BE00011968C930E5F1F4FBBC2CD31B7E2DB073E
:103BF00059F4E3E7F4E680A1D8018C93878D119600
:103C00008C930E5F1F4FACC2CE31B7E2DB0759F485
:103C1000E3E7F4E682A1D8018C9381A111968C93FD
:103C20000E5F1F4F9DC2CF31B7E2DB0759F4E3E7C8
:103C3000F4E684A1D8018C9383A111968C930E5F36
:103C40001F4F8EC2C032B7E2DB0741F4F801108289
:103C50008091A86481830E5F1F4F82C2C132F7E258
:103C6000DF0749F4D8011C928091AC6411968C93C3
:103C70000E5F1F4F75C2C232B7E2DB0751F480916D
:103C80007D60F801808380917C6081830E5F1F4F8F
:103C900067C2C83FFAE2DF07F9F4F89480916E60DA
:103CA00090916F60A0917060B09171607894F8010C
:103CB000B08398012E5F3F4FA183F2E0EF16F1042D
:103CC00008F42DC2F80192838383F1E0EF1AF10822
:103CD00021960C5F1F4F44C2C2302BE2D207F9F489
:103CE000F89480915E6090915F60A0916060B09167
:103CF00061607894F801B08398012E5F3F4FA183F3
:103D0000F2E0EF16F10408F40CC2F8019283838309
:103D1000F1E0EF1AF10821960C5F1F4F21C2CA3F54
:103D20002AE2D207F9F4F89480916260909163607E
:103D3000A0916460B09165607894F801B0839801B7
:103D40002E5F3F4FA183F2E0EF16F10408F4EBC1C0
:103D5000F80192838383F1E0EF1AF10821960C5F5A
:103D60001F4FFEC1CC3F2AE2D207F9F4F8948091AC
:103D7000666090916760A0916860B0916960789486
:103D8000F801B08398012E5F3F4FA183F2E0EF1658
:103D9000F10408F4CAC1F80192838383F1E0EF1AB9
:103DA000F10821960C5F1F4FDBC1CE3F2AE2D207FC
:103DB000F9F4F8948091526090915360A09154600E
:103DC000B09155607894F801B08398012E5F3F4F11
:103DD000A183F2E0EF16F10408F4A9C1F80192837F
:103DE0008383F1E0EF1AF10821960C5F1F4FB8C1F1
:103DF000C6302BE2D207F9F4F89480916A60909172
:103E00006B60A0916C60B0916D607894F801B083A4
:103E100098012E5F3F4FA183F2E0EF16F10408F402
:103E200088C1F80192838383F1E0EF1AF1082196AB
:103E30000C5F1F4F95C1C1152BE2D207F9F4F8941E
:103E40008091566090915760A0915860B0915960F0
:103E50007894F801B08398012E5F3F4FA183F2E080
:103E6000EF16F10408F467C1F80192838383F1E04F
:103E7000EF1AF10821960C5F1F4F72C1C4302BE27C
:103E8000D207F9F4F89480915A6090915B60A09108
:103E90005C60B0915D607894F801B08398012E5F0A
:103EA0003F4FA183F2E0EF16F10408F446C1F80198
:103EB00092838383F1E0EF1AF10821960C5F1F4F84
:103EC0004FC1C8302BE2D207F9F4F89480913660E4
:103ED00090913760A0913860B09139607894F80182
:103EE000B08398012E5F3F4FA183F2E0EF16F104FB
:103EF00008F425C1F80192838383F1E0EF1AF108F9
:103F000021960C5F1F4F2CC1CA302BE2D207F9F467
:103F1000F89480913A6090913B60A0913C60B091A0
:103F20003D607894F801B08398012E5F3F4FA183E4
:103F3000F2E0EF16F10408F404C1F80192838383E0
:103F4000F1E0EF1AF10821960C5F1F4F09C1CC3048
:103F50002BE2D207F9F4F89480913E6090913F6093
:103F6000A0914060B09141607894F801B0839801CD
:103F70002E5F3F4FA183F2E0EF16F10408F4E3C097
:103F8000F80192838383F1E0EF1AF10821960C5F28
:103F90001F4FE6C0CE302BE2D207F9F4F89480919F
:103FA000426090914360A0914460B09145607894E4
:103FB000F801B08398012E5F3F4FA183F2E0EF1626
:103FC000F10408F4C2C0F80192838383F1E0EF1A90
:103FD000F10821960C5F1F4FC3C0C0312BE2D207FE
:103FE000F9F4F8948091466090914760A091486000
:103FF000B09149607894F801B08398012E5F3F4FEB
:10400000A183F2E0EF16F10408F4A1C0F801928355
:104010008383F1E0EF1AF10821960C5F1F4FA0C0D7
:10402000C2312BE2D207E9F480914A6090914B6053
:10403000A0914C60B0914D60F801B08398012E5F63
:104040003F4FA183F2E0EF16F10408F482C0F801BB
:1040500092838383F1E0EF1AF10821960C5F1F4FE2
:104060007FC0C4312BE2D207E9F480914E60909179
:104070004F60A0915060B0915160F801B0839801F9
:104080002E5F3F4FA183F2E0EF16F10408F463C006
:10409000F80192838383F1E0EF1AF10821960C5F17
:1040A0001F4F5EC0C6312BE2D207E9F48091326027
:1040B00090913360A0913460B0913560F801B08385
:1040C00098012E5F3F4FA183F2E0EF16F10408F450
:1040D00044C0F80192838383F1E0EF1AF10821963E
:1040E0000C5F1F4F3DC0C8312BE2D20709F046C01C
:1040F0000E94C321D8019C9398012E5F3F4F1196D7
:104100008C93B2E0EB16F10450F1F80172836383F3
:10411000F1E0EF1AF10821960C5F1F4F21C08901D1
:104120001FC089011DC089011BC0890119C08901F7
:1041300017C0890115C0890113C0890111C0890107
:104140000FC089010DC089010BC0890109C0890117
:1041500007C0890105C0890103C0890101C0890127
:1041600021E0E21AF1082196E114F10409F000CCF3
:1041700080E005C082E003C082E001C082E0DF9100
:10418000CF911F910F91FF90EF90DF90BF90AF9074
:104190000895882349F0EDEEF4E6918190689183CB
:1041A000828383E08093D66085E08093EC64E0E0D6
:1041B000F8E085818062858308958091EC64843085
:1041C00009F0A4C08091EE64843009F44EC030F44C
:1041D0008130A9F1833009F45EC087C0853021F0B9
:1041E000803109F46DC081C08091D660863009F0BD
:1041F0007EC08091F1648F3F81F49091F2649111BF
:104200000CC0EDEEF4E6828190E0982F88272381A0
:1042100061E0822B0E94761A77C081116AC080917A
:10422000F264811168C0EDEEF4E6828190E0982F8F
:104230008827238160E0822B0E94761A65C08091D6
:10424000D660863009F059C0EDEEF4E6648170E086
:10425000762F66278581682B828190E0982F8827AA
:104260002381822B0E94B61A4FC08091D66086307F
:1042700009F045C0EDEEF4E6648170E0762F662724
:104280008581682B828190E0982F88272381822B5B
:104290000E949F1C39C08091D660863091F5EDEE6A
:1042A000F4E6648170E0762F66278581682B828131
:1042B00090E0982F88272381822B0E941C1B24C00A
:1042C0008091D6608930F8F0EDEEF4E6648170E01C
:1042D000762F66278581682B828190E0982F88272A
:1042E0002381822B0E94A91B0FC081E00DC083E0B7
:1042F0000BC083E009C083E007C083E005C083E012
:1043000003C083E001C083E00E94C92008951F928A
:104310000F920FB60F9211242F933F934F935F93F9
:104320006F937F938F939F93AF93BF93EF93FF937D
:1043300081E08093060B0E944A030E94460B809105
:10434000D8609091D960A091DA60B091DB6001965D
:10435000A11DB11D8093D8609093D960A093DA60BD
:10436000B093DB60FF91EF91BF91AF919F918F91DF
:104370007F916F915F914F913F912F910F900FBE61
:104380000F901F901895F8946091D8607091D96043
:104390008091DA609091DB60789408958F929F927B
:1043A000AF92BF92CF92DF92EF92FF924B015C01EE
:1043B00069017A010E94C321DC01CB0188199909A6
:1043C000AA09BB098C159D05AE05BF0510F081E05B
:1043D00001C080E0FF90EF90DF90CF90BF90AF9052
:1043E0009F908F9008959091040895FFFCCF809343
:1043F000020880E090E00895E0E0F8E086EB92E0CB
:104400008087918782E2878380E4868380E090E6DC
:104410008093EF659093F06508955058BB27AA27C5
:104420000E9425220C9440230E94322338F00E94DF
:10443000392320F039F49F3F19F426F40C942F23EC
:104440000EF4E095E7FB0C942923E92F0E945123F9
:1044500058F3BA17620773078407950720F079F4B9
:10446000A6F50C9473230EF4E0950B2EBA2FA02D15
:104470000B01B90190010C01CA01A0011124FF2711
:10448000591B99F0593F50F4503E68F11A16F0400C
:10449000A22F232F342F4427585FF3CF469537950B
:1044A0002795A795F0405395C9F77EF41F16BA0BD0
:1044B000620B730B840BBAF09150A1F0FF0FBB1F7E
:1044C000661F771F881FC2F70EC0BA0F621F731FC7
:1044D000841F48F4879577956795B795F7959E3F24
:1044E00008F0B0CF9395880F08F09927EE0F9795B5
:1044F000879508950E948E220C9440230E943923B0
:1045000058F00E94322340F029F45F3F29F00C94C8
:10451000292351110C9474230C942F230E945123AE
:1045200068F39923B1F3552391F3951B550BBB27E2
:10453000AA2762177307840738F09F5F5F4F220F27
:10454000331F441FAA1FA9F335D00E2E3AF0E0E81E
:1045500032D091505040E695001CCAF72BD0FE2F68
:1045600029D0660F771F881FBB1F261737074807FC
:10457000AB07B0E809F0BB0B802DBF01FF279358B4
:104580005F4F3AF09E3F510578F00C9429230C942C
:1045900074235F3FE4F3983ED4F38695779567954F
:1045A000B795F7959F5FC9F7880F911D96958795E9
:1045B00097F90895E1E0660F771F881FBB1F621708
:1045C00073078407BA0720F0621B730B840BBA0BC6
:1045D000EE1F88F7E0950895E89409C097FB3EF434
:1045E00090958095709561957F4F8F4F9F4F992340
:1045F000A9F0F92F96E9BB279395F69587957795BE
:104600006795B795F111F8CFFAF4BB0F11F460FF7D
:104610001BC06F5F7F4F8F4F9F4F16C0882311F0D5
:1046200096E911C0772321F09EE8872F762F05C0E9
:10463000662371F096E8862F70E060E02AF09A9584
:10464000660F771F881FDAF7880F9695879597F979
:10465000089597F99F6780E870E060E008959FEF04
:1046600080EC089500240A94161617061806090609
:10467000089500240A9412161306140605060895D8
:10468000092E0394000C11F4882352F0BB0F40F460
:10469000BF2B11F460FF04C06F5F7F4F8F4F9F4FA0
:1046A000089557FD9058440F551F59F05F3F71F022
:1046B0004795880F97FB991F61F09F3F79F0879589
:1046C0000895121613061406551FF2CF4695F1DF12
:1046D00008C0161617061806991FF1CF86957105A2
:1046E000610508940895E894BB2766277727CB01D6
:1046F00097F9089516F00C94FE240C942F236894D7
:104700000C9429230E945923A8F39923C1F3AEF3F3
:10471000DF93CF931F930F93FF92C92FDD27882339
:104720002AF02197660F771F881FDAF720E030E024
:1047300040E85FEB9FE3883920F0803E38F0219617
:104740008F770E940E22E2ECF0E004C00E940E225D
:10475000EFEEF0E00E940C258B01BE01EC01FB2E78
:104760006F5771097595771F880B990B0E94EE2280
:1047700028E132E741E35FE30E941A24AF2D98015C
:10478000AE01FF900F911F91CF91DF910E942522E2
:104790000C9440230E945923A8F19E57B0F19851E0
:1047A00060F039F1983070F5092E9927660F771F60
:1047B000881F991F0A94D1F71CC0BB27993F4CF45E
:1047C000B111B1E0B62B672F782F8827985FB1F72A
:1047D00008C0869577956795B79508F4B16093956D
:1047E000C1F7BB0F30F411F460FF03C06F5F7F4F60
:1047F0008F4F3EF490958095709561957F4F8F4FC8
:104800009F4F089568940C9474230C9473230E9412
:104810001A240C9440230E94322338F00E9439233A
:1048200020F0952311F00C9429230C942F231124AC
:104830000C9474230E94512370F3959FC1F3950F3C
:1048400050E0551F629FF001729FBB27F00DB11D14
:10485000639FAA27F00DB11DAA1F649F6627B00DA4
:10486000A11D661F829F2227B00DA11D621F739F8D
:10487000B00DA11D621F839FA00D611D221F749F9B
:104880003327A00D611D231F849F600D211D822FE2
:10489000762F6A2F11249F5750409AF0F1F0882309
:1048A0004AF0EE0FFF1FBB1F661F771F881F915036
:1048B0005040A9F79E3F510580F00C9429230C9499
:1048C00074235F3FE4F3983ED4F38695779567951C
:1048D000B795F795E7959F5FC1F7FE2B880F911D60
:1048E0009695879597F90895FA01EE0FFF1F309678
:1048F00021053105A1F16115710561F48038BFE32F
:104900009B0749F168949038810561F08038BFEFCA
:104910009B0741F099234AF5FF3FE1053105210549
:1049200019F1E8940894E795D901AA2329F4AB2F4B
:10493000BE2FF85FD0F310C0FF5F70F4A695E0F7CC
:10494000F73950F019F0FF3A38F49F779F930DD064
:104950000F9007FC9058089546F00C942F2360E0C8
:1049600070E080E89FE308954FE79F775F934F9350
:104970003F932F930E9482232F913F914F915F91FC
:104980000E9407240C94CC2429F416F00C942923BB
:104990000C9473230C942F230E945923A8F3963868
:1049A000A0F707F80F92E8942BE33AEA48EB5FE7A9
:1049B0000E941D240F920F920F924DB75EB70F9277
:1049C0000E947525ECE1F1E00E940C254F915F916A
:1049D000EF91FF91E595EE1FFF1F49F0FE57E0684C
:1049E0004427EE0F441FFA95E1F74195550B0E94BD
:1049F0003F250F9007FE0C94332508959F3F31F01B
:104A0000915020F4879577956795B795880F911DFC
:104A10009695879597F90895DF93CF931F930F93FA
:104A2000FF92EF92DF927B018C01689406C0DA2E30
:104A3000EF010E941A24FE01E894A5912591359179
:104A400045915591A6F3EF010E942522FE019701A1
:104A5000A801DA9469F7DF90EF90FF900F911F9112
:104A6000CF91DF9108959B01AC0160E070E080E898
:104A70009FE30C947A220C9429230C94FE240E9428
:104A80005923D8F39923C9F3940F511DA3F39150DF
:104A9000504094F059F0882332F0660F771F881F3A
:104AA00091505040C1F79E3F51052CF7880F911D42
:104AB0009695879597F908955F3FACF0983E9CF0E6
:104AC000BB27869577956795B79508F4B160939560
:104AD000C1F7BB0F58F711F460FFE8CF6F5F7F4F4E
:104AE0008F4F9F4FE3CF0C947423FA01DC01AA0F80
:104AF000BB1F9B01AC01BF5728F422273327442753
:104B0000507820C0B75190F4AB2F002446953795CC
:104B10002795011CA395D2F3002071F0220F331FBB
:104B2000441FB395DAF30ED00C940D226130710559
:104B3000A0E88A07B94630F49B01AC0166277727C5
:104B400088279078309621F02083318342835383E5
:104B50000895AA1BBB1B51E107C0AA1FBB1FA617C4
:104B6000B70710F0A61BB70B881F991F5A95A9F716
:104B700080959095BC01CD01089597FB072E16F402
:104B8000009407D077FD09D00E94A92507FC05D025
:104B90003EF4909581959F4F0895709561957F4F54
:104BA0000895A1E21A2EAA1BBB1BFD010DC0AA1F6E
:104BB000BB1FEE1FFF1FA217B307E407F50720F086
:104BC000A21BB30BE40BF50B661F771F881F991F01
:104BD0001A9469F760957095809590959B01AC014A
:104BE000BD01CF010895EE0FFF1F0590F491E02D58
:104BF0000994A29FB001B39FC001A39F700D811DB6
:104C00001124911DB29F700D811D1124911D0895D5
:104C10000E94F925A59F900DB49F900DA49F800D33
:104C2000911D1124089591110C94282680538A50C7
:104C300028F0865C806281568650B0F70895FB01AB
:104C4000DC0102C005900D9241505040D8F7089504
:104C500099278827089560507C4E0C94652603D0D0
:104C6000808199270895FC01E050FC4E08950E9430
:104C70003326808191810895262F0E94332600805B
:104C8000021619F00E944826019701970895262FD1
:104C9000AF93BF93E0E0F0E1328131FDFDCF3DE91C
:104CA00034BF33E13083DC01A050BC4E2C933DE98E
:104CB00034BF20E020830196BF91AF910895DC01BD
:104CC00028ED209334006C930895FB01DC0102C0B1
:104CD00001900D9241505040D8F70895F894FFCFBD
:0E4CE0000000000200000000F32100000000B0
:00000001FF
