:100000000C94DF000C94C6110C94FC000C94FC00C2
:100010000C94FC000C94FC000C94FC000C94FC0070
:100020000C94FC000C94FC000C94FC000C94FC0060
:100030000C94FC000C94FC000C9463210C94FE00C6
:100040000C94FC000C94FC000C94FC000C94ED0946
:100050000C94FC000C9487190C94BF180C94FC00B1
:100060000C94FC000C94FC000C94FC000C94FC0020
:100070000C94FC000C94FC000C94FC000C94BE014D
:100080000C9485010C94FC000C94FC000C94FC0076
:100090009804BB04D104E604FB0410052505C4063E
:1000A000170725073C0772077D087D087D088E0726
:1000B000A607BD07D507EC077D08FB071808300821
:1000C000600808000000BE922449123EABAAAA2A8A
:1000D000BECDCCCC4C3E00000080BEABAAAAAA3E4E
:1000E00000000000BF000000803F0000000000088A
:1000F0004178D3BB4387D1133D190E3CC3BD428227
:10010000AD2B3E68EC8276BED98FE1A93E4C80EFE4
:10011000FFBE01C4FF7F3F000000000007634236BE
:10012000B79BD8A71A39685618AEBAAB558C1D3C88
:10013000B7CC5763BD6DEDFD753EF6177231BF004C
:100140000000803F7C10800C701748F4E0FC18FC25
:100150002003E8036400F4016400AC0DD20FB40F77
:10016000600900009411E8039411541008072C0151
:10017000640096003200A00F401FA00F401FA00F88
:100180007017D0070400B80B020013001900050017
:1001900014000A0003000A00010019001400000006
:1001A000820002003BFF0500020006000500060079
:1001B000040007000D000900AD9F989F66FF112401
:1001C0001FBECFEFCDBFDFE7DEBF10E6A0E0B0E699
:1001D000E8E9FCE402C005900D92AE30B107D9F712
:1001E00025E6AEE0B0E601C01D92A13FB207E1F7FF
:1001F0000E940F170C944A260C9400001F920F9235
:100200000FB60F9211248F939F93AF93BF93EF93E9
:10021000FF9380E8809365048091160B80FF60C097
:10022000E0E1FBE080818E7F80831286138681E08F
:10023000868380912160823019F41092216050C031
:10024000809121608330D9F4109223601092256050
:10025000E0E2F8E0868180688683A0E1BBE080E28E
:100260009EE41C968D939C931D978C9181608C933A
:1002700085818062858381E08093216031C0E0E2E6
:10028000F8E086818F77868385818F7D858385E001
:1002900080932460E2E5F0E680859185A285B385B0
:1002A0000196A11DB11D80879187A287B387809198
:1002B0002A60882349F083E08093216080912A603E
:1002C000815080932A6003C082E080932160E0E146
:1002D000FBE080E593EC8487958780818160808353
:1002E0008091160B81FF03C082E08093160B80E89B
:1002F00080936604FF91EF91BF91AF919F918F9191
:100300000F900FBE0F901F9018951F920F920FB66F
:100310000F9211248F939F93EF93FF9380E8809324
:1003200065049091236080912260981780F4E09199
:10033000236081E08E0F80932360F0E0E652FF4956
:100340008081E0E2F8E082838481806484839091FC
:10035000236080912260981305C0E0E2F8E0858177
:100360008F7D858380E880936604FF91EF919F9154
:100370008F910F900FBE0F901F9018951F920F92A4
:100380000FB60F9211242F933F934F935F938F9348
:100390009F93AF93BF93EF93FF9380E8809365049F
:1003A000E0E2F8E08181908182FF12C087E08093D3
:1003B0002460E2E5F0E680819181A281B38101961B
:1003C000A11DB11D80839183A283B38381E012C1FB
:1003D00086FF12C086E080932460E2E5F0E6848127
:1003E0009581A681B7810196A11DB11D8483958356
:1003F000A683B78381E0FEC08091256081110BC088
:100400001092106099232CF481E080930F609F7705
:1004100002C010920F6080912560803208F0D7C032
:10042000809125608330D0F4E0912560F0E0E652C1
:10043000FF498081981791F084E080932460E2E581
:10044000F0E684899589A689B7890196A11DB11D19
:10045000848B958BA68BB78B81E0CCC0E091256017
:1004600081E08E0F80932560F0E0E556FD49908392
:100470008091DA6080FF47C080912560843009F068
:10048000B8C08091DD60981791F084E0809324607B
:10049000E2E5F0E684899589A689B7890196A11DD0
:1004A000B11D848B958BA68BB78B81E0A3C0809107
:1004B000DA608130B1F480910F60811112C083E065
:1004C00080932460E2E5F0E6808D918DA28DB38D5E
:1004D0000196A11DB11D808F918FA28FB38F81E0F6
:1004E00089C082E080932460E2E5F0E6848D958DFA
:1004F000A68DB78D0196A11DB11D848F958FA68FF6
:10050000B78F81E077C0809125608330D1F48091EE
:10051000DA60811116C080910F60811112C083E0F2
:1005200080932460E2E5F0E6808D918DA28DB38DFD
:100530000196A11DB11D808F918FA28FB38F81E095
:1005400059C04091256050E02091DC6030E02C5F84
:100550003F4F4217530741F580911060981791F073
:1005600084E080932460E2E5F0E680899189A289A5
:10057000B3890196A11DB11D808B918BA28BB38B8A
:1005800081E038C082E080932460E2E5F0E6848D6B
:10059000958DA68DB78D0196A11DB11D848F958F68
:1005A000A68FB78F81E026C080912560813009F445
:1005B0009F7720911060292788E097E0220F08F4A8
:1005C00029278A95D9F72093106080E013C086E030
:1005D00080932460E2E5F0E684859585A685B7855D
:1005E0000196A11DB11D84879587A687B78781E0F5
:1005F00001C080E08823E1F1E0E2F8E086818F77B6
:10060000868385818F7D8583E0E1FBE080818E7F1D
:1006100080831286138680912460823021F080913D
:100620002460833061F480912660909127608093EC
:100630001C0B90931D0B82E08093216012C080E51B
:1006400093EC80931C0B90931D0B80912A60882360
:1006500041F083E08093216080912A6081508093F3
:100660002A60E0E1FBE083E0868380818160808313
:1006700080E880936604FF91EF91BF91AF919F91C5
:100680008F915F914F913F912F910F900FBE0F90DF
:100690001F9018958091216081110FC08091286072
:1006A00090912960892B49F0809128609091296070
:1006B000019780932860909329608091FA60882345
:1006C00029F08091FA6081508093FA600895FC01CE
:1006D00080E00EC0AF014F5F5F4F9081892798E0A7
:1006E00037E0880F08F483279A95D9F7622FFA012B
:1006F0002FEF260F6111EECF089510922360109214
:10070000256081E080932160E0E2F8E086818068E6
:100710008683858180688583A0E1BBE080E29EE4DA
:100720001C968D939C931D97F89485818062858398
:100730008C9181608C9378940895FF920F931F930E
:10074000CF93DF939091216091111BC0F22E8F7394
:10075000880F8160CAEDD0E6888369834A8363E0AD
:10076000CE010E9467038B8384E080932260F09225
:100770002A6000932660109327600E947D0381E029
:1007800001C080E0DF91CF911F910F91FF900895FC
:100790000F931F9390912160911119C0E42FF0E005
:1007A0003496B197B4F48F73880FEAEDF0E6808346
:1007B0006183428383E08093226020932A600093C8
:1007C0002660109327600E947D0381E003C080E0D3
:1007D00001C080E01F910F910895609111607091A8
:1007E00012608091136090911460089581E080936D
:1007F0001F60089580911F60089580931B6060932F
:100800001A6081E080931D6010921C6008958093AF
:10081000176060931660409315601092186081E035
:100820008093196008952AE1829FC0011124FC0180
:10083000E550FF49858908952AE1829FC00111246E
:10084000FC01E550FF49868908952AE1829FC00195
:100850001124FC01E550FF49848908952AE1829F13
:10086000C0011124FC01E550FF49818D08952AE162
:10087000829FC0011124FC01E550FF4984859585C4
:1008800008952DE0829FC0011124FC01E60FF11DA7
:10089000EE0FFF1FE550FF498081918108952DE003
:1008A000829FC0011124FC01E60FF11D3896EE0F66
:1008B000FF1FE550FF498081918108958091BB62BF
:1008C000089580E00AC09AE1899FF0011124E55063
:1008D000FF4996899064968B8F5F9091BB628917D0
:1008E00090F308958F929F92AF92BF92CF92DF9232
:1008F000EF92FF920F931F93CF93DF93809121602C
:100900008111FBC3F89480912860909129607894BC
:10091000892B09F0F2C3E09120608E2F90E089319D
:10092000910508F0EAC3FC01E85BFF4F0C94CF256A
:1009300080911F60882321F088E080932060DDC3D0
:1009400080911D60882321F08FE080932060D5C3C3
:1009500080911960882321F085E180932060CDC3C8
:100960008091FA608111C9C384E68093FA6081E0C6
:1009700080932060C2C38091BB62811103C010923A
:100980002060BBC381E080930E6082E08093206092
:1009900008E813E123E043E061E38FE30E949D0355
:1009A000ACC380912460823061F483E08093206046
:1009B00000E21EE423E04DE360E38FE30E949D0329
:1009C0009CC30E9461041092206097C380912460B0
:1009D000823061F484E08093206000E117E223E03C
:1009E00041E064E38FE30E949D0387C30E9461049A
:1009F0001092206082C380912460823061F485E08F
:100A00008093206008E813E123E040E061E38FE396
:100A10000E949D0372C30E946104109220606DC306
:100A200080912460823061F486E08093206008E841
:100A300013E123E043E160E081E00E94C8035DC36D
:100A40000E9461041092206058C38091246082301B
:100A500009F07EC100910E6010E0015011098AE199
:100A6000809FE001819FD00D1124C550DF498E8900
:100A70008F7B8E8BEBE9F2E683818C8B248130E0D7
:100A8000322F22278581280F311DA5E3B2E80E946D
:100A9000D5252FEF3FE340E050E00E94AD252E87A3
:100AA0003F87B12CC12CD12C760138C0CB2DD0E0A2
:100AB000DE011396AA0FBB1FA556BD498C9190E08D
:100AC000982F8827FE01EE0FFF1FEE55FD4920816C
:100AD000820F911DC80ED91EE11CF11C2C9130E033
:100AE000322F22278081280F311DAAE6B8E10E940B
:100AF000D5252FEF3FE340E050E00E94AD256DE0AB
:100B0000609FC001619F900D1124C80FD91FCC0FA9
:100B1000DD1FC550DF4928833983B39485E08B15E9
:100B200028F6AAE6B8E1A70196010E94E4252FEF76
:100B30003FE340E050E00E94AD258AE1809FF00154
:100B4000819FF00D1124E550FF4924873587EBE99B
:100B5000F2E6628970E0762F66278389680F711D3F
:100B60006E5F7F4F072E000C880B990B0E94CA22E4
:100B70009B01AC016EE373E680E69CE40E94562282
:100B800020E030E84EE555E40E94E9210E945E2312
:100B90006B017C0124EA3DE04FE859E30E94E32326
:100BA0002AE530E847E45AE30E94EA214B015C0160
:100BB00020E030E040E450E4C701B6010E94502438
:100BC00026E436EA4BED53E30E94E3239B01AC019C
:100BD000C501B4010E94EA219B01AC0160E070E014
:100BE00080E89FE30E94562223E333E948E853E478
:100BF0000E94E92120E030E048EC52E40E94E32327
:100C00000E94A623462F572F682F792F411580E881
:100C100058078FEF680778073CF0411580E85807C0
:100C20006105710534F409C040E050E86FEF7FEFD3
:100C300004C04FEF5FE760E070E08AE1809FF00161
:100C4000819FF00D1124E550FF49408B518BEBE95A
:100C5000F2E6648970E0762F66278589680F711D3A
:100C6000675F7F4F072E000C880B990B0E94CA22EA
:100C70009B01AC016CE779E880E69CE40E94562277
:100C800020E030E84EE555E40E94E9210E945E2311
:100C90006B017C0124EA3DE04FE859E30E94E32325
:100CA0002AE530E847E45AE30E94EA214B015C015F
:100CB00020E030E040E450E4C701B6010E94502437
:100CC00026E436EA4BED53E30E94E3239B01AC019B
:100CD000C501B4010E94EA219B01AC0160E070E013
:100CE00080E89FE30E94562223E333E948E853E477
:100CF0000E94E92120E030E048EC52E40E94E32326
:100D00000E94A623462F572F682F792F411580E880
:100D100058078FEF680778073CF0411580E85807BF
:100D20006105710534F409C040E050E86FEF7FEFD2
:100D300004C04FEF5FE760E070E08AE1809FF00160
:100D4000819FF00D1124E550FF49428B538B0FC05A
:100D500080910E6090E001972AE1289FF001299F81
:100D6000F00D1124E550FF4986898064868B87E069
:100D70008093206008E813E123E042E060E2809184
:100D80000E600E94C803B9C1809124608230B1F422
:100D900080910E6090E00197ABE9B2E613962C913A
:100DA00013973AE1389FF001399FF00D1124E55077
:100DB000FF49258B14968C91868B0FC080910E6015
:100DC00090E001972AE1289FF001299FF00D11245E
:100DD000E550FF4986898064868B80910E608F5F25
:100DE00080930E609091BB629817B0F4809111606F
:100DF00090911260A0911360B09114600196A11DB2
:100E0000B11D8093116090931260A0931360B09312
:100E100014601092206071C196E09093206008E801
:100E200013E123E043E160E00E94C80366C1109231
:100E3000BB6289E08093206008E813E123E040E092
:100E40006BE38FE30E949D0358C180912460823040
:100E500061F48AE08093206008E813E123E041E038
:100E600060E080E00E94C80348C110921E601092AA
:100E70001F601092206041C1809124608230F9F49B
:100E80008091BB62803170F49BE0909320608F5F13
:100E9000482F406808E813E120E06BE380E00E94FF
:100EA0009D032BC1811103C010921E6003C081E01D
:100EB00080931E6010921F60109220601EC180916E
:100EC0002460833041F481E080931E6010921F60A3
:100ED0001092206012C110921E6010921F6010923A
:100EE00020600BC180912460823089F48091BB62C4
:100EF0008F5F8093BB628AE08093206008E813E1F3
:100F000023E041E060E080E00E94C803F6C0109258
:100F10001E6010921F6010922060EFC08091BB6233
:100F2000811107C010921C6010921D601092206009
:100F3000E4C008E813E123E040911B6060E28FE326
:100F40000E949D0380E180932060D7C0809124603F
:100F5000823061F408E813E123E040E060E28FE3CF
:100F60000E949D0381E180932060C7C010921C60A5
:100F700010921D6010922060C0C080912460823069
:100F800069F408E813E123E040911A6061E28FE31D
:100F90000E949D0382E180932060AFC010921C608C
:100FA00010921D6010922060A8C080912460823051
:100FB00061F408E813E123E040E061E28FE30E947E
:100FC0009D0383E18093206098C010921C60109272
:100FD0001D601092206091C080912460823021F4C5
:100FE00081E080931C6002C010921C6010921D6012
:100FF0001092206082C09091BB62992331F0809161
:101000001760882311F0981738F410921860109226
:1010100019601092206071C008E813E123E040914C
:10102000156063E30E949D0386E18093206065C0A4
:1010300080912460823069F408E813E123E040E005
:1010400062E3809117600E949D0387E18093206096
:1010500054C01092186010921960109220604DC018
:1010600080912460823029F540911660411115C0AD
:101070008091176090E001972AE1289FF001299F55
:10108000F00D1124E550FF49118E81E08093186026
:10109000109219601092206030C008E813E123E03C
:1010A00062E3809117600E949D0388E18093206035
:1010B00024C01092186010921960109220601DC018
:1010C00080912460823099F48091176090E00197BC
:1010D000209116603AE1389FF001399FF00D1124FC
:1010E000E550FF49218F81E08093186002C0109283
:1010F00018601092196010922060DF91CF911F91BB
:101100000F91FF90EF90DF90CF90BF90AF909F90A6
:101110008F9008950F931F93CF93DF9380E090E01B
:101120000E940B26182F81E090E00E940B26082FCA
:101130008FEF9FEF9127092E0294202D2F702927E2
:10114000392F3025330F307E2327302D3927307F3C
:101150003695092E000C331F9695969596959F719E
:1011600093279827822F9027092E0294202D2F70E5
:101170002927392F3025330F307E2327302D39276B
:10118000307F3695092E000C331F969596959695CF
:101190009F7193279827822FEC014AE750E062E085
:1011A00070E084E093E60E94072630E021C0E32F40
:1011B000F0E0EC5FFC492081CE019227092E0294D9
:1011C000202D2F702927492F4025440F407E2427AA
:1011D000402D4927407F4695092E000C441F9695C7
:1011E000969596959F7194279827822FEC013F5FE3
:1011F0003A37E8F28CE790E00E941326113029F488
:10120000011103C0C817D90741F04AE750E064E470
:1012100071E084E093E60E94FB25DF91CF911F915E
:101220000F91089581E0809331600895809131603D
:1012300008958091021081FDC1C0809131608823A2
:1012400009F4BCC080912F6090913060009709F044
:101250002CC084E093E680932B6090932C608FEFFA
:101260009FEF21E09227092E0294202D2F7029272D
:10127000392F3025330F307E2327302D3927307F0B
:101280003695092E000C331F9695969596959F716D
:1012900093279827822F80932D6090932E6061E092
:1012A00080E090E00E94182680C08130910509F00E
:1012B00028C080912D6090912E6020E09227092E09
:1012C0000294202D2F702927392F3025330F307E9F
:1012D0002327302D3927307F3695092E000C331FF8
:1012E0009695969596959F7193279827822F809330
:1012F0002D6090932E6060E081E090E00E941826BF
:1013000054C08C37910529F460912D600E941826F5
:101310004CC08D37910569F460912E600E941826AB
:10132000109231608FEF9FEF80932F609093306029
:101330003CC08E37910548F0109231608FEF9FEFDF
:1013400080932F609093306030C0E0912B60F091DB
:101350002C60619180912D6090912E609627092ECE
:101360000294202D2F702927392F3025330F307EFE
:101370002327302D3927307F3695092E000C331F57
:101380009695969596959F7193279827822F80938F
:101390002D6090932E60E0932B60F0932C608091F1
:1013A0002F60909130600E94182680912F6090915C
:1013B0003060019680932F60909330600895F89488
:1013C00080937F609093806078940895F8948091E2
:1013D0007F6090918060789408951F920F920FB66D
:1013E0000F9211248F939F93AF93BF93EF93FF932B
:1013F0008091050982FD02C083FF1DC0E1E8F0E68F
:1014000083E08387A0E0B9E08DE015968C93159773
:1014100087E014968C9310821486E6E3F0E68481CC
:101420009581A681B7810196A11DB11D8483958305
:10143000A683B783B6C086FF6EC084FF2DC080919F
:101440000709882389F081E080938C60E6E3F0E669
:1014500080859185A285B3850196A11DB11D8087E8
:101460009187A287B38710C082E080938C60E6E307
:10147000F0E684859585A685B7850196A11DB11DE9
:1014800084879587A687B78783E080930409E1E87E
:10149000F0E61082148685C0809185609091866008
:1014A000892B99F0E1E8F0E68481958101978483A6
:1014B0009583A281B381CD010196828393838C9120
:1014C0008093080981E084876CC080918B608823B9
:1014D00069F0E1E8F0E61286818190E0880F991FBB
:1014E00081608093070982E084875BC083E08093FA
:1014F0000409E1E8F0E610821486E6E3F0E6808174
:101500009181A281B3810196A11DB11D8083918338
:10151000A283B38346C08823BCF5809189609091F3
:101520008A60892B81F0E1E8F0E6A681B781CD01E0
:10153000019686839783809108098C938085918595
:101540000197808791878091896090918A60892B2B
:10155000A9F487E080930409E1E8F0E6108214869C
:10156000E6E3F0E680819181A281B3810196A11D1D
:10157000B11D80839183A283B38313C082E08093E3
:10158000040980938D600DC0E6E3F0E680899189BF
:10159000A289B3890196A11DB11D808B918BA28B6D
:1015A000B38B80E880936604FF91EF91BF91AF9178
:1015B0009F918F910F900FBE0F901F9018958DE007
:1015C000E1E8F0E6DF011D928A95E9F7E0E4F4E056
:1015D00082898860828B83898860838BE0E0F9E070
:1015E000108212828EE5868381E083838DEE85836F
:1015F00081EC838308950F931F93909181609111E3
:101600001AC09091050990FF18C0E1E8F0E691E05A
:101610009083818392876283738344835583268377
:10162000378300871187138694878181880F809381
:10163000070980E003C084E001C084E01F910F919E
:1016400008959091816091111AC09091050990FFC1
:1016500018C0E1E8F0E691E090838183128662830E
:1016600073834483558316821782108611861386EE
:1016700094878181880F8093070980E0089584E032
:10168000089584E0089580917F6090918060892B17
:1016900049F080917F6090918060019780937F6096
:1016A00090938060089590918E60911109C0EEE84A
:1016B000F0E6828363834483258381E080830895F9
:1016C00080E0089590918F60911106C0EEE8F0E6F9
:1016D000868381E08183089580E008958091AA64E3
:1016E00008959FEF980F983050F4E82FF0E031976D
:1016F000EE0FFF1FEF58FB4985899689089580E01A
:1017000090E008950F931F9380917E60811158C0DF
:1017100010920309E0E4F4E08CE08683808583FD89
:101720000EC0E6E3F0E6808D918DA28DB38D01961B
:10173000A11DB11D808F918FA28FB38F15C182E43F
:101740008A95F1F700C08091480482FD17C0E0E45B
:10175000F4E088E0818392E49A95F1F700C08283F7
:10176000E6E3F0E684899589A689B7890196A11DEB
:10177000B11D848B958BA68BB78BF6C0E0E4F4E0AB
:1017800084E08183A2E4AA95F1F700C08283B2E4E9
:10179000BA95F1F700C08DE0E1E8F0E6DF011D92B7
:1017A0008A95E9F7E0E0F9E0108212828EE58683FF
:1017B00081E083839DEE958391EC938380937E609B
:1017C00080918D608111D0C080917E608130C9F49C
:1017D00080918E60882321F086E080937E60C4C073
:1017E00080918F60882321F088E080937E60BCC068
:1017F0000E94E609892B09F0B7C082E080937E60E1
:10180000B3C0863021F5E7EFF3E685E38083AEE8E9
:10181000B0E612968C911297818313968C91139750
:10182000828314968C911497838315968C9184836C
:1018300045E050E0BF0180E10E94210B811104C00E
:1018400087E080937E6090C010927E608DC087306C
:1018500069F480918C60882319F010927E6084C0B6
:1018600081E080937E6010928E607EC08830B1F4FB
:10187000E7EFF3E68AE3808380919460818342E01E
:1018800050E0BF0180E10E94210B811104C089E07A
:1018900080937E6069C010927E6066C0893069F472
:1018A00080918C60882319F010927E605DC081E089
:1018B00080937E6010928F6057C08230B1F4109296
:1018C000F76309E710E02EE733E641E050E067EF09
:1018D00073E680E10E94FB0A811104C083E08093DB
:1018E0007E6042C010927E603FC08330A1F4809140
:1018F0008C60882319F010927E6036C089E7EEE78D
:10190000F3E6A1E7B4E601900D928A95E1F784E051
:1019100080937E6029C08430B9F4E7EFF3E68BE36F
:1019200080838091AC648F5F818342E050E0BF018F
:1019300080E10E94210B811104C085E080937E60CC
:1019400013C010927E6010C0853071F480918C605D
:10195000882319F010927E6007C081E080937E603A
:1019600084E690E00E94DF091F910F910895CF93C4
:10197000DF932091CE6230E04091486350914963FB
:101980002417350719F4C0E0D0E002C0C0E0D0E26F
:101990004091C0625091C16220910463309105630F
:1019A0002417350708F4C460882369F02091C262C7
:1019B0003091C36280912063909121632817390789
:1019C00070F4C1600CC02091C2623091C3628091FA
:1019D0000663909107632817390708F4C2602091C5
:1019E000C4623091C5628091086390910963821747
:1019F00093070CF4C0612091C6623091C762809158
:101A00000A6390910B63281739070CF4C860809122
:101A1000CA629091CB6220911263309113632817B0
:101A200039073CF020910E6330910F6382179307C2
:101A300014F4C06430C020911063309111632817F2
:101A400039073CF020910C6330910D6382179307A6
:101A5000C4F42091446330914563A8EEB3E00E9442
:101A6000D5259B01AC016091B8607091B9608091FF
:101A7000BA609091BB600E94AA21882361F0C06285
:101A80000AC00E949F216093B8607093B9608093F0
:101A9000BA609093BB600E946E0B833029F0843053
:101AA00039F0823031F402C0D46003C0D26001C08A
:101AB000D8608091CC6286FDD160209164633091C2
:101AC000656390E0822393238F7B9927892B49F4C8
:101AD0008091CD62232F332790E028233923232BB5
:101AE00009F0C0684091BC625091BD626091BE62D5
:101AF0007091BF628091B4609091B560A091B66022
:101B0000B091B760481759076A077B07D9F00E9460
:101B10009F216093B0607093B1608093B2609093A6
:101B2000B3608091BC629091BD62A091BE62B091A1
:101B3000BF628093B4609093B560A093B660B09399
:101B4000B76010C06091B0607091B1608091B26078
:101B50009091B36028EE33E040E050E00E94AA216B
:101B60008111D061CE01DF91CF9108952091C262A1
:101B70003091C36280911A6390911B6328173907D3
:101B8000A8F42091506330915163A8EEB3E00E9415
:101B9000D5259B01AC016091AC607091AD608091E6
:101BA000AE609091AF600E94AA2108950E949F218B
:101BB0006093AC607093AD608093AE609093AF60C3
:101BC00080E008959091AB60882351F14091C46208
:101BD0005091C56220912463309125632417350705
:101BE0000CF14091C6625091C762209122633091FE
:101BF000236342175307C4F02091C0623091C16241
:101C000040911E6350911F632417350778F040916F
:101C10001C6350911D634217530750F0892F09C070
:101C200080E007C080E005C080E003C081E001C023
:101C300080E0891799F08093AB6081110FC081E03B
:101C40008093AA600E949F216093A6607093A76012
:101C50008093A8609093A96080E008958091AA6025
:101C60008823C1F02091526330915363A8EEB3E012
:101C70000E94D5259B01AC016091A6607091A76080
:101C80008091A8609091A9600E94AA21882321F0E8
:101C90001092AA608091AB6008952091C462309147
:101CA000C5628091286390912963821793075CF045
:101CB0002091C6623091C76280912663909127631C
:101CC0002817390774F481E08093A5600E949F2152
:101CD0006093A1607093A2608093A3609093A460CE
:101CE00030C02091C0623091C16280912A6390918E
:101CF0002B638217930770F481E08093A5600E94A4
:101D00009F216093A1607093A2608093A3609093E1
:101D1000A46017C02091566330915763A8EEB3E0DA
:101D20000E94D5259B01AC016091A1607091A260D9
:101D30008091A3609091A4600E94AA2181111092C9
:101D4000A5608091A56008951F93CF93DF93C82F5E
:101D5000D62F142F882341F08091A060823089F51E
:101D600081E08093A0602DC08091A060823079F0E6
:101D70004091C6625091C7622091346330913563BF
:101D80002417350724F082E08093A0601AC08230C7
:101D9000C1F42091C6623091C76280913263909104
:101DA0003363281739076CF081E08093A0600E94AC
:101DB0009F2160939C6070939D6080939E60909340
:101DC0009F60DD2311F0CC2311F0112391F080915D
:101DD000A060811103C081E08093A0600E949F21D8
:101DE00060939C6070939D6080939E6090939F60D1
:101DF00063C08091A060813021F520912E633091E5
:101E00002F63A8EEB3E00E94D5259B01AC01609141
:101E10009C6070919D6080919E6090919F600E94F7
:101E2000AA21882309F448C01092A0600E949F2133
:101E300060939C6070939D6080939E6090939F6080
:101E40003BC0811139C02091C6623091C762809138
:101E50003063909131638217930724F120912C63B2
:101E600030912D63A8EEB3E00E94D5259B01AC0113
:101E700060919C6070919D6080919E6090919F6048
:101E80000E94AA218823C1F081E08093A0600E9473
:101E90009F2160939C6070939D6080939E6090935F
:101EA0009F600AC00E949F2160939C6070939D6018
:101EB00080939E6090939F608091A060DF91CF910E
:101EC0001F910895809166630E94710B2091386381
:101ED000309139632817390740F480919B60811154
:101EE00004C081E080939B6010C0809166630E9473
:101EF000710B20913A6330913B638217930728F46A
:101F000080919B60811110929B6080919B600895ED
:101F1000809168630E94710B20913C6330913D6316
:101F20002817390740F480919A60811104C081E03C
:101F300080939A6010C0809168630E94710B209119
:101F40003E6330913F638217930728F480919A6033
:101F5000811110929A6080919A600895CF93809138
:101F60006A630E94710B209140633091416328178E
:101F7000390730F080916A630E94710BC0E001C0A4
:101F8000C1E080919960C817C9F0209154633091E5
:101F90005563A8EEB3E00E94D5259B01AC0160918A
:101FA00095607091966080919760909198600E9482
:101FB000AA21882369F0C09399600AC00E949F21DA
:101FC000609395607093966080939760909398600B
:101FD00080919960CF91089580916C6390916D6329
:101FE000079711F080E001C081E020916E6330918D
:101FF0006F632730310509F482602091706330915E
:1020000071632730310509F4886020917263309143
:1020100073632730310509F4806220917463309135
:1020200075632730310509F480642091766330911F
:1020300077632730310509F48068089580916C63D7
:1020400090916D630B9711F080E001C081E02091C9
:102050006E6330916F632B30310509F482602091FB
:102060007063309171632B30310509F488602091E1
:102070007263309173632B30310509F480622091D3
:102080007463309175632B30310509F480642091BD
:102090007663309177632B30310509F480680895B9
:1020A00080916C6390916D63049711F080E001C0A2
:1020B00081E020916E6330916F632430310509F423
:1020C000826020917063309171632430310509F48E
:1020D000886020917263309173632430310509F474
:1020E000806220917463309175632430310509F466
:1020F000806420917663309177632430310509F450
:102100008068089580916C6390916D63059711F0DC
:1021100080E001C081E020916E6330916F632530D3
:10212000310511F4826004C02630310509F4846061
:1021300020917063309171632530310511F488600E
:1021400004C02630310509F480612091726330911A
:1021500073632530310509F48062209174633091F6
:1021600075632530310509F48064209176633091E0
:1021700077632530310509F48068089580916C6398
:1021800090916D630C9711F080E001C081E0209187
:102190006E6330916F632C30310509F482602091B9
:1021A0007063309171632C30310509F4886020919F
:1021B0007263309173632C30310509F48062209191
:1021C0007463309175632C30310509F4806420917B
:1021D0007663309177632C30310509F48068089577
:1021E00080916C6390916D630D9711F080E001C058
:1021F00081E020916E6330916F632D30310509F4D9
:10220000826020917063309171632D30310509F443
:10221000886020917263309173632D30310509F429
:10222000806220917463309175632D30310509F41B
:10223000806420917663309177632D30310509F405
:102240008068089580916C6390916D63039711F09D
:1022500080E001C081E020916E6330916F63233094
:10226000310509F4826020917063309171632330ED
:10227000310509F4886020917263309173632330D3
:10228000310509F4806220917463309175632330C5
:10229000310509F4806420917663309177632330AF
:1022A000310509F48068089580916C6390916D63A5
:1022B000089711F080E001C081E020916E633091B9
:1022C0006F632830310509F482602091706330918A
:1022D00071632830310509F4886020917263309170
:1022E00073632830310509F4806220917463309162
:1022F00075632830310509F480642091766330914C
:1023000077632830310509F48068089580916C6303
:1023100090916D63099711F080E001C081E02091F8
:102320006E6330916F632930310509F4826020912A
:102330007063309171632930310509F48860209110
:102340007263309173632930310509F48062209102
:102350007463309175632930310509F480642091EC
:102360007663309177632930310509F480680895E8
:1023700081E080930A0680910D0680FFFCCFE0E0AB
:10238000F6E081E085878089918908951F920F92F8
:102390000FB60F92112484E08093660480918E0B17
:1023A00080FFFCCF1092800B80918E0B80FFFCCFC2
:1023B00060E082E99BE00E943B26E0E6F4E088E1F1
:1023C000868380E4868380E8858388E08093A60402
:1023D0008091010180FDFCCF60E080E091E00E94EF
:1023E0003B2661E080E690E00E943B2680916500FC
:1023F00082FFFCCF80E098E00197F1F780E88093BE
:102400006704F8CF80934409809143098823E4F757
:10241000809144090895CF93DF93CDB7DEB76497D9
:10242000CDBFDEBF5091BB62552309F480C080E070
:1024300090E889879A878FEF9FE78B879C871D821B
:102440001E828FEF9FEF8F839887198A1A8A40E048
:1024500050C0FC012DE0429FE00DF11D1124EE0F54
:10246000FF1FE550FF49208131816F817885261754
:10247000370710F42F8338876D817E8162177307C9
:1024800010F42D833E83019602C080E090E08630F8
:102490009105FCF280E01CC09DE0499FF0011124F1
:1024A000E80FF11D3896EE0FFF1FE550FF49208120
:1024B00031816B857C852617370714F42B873C8781
:1024C00069857A856217730714F429873A878F5FC5
:1024D000823010F32AE1429FF0011124E550FF49B8
:1024E00085899A89892B8A8B86899989892B898BF9
:1024F0004F5F451750F280917B6490917C646AE055
:1025000070E00E9499256F87788B0E94ED036983A4
:102510007A838B839C838091BB628B8B84E1FE01E9
:102520003196ACEBB2E601900D928A95E1F7649694
:10253000CDBFDEBFDF91CF910895CF93DF93CDB7AD
:10254000DEB76497CDBFDEBF50917B60552309F4A1
:1025500080C080E090E889879A878FEF9FE78B871C
:102560009C871D821E828FEF9FEF8F839887198A29
:102570001A8A40E050C0FC012DE0429FE00DF11DA1
:102580001124EE0FFF1FE053FD49208131816F813F
:1025900078852617370710F42F8338876D817E8161
:1025A0006217730710F42D833E83019602C080E00A
:1025B00090E086309105FCF280E01CC09DE0499FD0
:1025C000F0011124E80FF11D3896EE0FFF1FE053C4
:1025D000FD49208131816B857C852617370714F4EE
:1025E0002B873C8769857A856217730714F42987DE
:1025F0003A878F5F823010F32AE1429FF001112465
:10260000E053FD4985899A89892B8A8B8689998926
:10261000892B898B4F5F451750F28091796090919B
:102620007A608F87988B8091756090917660A09189
:102630007760B091786089839A83AB83BC835B8B2E
:1026400084E1FE013196ACEBB2E601900D928A95E1
:10265000E1F76496CDBFDEBFDF91CF9108958F92F1
:102660009F92BF92CF92DF92EF92FF920F931F93B0
:10267000CF93DF938091D06081110FC08091BC62B5
:102680009091BD62A091BE62B091BF620397A10517
:10269000B10518F081E08093D0600E94AE0F082F42
:1026A0000E94620FD82E0E94880FC82F8091CE62A0
:1026B0008823E1F08091D0608823E9F0802F0E9488
:1026C000E20D182F81E020917C6030917D60232BFA
:1026D00009F480E04D2D612F0E94A40ED82F0E9496
:1026E000B60DB82E0E944D0EC82E09C0D0E0C12CE8
:1026F00010E0B12C04C0D0E0C12C10E0B12C8091CE
:10270000CF6081110CC0DD2051F0CC2341F081E07D
:102710008093CF6010927C6010927D6006C0882309
:1027200021F0C11102C01092CF60112349F08091B5
:102730007C6090917D608D7F80937C6090937D60C4
:102740008091CE62882349F08091D060882341F047
:10275000812F0E94B70C7C0105C0E12CF12C02C036
:10276000E12CF12CE114F10439F180917C6090911D
:102770007D609701282B392B82179307E9F0209170
:1027800046633091476340E050E06091CB607091C8
:10279000CC608091CD609091CE600E94AA21882368
:1027A000A9F080917C6090917D608E299F29809313
:1027B0007C6090937D600AC00E949F216093CB60F3
:1027C0007093CC608093CD609093CE608091CE6208
:1027D000882329F09091D060992319F003C0D0E0AC
:1027E00001C0D0E020917C6030917D60232B31F4DA
:1027F000882321F08091D060811106C01092CA60B8
:102800001092C96010E052C001110CC0DD2051F0DF
:10281000CC2341F08091C960811104C081E0809394
:10282000C96010E0011102C0D11005C08091C960DB
:1028300081111092C9608091C960811104C0111189
:1028400002C0D230C1F48091CA60811109C0EF2862
:1028500021F01092C96010E003C081E08093CA604B
:102860000E949F216093C5607093C6608093C7608B
:102870009093C8601BC08091CA608823B9F02091F2
:102880004E6330914F63A8EEB3E00E94D5259B01C3
:10289000AC016091C5607091C6608091C7609091F5
:1028A000C8600E94AA2181111092CA60A8958091E7
:1028B000CA60882309F4DAC0D11101C0D1E0809147
:1028C000C4609FEF980F9E3F68F08091010180FDEA
:1028D000FAC065E080E091E00E943B2681E08093B1
:1028E000C460F1C08130C1F48091010180FDEBC072
:1028F00084E08093650483EA0E94620B0E949F211A
:102900006093C0607093C1608093C2609093C36015
:1029100082E08093C460D7C0823021F52091146397
:102920003091156340E050E06091C0607091C160EB
:102930008091C2609091C3600E94AA21882309F40B
:10294000C2C088E0809365040E949F216093C060AC
:102950007093C1608093C2609093C36083E0809362
:10296000C460B1C0833021F52091166330911763A4
:1029700040E050E06091C0607091C1608091C260A1
:102980009091C3600E94AA21882309F49CC080E131
:10299000809365040E949F216093C0607093C16022
:1029A0008093C2609093C36084E08093C4608BC0C6
:1029B000843009F088C0209118633091196340E099
:1029C00050E06091C0607091C1608091C260909150
:1029D000C3600E94AA21882309F475C088E080930F
:1029E000660460E482E99BE00E943B260F2EF0E83B
:1029F0008F2EFBE09F2EF02DF401118280E4828364
:102A000060914A6370914B636F5F7F4F80E29EE4F9
:102A10000E9485257B01CB01019786A797A7A091EE
:102A20004C63B0914D639B010E94D52524E630E0B4
:102A300040E050E00E94AD25E21AF30AF401E4A65A
:102A4000F5A680918E0B80FFFCCF81E08093800BF8
:102A50000E949F216093C0607093C1608093C260A8
:102A60009093C36080E88093C4602DC084E080931D
:102A7000660480918E0B80FFFCCF1092800B8091BA
:102A80008E0B80FFFCCF60E082E99BE00E943B263A
:102A900088E1809366048091C4608F3F61F48091E7
:102AA000010180FD10C060E080E091E00E943B26C3
:102AB0001092C46008C0882331F080E00E94620B4D
:102AC0008FEF8093C4608091CA60811144C100235C
:102AD00009F441C18091C46081113DC18091D060F1
:102AE000811121C038C120917360309174602D3AFA
:102AF0003E4D51F42AE1829FF0011124E053FD493B
:102B0000948991FD0BC00DC09AE1899FF0011124B9
:102B1000E550FF49948991FD03C003C041E001C025
:102B200041E08F5F02C080E040E09091CE62891763
:102B3000D0F2411106C12091626330916363A8EE27
:102B4000B3E00E94D5259B01AC016091BC607091FF
:102B5000BD608091BE609091BF600E94AA218111EA
:102B6000EAC0F9C020917360309174602D3A3E4DF7
:102B700009F062C04C2F50E09AE1949FF001959FBC
:102B8000F00D1124E053FD49218DE82FF0E030E0F5
:102B9000082E02C0359527950A94E2F720FF26C03B
:102BA0009DE0949FD001959FB00D1124AE0FBF1FE3
:102BB000AA0FBB1FA053BD494D915C91A091C26269
:102BC000B091C36220915E6330915F632A0F3B1F17
:102BD0002417350708F091C021E030E0082E02C02C
:102BE000220F331F0A94E2F7622B87C09DE0949F67
:102BF000D001959FB00D1124AE0FBF1FAA0FBB1FB0
:102C0000A053BD494D915C91A091C262B091C36245
:102C100020915C6330915D632A0F3B1F421753077D
:102C200008F46BC021E030E0082E02C0220F331FF1
:102C30000A94E2F7622B61C0AC2FB0E09AE19A9F50
:102C4000F0019B9FF00D1124E550FF49218D482F85
:102C500050E030E0082E02C0359527950A94E2F73F
:102C600020FF26C09DE09A9FF0019B9FF00D11244C
:102C7000E40FF51FEE0FFF1FE550FF490190F081B3
:102C8000E02DA091C262B091C36220915E63309149
:102C90005F632A0F3B1F2E173F0778F521E030E0D6
:102CA000082E02C0220F331F0A94E2F7622B25C0C0
:102CB0009DE09A9FF0019B9FF00D1124E40FF51FFA
:102CC000EE0FFF1FE550FF490190F081E02DA0912C
:102CD000C262B091C36220915C6330915D632A0F40
:102CE0003B1FE217F30748F021E030E0082E02C056
:102CF000220F331F0A94E2F7622B8F5F02C080E03D
:102D000060E0863008F42ECF8091736090917460FB
:102D10008D3A9E4D39F04091606381E08C0F0E94A6
:102D2000070407C02AE1C29FF0011124E053FD49C6
:102D3000618FCF5F01C0C0E08091CE62C817F8F20A
:102D40000AC00E949F216093BC607093BD60809315
:102D5000BE609093BF60DD2321F00E948210C82FD7
:102D600001C0C0E08091C460803831F50E941E101F
:102D7000C82B112319F00E94EC0FC82BBB2039F08F
:102D80008091C960882319F00E94BE10C82BCC2006
:102D900039F08091C960882319F00E94F010C82B87
:102DA0008091C960882319F00E948611C82BD23007
:102DB00019F40E945010C82B002319F00E945411DE
:102DC000C82B80917C6090917D60892B21F480914B
:102DD000CE62811102C0D11004C08091D0608111F7
:102DE00003C00E942211C82B8091D160C81751F0F6
:102DF000C093D16040915A6360915863242F8C2F07
:102E00000E94530B81E0DF91CF911F910F91FF90B2
:102E1000EF90DF90CF90BF909F908F90089580E0CB
:102E200094E024E8FC012483C0E4D4E021E02C8376
:102E3000A0E6B4E014961C92149740EA54E0FA011C
:102E4000148234EDFC01308328833CED3C933AE05E
:102E5000FA013083FC01108A118A128A138A148ABB
:102E6000158A168A178A188A198A38E03A8B3B8B9A
:102E70001C8A1D8A1E8A1F8A50961C925097519652
:102E80001C92519752961C92529753961C925397AC
:102E900054961C92549755961C92559756961C9290
:102EA000569757961C925797FA01108A118A128AE0
:102EB000138A148A158A168A178AFC0122872A87A0
:102EC0001A962C93FA012287E0EEF5E0158284E051
:102ED000818782E08683828360E288E690E00E94B8
:102EE0003B268091650081FFFCCF61E883E690E09E
:102EF0000E943B2661E082E690E00E943B2669E268
:102F000080E890E00E943B2663E080E690E00E942B
:102F10003B268091650084FFFCCF0E948A08E0E098
:102F2000FBE080E29EE48487958781E0858380834F
:102F3000E0E1FBE011822FEF3FEF24873587128617
:102F4000138685838091A80485FF0BC0E0EAF4E036
:102F5000848182608483E0E6F4E084818F778483D7
:102F60000AC0E0EAF4E084818D7F8483E0E6F4E047
:102F70008481806884830E94D821FFE72AE186E06B
:102F8000F15020408040E1F700C0000080E48093D1
:102F900065049FEFE3E2F4EF9150E040F040E1F789
:102FA00000C0000095E09093B000C0EAD4E08A89A8
:102FB000887F8A8B8A8984608A8B8C89887F8C8BB6
:102FC0008C8984608C8B8A89877F8A8B8C89877FA8
:102FD0008C8B00E016E081E0F801828386E081833B
:102FE00090836894FF24F3F8FD8282E180878FE468
:102FF00093EC0197F1F700C000000E94B81184E142
:10300000F80180878FE493EC0197F1F700C000008E
:103010000E94B811FE820E94DF0A83E38093400978
:1030200080E090E001C001968F3F9105E1F3D8F375
:10303000C0E0D4E010E81E8383E00E9402128EE01C
:103040000E94021280E00E9402121D831E8383E010
:103050000E9402128FE00E94021280E00E9402127F
:103060001D831E8382E00E9402128FE00E940212E2
:1030700083E20E9402121D83E0E2F8E083E890E020
:103080008087918780EC8683858180688583E0E0F6
:10309000F8E08581806885837894A0E0BBE08C911E
:1030A00015968C918681806886838581806885836A
:1030B000E0EAF4E084818D7F848380915A6390916B
:1030C0005B634FEF489F9001499F300D1124369567
:1030D000279536952795ABE7B4E10E94D5259695BF
:1030E000879560915863282F482F80E00E94530BEA
:1030F00080E00E94620B0E94F6036FE28FEE0E9456
:10310000FD030E9472040E94820B0E94B9208091EC
:103110007360909174608D3A9E4D19F40E949D12D7
:1031200006C010927360109274600E940B120E948D
:103130002F130E9419098091326090913360A09101
:103140003460B09135600196A11DB11D809332604D
:1031500090933360A0933460B0933560D2CF8136C2
:1031600010F087550895813410F0875308958053E7
:1031700008958A3010F4805D0895895C08951F9247
:103180000F920FB60F9211241F932F933F934F93DB
:103190005F936F937F938F939F93AF93BF93CF93DF
:1031A000DF93EF93FF9380E8809365048091EA6456
:1031B000873009F44AC028F4853069F08630D1F0B0
:1031C00088C08A3009F46DC08B3009F475C089302D
:1031D00009F07FC057C0E0E0F8E08AE38283848191
:1031E000806484831092D3601092D26086E08093D2
:1031F000EA6476C0E091D3608091D460E81313C094
:103200008091D26081958093D26082958F700E9468
:10321000B918E0E0F8E0828384818064848389E0E7
:103220008093EA645DC0F0E0E551FB4980818295BE
:103230008F700E94B918E0E0F8E082838481806496
:10324000848387E08093EA644BC01091D360C12FE0
:10325000D0E0C551DB4988818F700E94B918E0E049
:10326000F8E082838481806484831F5F1093D3603D
:1032700088819091D260890F8093D26086E080939C
:10328000EA642EC08091D2608F700E94B918E0E08D
:10329000F8E082838481806484838AE08093EA6496
:1032A0001FC0E0E0F8E08DE0828384818064848345
:1032B0008BE08093EA6414C0E0E0F8E08AE0828367
:1032C00084818064848385818F7D85831092EA6404
:1032D00007C0E0E0F8E085818F7D85831092EA6485
:1032E00080E880936604FF91EF91DF91CF91BF91C9
:1032F000AF919F918F917F916F915F914F913F918E
:103300002F911F910F900FBE0F901F9018951F9235
:103310000F920FB60F9211240F931F932F933F9389
:103320004F935F936F937F938F939F93AF93BF93CD
:10333000CF93EF93FF9380E880936504E0E0F8E09B
:103340008181C08182FF04C080E88093660496C0BA
:1033500086FF04C080E88093660490C080910508D1
:1033600085FF04C080E88093660488C08091EA6489
:10337000843020F080E88093660480C0CA3359F41A
:103380001092D4601092EA6581E08093EA6480E84C
:103390008093660473C0CD3079F48091EA64813003
:1033A00021F48091D460833018F41092EA6463C0F1
:1033B00083E08093EA645FC0CA30B9F48091EA6424
:1033C000833019F01092EA6456C08091EA65882330
:1033D00019F01092EA644FC08091D46081508093BC
:1033E000D46084E08093EA6446C08C2F90E00E9411
:1033F000EF25892B09F43FC08091EA648130A9F45C
:103400000091D4600F3F19F41092EA6434C010E0C8
:103410008C2F0E94AF18F801E551FB498295807FFF
:10342000808382E08093EA6426C08091EA648230DF
:1034300011F58C2F0E94AF182091D460E22FF0E09C
:10344000E551FB499081892B8083211109C030917E
:10345000EB649091D560391719F01092EA640BC0B3
:103460002F5F2093D4609091EA65890F8093EA657D
:1034700081E08093EA6480E880936604FF91EF9195
:10348000CF91BF91AF919F918F917F916F915F91FC
:103490004F913F912F911F910F910F900FBE0F9061
:1034A0001F9018958430910559F08630910571F080
:1034B000039781F4662381F00E94F60380E008956B
:1034C000662361F00E94120980E0089560937260A3
:1034D00080E0089582E0089580E0089580E00895F6
:1034E000CF93DF93EB018430910551F08630910545
:1034F00081F0039799F40E94FA03888380E00FC05B
:103500000E94160921E0892B09F420E0288380E03D
:1035100006C080917260888380E001C082E0DF9104
:10352000CF9108959F92AF92BF92CF92DF92EF9288
:10353000FF920F931F93CF93DF931F92CDB7DEB708
:103540008C016B01693E83E0780708F043C0CB0132
:103550000796969587959695879596958795A82E23
:103560008093ED648D5F8093D4600F2EF3E09F2EE7
:10357000F02D2CC0E92CF12CF701E551FB4910820C
:10358000B12C1FC0C114D104F9F0BE016F5F7F4F91
:10359000C8010E94701A81111EC0898190E00B2C15
:1035A00002C0880F991F0A94E2F7F701E551FB4921
:1035B0009081892B80830F5F1F4F81E0C81AD1084B
:1035C000B39487E08B15F0F6AA949394A110D2CF10
:1035D00080E001C082E00F90DF91CF911F910F91A9
:1035E000FF90EF90DF90CF90BF90AF909F900895A5
:1035F0006E37710508F085C0262F220F2093ED64E9
:103600002D5F2093D46023E076C08D339105B0F414
:10361000E22FF0E0DC01AA0FBB1FAC5FBC491196A2
:103620003C911197E551FB493083E1E0E20FF0E076
:103630002E5F3C91E551FB4930835AC0883E33E010
:10364000930789F4E22FF0E0309173604091746049
:10365000E551FB494083E1E0E20FF0E02E5FE551E8
:10366000FB49308345C0893E33E0930779F4E22F6C
:10367000F0E0E551FB491082E1E0E20FF0E02E5F5F
:10368000E551FB4930917B60308332C08A3E33E0A4
:10369000930789F4E22FF0E03091796040917A60ED
:1036A000E551FB494083E1E0E20FF0E02E5FE55198
:1036B000FB4930831DC0AC014B5E53404A3151057C
:1036C00010F5E22FF0E0DC01AB5EB348AA0FBB1FA0
:1036D000A053BD4911963C911197E551FB493083A8
:1036E000E1E0E20FF0E02E5F3C91E551FB493083D1
:1036F0006150710901966115710509F086CF80E06E
:10370000089582E0089582E00895EF92FF920F936A
:103710001F93CF93DF93AC01FB016E37710508F067
:10372000DCC08091F16490E09B01220F331F2817C9
:10373000390709F0D4C086E08093D460D0E0C7E0B8
:10374000B2C04D335105C0F4AC2FB0E0A551BB4918
:103750008C9190E0982F8827A1E0AC0FB0E0CE5F6D
:10376000A551BB492C91822BDA01AA0FBB1FAC5F7C
:10377000BC498D939C9394C0483E83E05807A9F4BC
:10378000AC2FB0E0A551BB498C9190E0982F8827D1
:10379000A1E0AC0FB0E0CE5FA551BB492C91822BCC
:1037A00080937360909374607BC0493E83E05807B8
:1037B000D1F4AC2FB0E0A551BB498C9190E0982F8B
:1037C0008827A1E0AC0FB0E0CE5FA551BB492C919A
:1037D000822B8330910520F082E080937B6060C073
:1037E00080937B605DC04A3E83E05807A9F4AC2F0C
:1037F000B0E0A551BB498C9190E0982F8827A1E0BB
:10380000AC0FB0E0CE5FA551BB492C91822B8093C9
:10381000796090937A6044C08A010B5E13400A314C
:10382000110508F05EC0AC2FB0E0A551BB498C91EA
:1038300090E0982F8827A1E0AC0FB0E0CE5FA551B3
:10384000BB492C917C01E22A9801A5ECBEE40E94C0
:10385000D52596958795969587956DE0689F9001FB
:10386000699F300D1124C801821B930B0A9770F0D9
:10387000809172608823A1F0DA01AB5EB348AA0F91
:10388000BB1FA053BD49ED92FC920AC0DA01AB5EAA
:10389000B348AA0FBB1FA053BD49ED92FC92D1E0E3
:1038A00031974F5F5F4F309709F04BCFDD23D9F051
:1038B0008091756090917660A0917760B09178600A
:1038C0000196A11DB11D8093756090937660A093C1
:1038D0007760B093786080E007C082E005C082E046
:1038E00003C082E001C080E0DF91CF911F910F9172
:1038F000FF90EF900895AF92BF92DF92EF92FF9208
:103900000F931F93CF93DF93EC017B016E3771050B
:1039100008F00CC4862F880F8093ED648D5F809330
:10392000D4600EEE14E6FCC3C336D10561F4D801B1
:103930001C925801B2E0AB0EB11C0E945E04F8016B
:1039400081838501E9C3CE01845691098034964074
:1039500008F067C0FE01F695E795F695E7959F019B
:10396000ABE7B4E10E94D525AC0156954795DD241F
:10397000DA94D40E24E6249FC001259F900D1124D3
:10398000BE01681B790B862F61110AC08D2D0E9424
:103990003704D8019C9311968C930E5F1F4FBCC3C4
:1039A0006150663048F48D2D0E944104F8019083E7
:1039B00081830E5F1F4FB0C369EF680F623050F410
:1039C0008D2D0E944F04D8019C9311968C930E5F0D
:1039D0001F4FA2C3893089F48D2D0E941304F80172
:1039E00080835801F2E0AF0EB11C8D2D0E941C04A3
:1039F000D80111968C9385018FC38A3009F098C342
:103A00008D2D0E942504F80180835801F2E0AF0E4D
:103A1000B11C8D2D0E942E04D80111968C93850126
:103A20007BC3C031B7E2DB0741F4F801108280911B
:103A3000766481830E5F1F4F6FC3C131F7E2DF07EA
:103A400059F4E1E7F4E68781D8018C9386811196D9
:103A50008C930E5F1F4F60C3C231B7E2DB0759F48E
:103A6000E1E7F4E68185D8018C93808511968C93EB
:103A70000E5F1F4F51C3C331B7E2DB0759F4E1E7D3
:103A8000F4E68385D8018C93828511968C930E5F22
:103A90001F4F42C3C431B7E2DB0759F4E1E7F4E654
:103AA0008585D8018C93848511968C930E5F1F4F6A
:103AB00033C3C531B7E2DB0759F4E1E7F4E68785A4
:103AC000D8018C93868511968C930E5F1F4F24C36B
:103AD000C631B7E2DB0759F4E1E7F4E68189D801A2
:103AE0008C93808911968C930E5F1F4F15C3C7313D
:103AF000B7E2DB0759F4E1E7F4E68389D8018C9358
:103B0000828911968C930E5F1F4F06C3C831B7E2AE
:103B1000DB0759F4E1E7F4E68689D8018C938589BF
:103B200011968C930E5F1F4FF7C2C931B7E2DB07C6
:103B300059F4E1E7F4E6808DD8018C9387891196DA
:103B40008C930E5F1F4FE8C2CA31B7E2DB0759F40E
:103B5000E1E7F4E6828DD8018C93818D11968C93E8
:103B60000E5F1F4FD9C2CB31B7E2DB0759F4E1E753
:103B7000F4E6848DD8018C93838D11968C930E5F1F
:103B80001F4FCAC2CC31B7E2DB0759F4E1E7F4E6D4
:103B9000868DD8018C93858D11968C930E5F1F4F67
:103BA000BBC2CD31B7E2DB0759F4E1E7F4E680A10F
:103BB000D8018C93878D11968C930E5F1F4FACC2EA
:103BC000CE31B7E2DB0759F4E1E7F4E682A1D80190
:103BD0008C9381A111968C930E5F1F4F9DC2CF31A4
:103BE000B7E2DB0759F4E1E7F4E684A1D8018C934E
:103BF00083A111968C930E5F1F4F8EC2C032B7E225
:103C0000DB0741F4F80110828091A66481830E5F86
:103C10001F4F82C2C132F7E2DF0749F4D8011C927C
:103C20008091AA6411968C930E5F1F4F75C2C232A9
:103C3000B7E2DB0751F480917D60F80180838091C9
:103C40007C6081830E5F1F4F67C2C83FFAE2DF07C7
:103C5000F9F4F89480916E6090916F60A09170601B
:103C6000B09171607894F801B08398012E5F3F4F56
:103C7000A183F2E0EF16F10408F42DC2F80192835B
:103C80008383F1E0EF1AF10821960C5F1F4F44C2C5
:103C9000C2302BE2D207F9F4F89480915E609091E3
:103CA0005F60A0916060B09161607894F801B0832A
:103CB00098012E5F3F4FA183F2E0EF16F10408F464
:103CC0000CC2F80192838383F1E0EF1AF108219688
:103CD0000C5F1F4F21C2CA3F2AE2D207F9F4F894C1
:103CE0008091626090916360A0916460B091656022
:103CF0007894F801B08398012E5F3F4FA183F2E0E2
:103D0000EF16F10408F4EBC1F80192838383F1E02C
:103D1000EF1AF10821960C5F1F4FFEC1CC3F2AE23B
:103D2000D207F9F4F8948091666090916760A09151
:103D30006860B09169607894F801B08398012E5F53
:103D40003F4FA183F2E0EF16F10408F4CAC1F80175
:103D500092838383F1E0EF1AF10821960C5F1F4FE5
:103D6000DBC1CE3F2AE2D207F9F4F8948091526089
:103D700090915360A0915460B09155607894F8018F
:103D8000B08398012E5F3F4FA183F2E0EF16F1045C
:103D900008F4A9C1F80192838383F1E0EF1AF108D6
:103DA00021960C5F1F4FB8C1C6302BE2D207F9F441
:103DB000F89480916A6090916B60A0916C60B09172
:103DC0006D607894F801B08398012E5F3F4FA18316
:103DD000F2E0EF16F10408F488C1F80192838383BE
:103DE000F1E0EF1AF10821960C5F1F4F95C1C11544
:103DF0002BE2D207F9F4F8948091566090915760C5
:103E0000A0915860B09159607894F801B0839801FE
:103E10002E5F3F4FA183F2E0EF16F10408F467C173
:103E2000F80192838383F1E0EF1AF10821960C5F89
:103E30001F4F72C1C4302BE2D207F9F4F89480917D
:103E40005A6090915B60A0915C60B0915D607894E5
:103E5000F801B08398012E5F3F4FA183F2E0EF1687
:103E6000F10408F446C1F80192838383F1E0EF1A6C
:103E7000F10821960C5F1F4F4FC1C8302BE2D207CB
:103E8000F9F4F8948091366090913760A091386091
:103E9000B09139607894F801B08398012E5F3F4F5C
:103EA000A183F2E0EF16F10408F425C1F801928332
:103EB0008383F1E0EF1AF10821960C5F1F4F2CC1AC
:103EC000CA302BE2D207F9F4F89480913A609091CD
:103ED0003B60A0913C60B0913D607894F801B08364
:103EE00098012E5F3F4FA183F2E0EF16F10408F432
:103EF00004C1F80192838383F1E0EF1AF10821965F
:103F00000C5F1F4F09C1CC302BE2D207F9F4F894B3
:103F100080913E6090913F60A0914060B09141607F
:103F20007894F801B08398012E5F3F4FA183F2E0AF
:103F3000EF16F10408F4E3C0F80192838383F1E003
:103F4000EF1AF10821960C5F1F4FE6C0CE302BE22E
:103F5000D207F9F4F8948091426090914360A09167
:103F60004460B09145607894F801B08398012E5F69
:103F70003F4FA183F2E0EF16F10408F4C2C0F8014C
:103F800092838383F1E0EF1AF10821960C5F1F4FB3
:103F9000C3C0C0312BE2D207F9F4F8948091466097
:103FA00090914760A0914860B09149607894F80181
:103FB000B08398012E5F3F4FA183F2E0EF16F1042A
:103FC00008F4A1C0F80192838383F1E0EF1AF108AD
:103FD00021960C5F1F4FA0C0C2312BE2D207E9F43B
:103FE00080914A6090914B60A0914C60B0914D607F
:103FF000F801B08398012E5F3F4FA183F2E0EF16E6
:10400000F10408F482C0F80192838383F1E0EF1A8F
:10401000F10821960C5F1F4F7FC0C4312BE2D207FD
:10402000E9F480914E6090914F60A0915060B09102
:104030005160F801B08398012E5F3F4FA183F2E0F9
:10404000EF16F10408F463C0F80192838383F1E072
:10405000EF1AF10821960C5F1F4F5EC0C6312BE2AC
:10406000D207E9F48091326090913360A09134607E
:10407000B0913560F801B08398012E5F3F4FA18366
:10408000F2E0EF16F10408F444C0F8019283838350
:10409000F1E0EF1AF10821960C5F1F4F3DC0C831C7
:1040A0002BE2D20709F046C00E949F21D8019C93C1
:1040B00098012E5F3F4F11968C93B2E0EB16F104FE
:1040C00050F1F80172836383F1E0EF1AF108219651
:1040D0000C5F1F4F21C089011FC089011DC08901CC
:1040E0001BC0890119C0890117C0890115C0890148
:1040F00013C0890111C089010FC089010DC0890158
:104100000BC0890109C0890107C0890105C0890167
:1041100003C0890101C0890121E0E21AF10821965A
:10412000E114F10409F000CC80E005C082E003C096
:1041300082E001C082E0DF91CF911F910F91FF904B
:10414000EF90DF90BF90AF900895882349F0EBEE99
:10415000F4E6918190689183828383E08093D460B8
:1041600085E08093EA64E0E0F8E085818062858301
:1041700008958091EA64843009F0A4C08091EC64D1
:10418000843009F44EC030F48130A9F1833009F451
:104190005EC087C0853021F0803109F46DC081C0D8
:1041A0008091D460863009F07EC08091EF648F3FAB
:1041B00081F49091F06491110CC0EBEEF4E68281F1
:1041C00090E0982F8827238161E0822B0E94521A69
:1041D00077C081116AC08091F064811168C0EBEEF4
:1041E000F4E6828190E0982F8827238160E0822B7B
:1041F0000E94521A65C08091D460863009F059C07F
:10420000EBEEF4E6648170E0762F66278581682BFB
:10421000828190E0982F88272381822B0E94921A16
:104220004FC08091D460863009F045C0EBEEF4E6D3
:10423000648170E0762F66278581682B828190E00B
:10424000982F88272381822B0E947B1C39C0809164
:10425000D460863091F5EBEEF4E6648170E0762F61
:1042600066278581682B828190E0982F882723819B
:10427000822B0E94F81A24C08091D4608930F8F013
:10428000EBEEF4E6648170E0762F66278581682B7B
:10429000828190E0982F88272381822B0E94851BA2
:1042A0000FC081E00DC083E00BC083E009C083E054
:1042B00007C083E005C083E003C083E001C083E062
:1042C0000E94A52008951F920F920FB60F921124FD
:1042D0002F933F934F935F936F937F938F939F930E
:1042E000AF93BF93EF93FF9381E08093060B0E94FF
:1042F0004A030E94430B8091D6609091D760A091B1
:10430000D860B091D9600196A11DB11D8093D6608F
:104310009093D760A093D860B093D960FF91EF914C
:10432000BF91AF919F918F917F916F915F914F91CD
:104330003F912F910F900FBE0F901F901895F894FA
:104340006091D6607091D7608091D8609091D9606B
:10435000789408958F929F92AF92BF92CF92DF92FE
:10436000EF92FF924B015C0169017A010E949F214B
:10437000DC01CB0188199909AA09BB098C159D0597
:10438000AE05BF0510F081E001C080E0FF90EF9026
:10439000DF90CF90BF90AF909F908F9008959091B5
:1043A000040895FFFCCF8093020880E090E0089518
:1043B000E0E0F8E086EB92E08087918782E28783F5
:1043C00080E4868380E090E68093ED659093EE65CF
:1043D00008955058BB27AA270E9401220C941C2341
:1043E0000E940E2338F00E94152320F039F49F3FDD
:1043F00019F426F40C940B230EF4E095E7FB0C94CF
:104400000523E92F0E942D2358F3BA17620773077B
:104410008407950720F079F4A6F50C944F230EF449
:10442000E0950B2EBA2FA02D0B01B90190010C01C4
:10443000CA01A0011124FF27591B99F0593F50F4DC
:10444000503E68F11A16F040A22F232F342F442734
:10445000585FF3CF469537952795A795F04053952C
:10446000C9F77EF41F16BA0B620B730B840BBAF0FC
:104470009150A1F0FF0FBB1F661F771F881FC2F767
:104480000EC0BA0F621F731F841F48F4879577957B
:104490006795B795F7959E3F08F0B0CF9395880F35
:1044A00008F09927EE0F9795879508950E946A2244
:1044B0000C941C230E94152358F00E940E2340F0F8
:1044C00029F45F3F29F00C94052351110C945023DB
:1044D0000C940B230E942D2368F39923B1F35523E9
:1044E00091F3951B550BBB27AA2762177307840707
:1044F00038F09F5F5F4F220F331F441FAA1FA9F39D
:1045000035D00E2E3AF0E0E832D091505040E6958A
:10451000001CCAF72BD0FE2F29D0660F771F881FEB
:10452000BB1F261737074807AB07B0E809F0BB0BDE
:10453000802DBF01FF2793585F4F3AF09E3F5105F2
:1045400078F00C9405230C9450235F3FE4F3983EDD
:10455000D4F3869577956795B795F7959F5FC9F7DB
:10456000880F911D9695879597F90895E1E0660F5C
:10457000771F881FBB1F621773078407BA0720F0D5
:10458000621B730B840BBA0BEE1F88F7E09508953E
:10459000E89409C097FB3EF49095809570956195DD
:1045A0007F4F8F4F9F4F9923A9F0F92F96E9BB2793
:1045B0009395F695879577956795B795F111F8CF0F
:1045C000FAF4BB0F11F460FF1BC06F5F7F4F8F4F7A
:1045D0009F4F16C0882311F096E911C0772321F070
:1045E0009EE8872F762F05C0662371F096E8862F08
:1045F00070E060E02AF09A95660F771F881FDAF75F
:10460000880F9695879597F9089597F99F6780E8A1
:1046100070E060E008959FEF80EC089500240A9414
:104620001616170618060906089500240A9412168D
:104630001306140605060895092E0394000C11F4C0
:10464000882352F0BB0F40F4BF2B11F460FF04C06D
:104650006F5F7F4F8F4F9F4F089557FD9058440FC6
:10466000551F59F05F3F71F04795880F97FB991FD1
:1046700061F09F3F79F0879508951216130614068E
:10468000551FF2CF4695F1DF08C01616170618061B
:10469000991FF1CF86957105610508940895E894F6
:1046A000BB2766277727CB0197F9089516F00C945E
:1046B000DA240C940B2368940C9405230E94352370
:1046C000A8F39923C1F3AEF3DF93CF931F930F9316
:1046D000FF92C92FDD2788232AF02197660F771FC5
:1046E000881FDAF720E030E040E85FEB9FE388398D
:1046F00020F0803E38F021968F770E94EA21E2EC8C
:10470000F0E004C00E94EA21EFEEF0E00E94E8240D
:104710008B01BE01EC01FB2E6F5771097595771F58
:10472000880B990B0E94CA2228E132E741E35FE33C
:104730000E94F623AF2D9801AE01FF900F911F91BB
:10474000CF91DF910E9401220C941C230E943523FB
:10475000A8F19E57B0F1985160F039F1983070F59A
:10476000092E9927660F771F881F991F0A94D1F782
:104770001CC0BB27993F4CF4B111B1E0B62B672F99
:10478000782F8827985FB1F708C086957795679549
:10479000B79508F4B1609395C1F7BB0F30F411F4ED
:1047A00060FF03C06F5F7F4F8F4F3EF49095809501
:1047B000709561957F4F8F4F9F4F089568940C942B
:1047C00050230C944F230E94F6230C941C230E9428
:1047D0000E2338F00E94152320F0952311F00C943D
:1047E00005230C940B2311240C9450230E942D2399
:1047F00070F3959FC1F3950F50E0551F629FF00134
:10480000729FBB27F00DB11D639FAA27F00DB11D4C
:10481000AA1F649F6627B00DA11D661F829F2227D5
:10482000B00DA11D621F739FB00DA11D621F839F5C
:10483000A00D611D221F749F3327A00D611D231F32
:10484000849F600D211D822F762F6A2F11249F5780
:1048500050409AF0F1F088234AF0EE0FFF1FBB1F83
:10486000661F771F881F91505040A9F79E3F510542
:1048700080F00C9405230C9450235F3FE4F3983EA2
:10488000D4F3869577956795B795F795E7959F5FEC
:10489000C1F7FE2B880F911D9695879597F908957E
:1048A000FA01EE0FFF1F309621053105A1F16115C8
:1048B000710561F48038BFE39B0749F16894903833
:1048C000810561F08038BFEF9B0741F099234AF5DD
:1048D000FF3FE1053105210519F1E8940894E795BA
:1048E000D901AA2329F4AB2FBE2FF85FD0F310C053
:1048F000FF5F70F4A695E0F7F73950F019F0FF3A32
:1049000038F49F779F930DD00F9007FC905808952F
:1049100046F00C940B2360E070E080E89FE308957C
:104920004FE79F775F934F933F932F930E945E23B0
:104930002F913F914F915F910E94E3230C94A82403
:1049400029F416F00C9405230C944F230C940B239C
:104950000E943523A8F39638A0F707F80F92E89441
:104960002BE33AEA48EB5FE70E94F9230F920F929C
:104970000F924DB75EB70F920E945125ECE1F1E026
:104980000E94E8244F915F91EF91FF91E595EE1F12
:10499000FF1F49F0FE57E0684427EE0F441FFA95C9
:1049A000E1F74195550B0E941B250F9007FE0C94D3
:1049B0000F2508959F3F31F0915020F4879577950A
:1049C0006795B795880F911D9695879597F90895E6
:1049D000DF93CF931F930F93FF92EF92DF927B01B0
:1049E0008C01689406C0DA2EEF010E94F623FE01C6
:1049F000E894A5912591359145915591A6F3EF0144
:104A00000E940122FE019701A801DA9469F7DF9064
:104A1000EF90FF900F911F91CF91DF9108959B012F
:104A2000AC0160E070E080E89FE30C9456220C94A7
:104A300005230C94DA240E943523D8F39923C9F373
:104A4000940F511DA3F39150504094F059F08823D6
:104A500032F0660F771F881F91505040C1F79E3F7C
:104A600051052CF7880F911D9695879597F9089514
:104A70005F3FACF0983E9CF0BB2786957795679595
:104A8000B79508F4B1609395C1F7BB0F58F711F4CF
:104A900060FFE8CF6F5F7F4F8F4F9F4FE3CF0C9446
:104AA0005023FA01DC01AA0FBB1F9B01AC01BF57C9
:104AB00028F4222733274427507820C0B75190F498
:104AC000AB2F0024469537952795011CA395D2F36B
:104AD000002071F0220F331F441FB395DAF30ED07C
:104AE0000C94E92161307105A0E88A07B94630F4D9
:104AF0009B01AC016627772788279078309621F0B4
:104B000020833183428353830895AA1BBB1B51E149
:104B100007C0AA1FBB1FA617B70710F0A61BB70B2D
:104B2000881F991F5A95A9F780959095BC01CD01D2
:104B3000089597FB072E16F4009407D077FD09D04F
:104B40000E94852507FC05D03EF4909581959F4FE6
:104B50000895709561957F4F0895A1E21A2EAA1BC2
:104B6000BB1BFD010DC0AA1FBB1FEE1FFF1FA2171D
:104B7000B307E407F50720F0A21BB30BE40BF50B1A
:104B8000661F771F881F991F1A9469F760957095A3
:104B9000809590959B01AC01BD01CF010895EE0F6A
:104BA000FF1F0590F491E02D0994A29FB001B39FDF
:104BB000C001A39F700D811D1124911DB29F700D26
:104BC000811D1124911D08950E94D525A59F900D4A
:104BD000B49F900DA49F800D911D112408959111F3
:104BE0000C94042680538A5028F0865C806281569B
:104BF0008650B0F70895FB01DC0102C005900D92CC
:104C000041505040D8F7089599278827089560505B
:104C10007C4E0C94412603D0808199270895FC0195
:104C2000E050FC4E08950E940F26808191810895E6
:104C3000262F0E940F260080021619F00E942426BB
:104C4000019701970895262FAF93BF93E0E0F0E11D
:104C5000328131FDFDCF3DE934BF33E13083DC01EA
:104C6000A050BC4E2C933DE934BF20E02083019638
:104C7000BF91AF910895DC0128ED209334006C932F
:104C80000895FB01DC0102C001900D92415050409B
:084C9000D8F70895F894FFCF56
:0E4C98000000000200000000CF21000000001C
:00000001FF
