:100000000C94DF000C94CE100C94FC000C94FC00BB
:100010000C94FC000C94FC000C94FC000C94FC0070
:100020000C94FC000C94FC000C94FC000C94FC0060
:100030000C94FC000C94FC000C94AA1E0C94FE0082
:100040000C94FC000C94FC000C94FC000C947E09B5
:100050000C94FC000C9476180C94AE170C94FC00D5
:100060000C94FC000C94FC000C94FC000C94FC0020
:100070000C94FC000C94FC000C94FC000C94C40147
:100080000C948B010C94FC000C94FC000C94FC0070
:10009000310454046A047D049004A304B604550694
:1000A000A806B606CD0603070E080E080E081F07A1
:1000B00037074E0766077D070E088C07A907C1079B
:1000C000F10708000000BE922449123EABAAAA2AFA
:1000D000BECDCCCC4C3E00000080BEABAAAAAA3E4E
:1000E00000000000BF000000803F0000000000088A
:1000F0004178D3BB4387D1133D190E3CC3BD428227
:10010000AD2B3E68EC8276BED98FE1A93E4C80EFE4
:10011000FFBE01C4FF7F3F000000000007634236BE
:10012000B79BD8A71A39685618AEBAAB558C1D3C88
:10013000B7CC5763BD6DEDFD753EF6177231BF004C
:100140000000803F7C10800C701748F4E0FC18FC25
:100150002003E8036400F4016400AC0DD20FB40F77
:10016000600900009411E8039411541008072C0151
:10017000640096003200A00F401FA00F401FA00F88
:100180007017D0070400B80B020013001900050017
:1001900014000A0003000A00010019001400000006
:1001A000820002003018050002000600050006006B
:1001B000040007000D000900AD9F989F66FF112401
:1001C0001FBECFEFCDBFDFE7DEBF10E6A0E0B0E699
:1001D000E6E2F7E402C005900D92AE30B107D9F720
:1001E00025E6AEE0B0E601C01D92AD3BB207E1F7F7
:1001F0000E9411160C9491230C9400001F920F92F0
:100200000FB60F9211248F939F93AF93BF93EF93E9
:10021000FF9380E8809365048091160B80FF66C091
:10022000E0E1FBE080818E7F80831286138681E08F
:10023000868380912D60823019F410922D6056C013
:1002400080912D608330D9F410922F60109231602C
:10025000E0E2F8E0868180688683A0E1BBE080E28E
:100260009EE41C968D939C931D978C9181608C933A
:1002700085818062858381E080932D6037C0E0E2D4
:10028000F8E086818F77868385818F7D858385E001
:10029000809330608091216090912260A0912360D2
:1002A000B09124600196A11DB11D809321609093AF
:1002B0002260A0932360B0932460809136608823ED
:1002C00049F083E080932D60809136608150809367
:1002D000366003C082E080932D60E0E1FBE080E5C2
:1002E00093EC848795878081816080838091160B51
:1002F00081FF03C082E08093160B80E88093660440
:10030000FF91EF91BF91AF919F918F910F900FBE91
:100310000F901F9018951F920F920FB60F921124F5
:100320008F939F93EF93FF9380E880936504909160
:100330002F6080912E60981780F4E0912F6081E00B
:100340008E0F80932F60F0E0EA55FF498081E0E254
:10035000F8E0828384818064848390912F6080910F
:100360002E60981305C0E0E2F8E085818F7D8583DB
:1003700080E880936604FF91EF919F918F910F9099
:100380000FBE0F901F9018951F920F920FB60F92ED
:1003900011242F933F934F935F938F939F93AF932A
:1003A000BF93EF93FF9380E880936504E0E2F8E069
:1003B0008181908182FF18C087E0809330608091B6
:1003C000296090912A60A0912B60B0912C600196D9
:1003D000A11DB11D8093296090932A60A0932B608A
:1003E000B0932C6081E0B0C086FF18C086E0809397
:1003F00030608091256090912660A0912760B09137
:1004000028600196A11DB11D809325609093266000
:10041000A0932760B093286081E096C080913160FE
:1004200081110BC01092106099232CF481E080930D
:100430000F609F7702C010920F6080913160803210
:1004400008F07CC080913160833068F4E0913160C5
:10045000F0E0EA55FF498081981729F084E0809305
:10046000306081E071C0E091316081E08E0F809357
:100470003160F0E0E959FD4990838091A66080FFEA
:1004800020C080913160843009F05DC08091A96006
:10049000981729F084E08093306081E055C0809106
:1004A000A660813049F480910F60811105C083E01E
:1004B0008093306081E048C082E08093306081E0CA
:1004C00043C080913160833069F48091A6608111CE
:1004D00009C080910F60811105C083E08093306076
:1004E00081E032C04091316050E02091A86030E05E
:1004F0002C5F3F4F4217530771F48091106098179B
:1005000029F084E08093306081E01EC082E0809317
:10051000306081E019C080913160813009F49F77AB
:1005200020911060292788E097E0220F08F42927FE
:100530008A95D9F72093106080E006C086E080930A
:10054000306081E001C080E08823E1F1E0E2F8E082
:1005500086818F77868385818F7D8583E0E1FBE0CF
:1005600080818E7F808312861386809130608230F6
:1005700021F080913060833061F4809132609091FD
:10058000336080931C0B90931D0B82E080932D6051
:1005900012C080E593EC80931C0B90931D0B80910F
:1005A0003660882341F083E080932D60809136602F
:1005B000815080933660E0E1FBE083E086838081B8
:1005C0008160808380E880936604FF91EF91BF9102
:1005D000AF919F918F915F914F913F912F910F908C
:1005E0000FBE0F901F90189580912D6081110FC044
:1005F0008091346090913560892B49F0809134600E
:10060000909135600197809334609093356080912C
:10061000C660882329F08091C66081508093C660AF
:100620000895FC0180E00EC0AF014F5F5F4F9081E5
:10063000892798E037E0880F08F483279A95D9F73F
:10064000622FFA012FEF260F6111EECF089510925D
:100650002F601092316081E080932D60E0E2F8E03D
:10066000868180688683858180688583A0E1BBE080
:1006700080E29EE41C968D939C931D97F89485814F
:10068000806285838C9181608C9378940895FF9229
:100690000F931F93CF93DF9390912D6091111BC007
:1006A000F22E8F73880F8160C6EAD0E68883698353
:1006B0004A8363E0CE010E9411038B8384E0809320
:1006C0002E60F092366000933260109333600E9487
:1006D000270381E001C080E0DF91CF911F910F914E
:1006E000FF9008950F931F9390912D60911119C061
:1006F000E42FF0E03496B197B4F48F73880FE6EAF4
:10070000F0E680836183428383E080932E602093B0
:10071000366000933260109333600E94270381E0BB
:1007200003C080E001C080E01F910F9108956091A7
:10073000116070911260809113609091146008951F
:1007400081E080931F60089580911F6008958093D9
:100750001B6060931A6081E080931D6010921C60A2
:10076000089580931760609316604093156010920F
:10077000186081E08093196008952AE1829FC0018A
:100780001124FC01E953FF49858908952AE1829FDC
:10079000C0011124FC01E953FF49868908952AE12B
:1007A000829FC0011124FC01E953FF498489089507
:1007B0002AE1829FC0011124FC01E953FF49818D88
:1007C00008952AE1829FC0011124FC01E953FF49E9
:1007D0008485958508952DE0829FC0011124FC0138
:1007E000E60FF11DEE0FFF1FE953FF498081918154
:1007F00008952DE0829FC0011124FC01E60FF11D38
:100800003896EE0FFF1FE953FF49808191810895CB
:100810008091876208958F929F92AF92BF92CF92FC
:10082000DF92EF92FF920F931F93CF93DF9380910C
:100830002D608111F3C3F8948091346090913560FC
:100840007894892B09F0EAC3E09120608E2F90E024
:100850008931910508F0E2C3FC01E85BFF4F0C947D
:10086000162380911F60882321F088E08093206008
:10087000D5C380911D60882321F08FE08093206094
:10088000CDC380911960882321F085E18093206099
:10089000C5C38091C6608111C1C384E68093C660E0
:1008A00081E080932060BAC380918762811103C088
:1008B00010922060B3C381E080930E6082E0809349
:1008C000206008E813E123E043E061E38FE30E9446
:1008D0004703A4C380913060823061F483E0809349
:1008E000206000E21EE423E04DE360E38FE30E941A
:1008F000470394C31092206091C38091306082308E
:1009000061F484E08093206000E117E223E041E09D
:1009100064E38FE30E94470381C3109220607EC38B
:1009200080913060823061F485E08093206008E837
:1009300013E123E040E061E38FE30E9447036EC3CD
:10094000109220606BC380913060823061F486E049
:100950008093206008E813E123E043E160E081E058
:100960000E9472035BC31092206058C38091306074
:10097000823009F07EC100910E6010E00150110933
:100980008AE1809FE001819FD00D1124C953DF4986
:100990008E898F7B8E8BE7E6F2E683818C8B2481B8
:1009A00030E0322F22278581280F311DA5E3B2E8E0
:1009B0000E941C232FEF3FE340E050E00E94F4220E
:1009C0002E873F87B12CC12CD12C760138C0CB2D7E
:1009D000D0E0DE011396AA0FBB1FA959BD498C9127
:1009E00090E0982F8827FE01EE0FFF1FE259FD4986
:1009F0002081820F911DC80ED91EE11CF11C2C9183
:100A000030E0322F22278081280F311DAAE6B8E17D
:100A10000E941C232FEF3FE340E050E00E94F422AD
:100A20006DE0609FC001619F900D1124C80FD91F18
:100A3000CC0FDD1FC953DF4928833983B39485E088
:100A40008B1528F6AAE6B8E1A70196010E942B2390
:100A50002FEF3FE340E050E00E94F4228AE1809FC4
:100A6000F001819FF00D1124E953FF492487358758
:100A7000E7E6F2E6628970E0762F66278389680FE1
:100A8000711D6E5F7F4F072E000C880B990B0E9423
:100A900011209B01AC016EE373E680E69CE40E94AA
:100AA0009D1F20E030E84EE555E40E94301F0E9473
:100AB000A5206B017C0124EA3DE04FE859E30E9448
:100AC0002A212AE530E847E45AE30E94311F4B010E
:100AD0005C0120E030E040E450E4C701B6010E9430
:100AE000972126E436EA4BED53E30E942A219B012D
:100AF000AC01C501B4010E94311F9B01AC0160E053
:100B000070E080E89FE30E949D1F23E333E948E8FB
:100B100053E40E94301F20E030E048EC52E40E9491
:100B20002A210E94ED20462F572F682F792F41153B
:100B300080E858078FEF680778073CF0411580E898
:100B400058076105710534F409C040E050E86FEFC3
:100B50007FEF04C04FEF5FE760E070E08AE1809FC5
:100B6000F001819FF00D1124E953FF49408B518B17
:100B7000E7E6F2E6648970E0762F66278589680FDC
:100B8000711D675F7F4F072E000C880B990B0E9429
:100B900011209B01AC016CE779E880E69CE40E949F
:100BA0009D1F20E030E84EE555E40E94301F0E9472
:100BB000A5206B017C0124EA3DE04FE859E30E9447
:100BC0002A212AE530E847E45AE30E94311F4B010D
:100BD0005C0120E030E040E450E4C701B6010E942F
:100BE000972126E436EA4BED53E30E942A219B012C
:100BF000AC01C501B4010E94311F9B01AC0160E052
:100C000070E080E89FE30E949D1F23E333E948E8FA
:100C100053E40E94301F20E030E048EC52E40E9490
:100C20002A210E94ED20462F572F682F792F41153A
:100C300080E858078FEF680778073CF0411580E897
:100C400058076105710534F409C040E050E86FEFC2
:100C50007FEF04C04FEF5FE760E070E08AE1809FC4
:100C6000F001819FF00D1124E953FF49428B538B12
:100C70000FC080910E6090E001972AE1289FF0015B
:100C8000299FF00D1124E953FF4986898064868BE2
:100C900087E08093206008E813E123E042E060E20F
:100CA00080910E600E947203B9C1809130608230E1
:100CB000B1F480910E6090E00197A7E6B2E613963A
:100CC0002C9113973AE1389FF001399FF00D1124D0
:100CD000E953FF49258B14968C91868B0FC0809128
:100CE0000E6090E001972AE1289FF001299FF00D06
:100CF0001124E953FF4986898064868B80910E60B8
:100D00008F5F80930E60909187629817B0F4809106
:100D1000116090911260A0911360B09114600196DF
:100D2000A11DB11D8093116090931260A093136078
:100D3000B09314601092206071C196E0909320608F
:100D400008E813E123E043E160E00E94720366C11A
:100D50001092876289E08093206008E813E123E025
:100D600040E06BE38FE30E94470358C180913060FD
:100D7000823061F48AE08093206008E813E123E088
:100D800041E060E080E00E94720348C110921E6062
:100D900010921F601092206041C1809130608230BB
:100DA000F9F480918762803170F49BE09093206029
:100DB0008F5F482F406808E813E120E06BE380E094
:100DC0000E9447032BC1811103C010921E6003C013
:100DD00081E080931E6010921F60109220601EC1FF
:100DE00080913060833041F481E080931E601092E6
:100DF0001F601092206012C110921E6010921F603E
:100E0000109220600BC180913060823089F4809113
:100E100087628F5F809387628AE08093206008E812
:100E200013E123E041E060E080E00E947203F6C03D
:100E300010921E6010921F6010922060EFC080918F
:100E40008762811107C010921C6010921D60109281
:100E50002060E4C008E813E123E040911B6060E2F9
:100E60008FE30E94470380E180932060D7C0809188
:100E70003060823061F408E813E123E040E060E292
:100E80008FE30E94470381E180932060C7C01092E6
:100E90001C6010921D6010922060C0C08091306074
:100EA000823069F408E813E123E040911A6061E2BE
:100EB0008FE30E94470382E180932060AFC01092CD
:100EC0001C6010921D6010922060A8C0809130605C
:100ED000823061F408E813E123E040E061E28FE34F
:100EE0000E94470383E18093206098C010921C60A9
:100EF00010921D601092206091C08091306082300D
:100F000021F481E080931C6002C010921C6010925A
:100F10001D601092206082C090918762992331F009
:100F200080911760882311F0981738F41092186098
:100F3000109219601092206071C008E813E123E05C
:100F40004091156063E30E94470386E1809320602F
:100F500065C080913060823069F408E813E123E0D5
:100F600040E062E3809117600E94470387E180932D
:100F7000206054C010921860109219601092206086
:100F80004DC080913060823029F54091166041114A
:100F900015C08091176090E001972AE1289FF00129
:100FA000299FF00D1124E953FF49118E81E08093B0
:100FB0001860109219601092206030C008E813E1A8
:100FC00023E062E3809117600E94470388E18093E9
:100FD000206024C010921860109219601092206056
:100FE0001DC080913060823099F48091176090E04C
:100FF0000197209116603AE1389FF001399FF00D7A
:101000001124E953FF49218F81E08093186002C0C9
:10101000109218601092196010922060DF91CF91A9
:101020001F910F91FF90EF90DF90CF90BF90AF9006
:101030009F908F9008950F931F93CF93DF9380E03D
:1010400090E00E945223182F81E090E00E945223EA
:10105000082F8FEF9FEF9127092E0294202D2F70DC
:101060002927392F3025330F307E2327302D39277C
:10107000307F3695092E000C331F969596959695E0
:101080009F7193279827822F9027092E0294202D55
:101090002F702927392F3025330F307E2327302D0D
:1010A0003927307F3695092E000C331F969596957B
:1010B00096959F7193279827822FEC014AE750E07D
:1010C00062E070E080ED92E60E944E2330E021C0A5
:1010D000E32FF0E0E053FD492081CE019227092E55
:1010E0000294202D2F702927492F4025440F407E40
:1010F0002427402D4927407F4695092E000C441F88
:101100009695969596959F7194279827822FEC0136
:101110003F5F3A37E8F28CE790E00E945A231130A3
:1011200029F4011103C0C817D90741F04AE750E07C
:1011300064E471E080ED92E60E944223DF91CF915A
:101140001F910F91089581E080933D6008958091F3
:101150003D6008958091021081FDC1C080913D6085
:10116000882309F4BCC080913B6090913C6000975B
:1011700009F02CC080ED92E6809337609093386040
:101180008FEF9FEF21E09227092E0294202D2F70E0
:101190002927392F3025330F307E2327302D39274B
:1011A000307F3695092E000C331F969596959695AF
:1011B0009F7193279827822F8093396090933A608C
:1011C00061E080E090E00E945F2380C08130910563
:1011D00009F028C08091396090913A6020E0922710
:1011E000092E0294202D2F702927392F3025330FF7
:1011F000307E2327302D3927307F3695092E000C7D
:10120000331F9695969596959F7193279827822FD1
:101210008093396090933A6060E081E090E00E94B2
:101220005F2354C08C37910529F4609139600E9486
:101230005F234CC08D37910569F460913A600E943C
:101240005F2310923D608FEF9FEF80933B60909300
:101250003C603CC08E37910548F010923D608FEFA6
:101260009FEF80933B6090933C6030C0E09137608B
:10127000F091386061918091396090913A60962741
:10128000092E0294202D2F702927392F3025330F56
:10129000307E2327302D3927307F3695092E000CDC
:1012A000331F9695969596959F7193279827822F31
:1012B0008093396090933A60E0933760F0933860A0
:1012C00080913B6090913C600E945F2380913B60E5
:1012D00090913C60019680933B6090933C600895B0
:1012E000F89480934B6090934C6078940895F894B0
:1012F00080914B6090914C60789408951F920F926A
:101300000FB60F9211248F939F93AF93BF93EF93D8
:10131000FF938091050982FD02C083FF10C0EDE4B8
:10132000F0E683E08387A0E0B9E08DE015968C932A
:10133000159787E014968C931082148674C086FFEC
:1013400047C084FF13C080910709882321F081E002
:101350008093586003C082E08093586083E080935C
:101360000409EDE4F0E6108214865DC080915160BE
:1013700090915260892B99F0EDE4F0E6848195819B
:10138000019784839583A281B381CD0101968283E5
:1013900093838C918093080981E0848744C0809175
:1013A0005760882369F0EDE4F0E61286818190E0D1
:1013B000880F991F81608093070982E0848733C07A
:1013C00083E080930409EDE4F0E6108214862BC0DC
:1013D00088234CF58091556090915660892B81F05F
:1013E000EDE4F0E6A681B781CD010196868397836F
:1013F000809108098C9380859185019780879187DA
:101400008091556090915660892B41F487E08093DC
:101410000409EDE4F0E61082148605C082E08093B2
:1014200004098093596080E880936604FF91EF91EE
:10143000BF91AF919F918F910F900FBE0F901F9012
:1014400018958DE0EDE4F0E6DF011D928A95E9F74D
:10145000E0E4F4E082898860828B83898860838BF2
:10146000E0E0F9E0108212828EE5868381E08383DA
:101470008DEE858381EC838308950F931F93909164
:101480004D6091111AC09091050990FF18C0EDE4CC
:10149000F0E691E090838183928762837383448333
:1014A000558326833783008711871386948781812C
:1014B000880F8093070980E003C084E001C084E0C6
:1014C0001F910F91089590914D6091111AC09091C4
:1014D000050990FF18C0EDE4F0E691E09083818368
:1014E0001286628373834483558316821782108623
:1014F0001186138694878181880F8093070980E085
:10150000089584E0089584E0089580914B6090915F
:101510004C60892B49F080914B6090914C60019711
:1015200080934B6090934C60089590915A60911114
:1015300009C0EAE5F0E6828363834483258381E082
:101540008083089580E0089590915B60911106C0BA
:10155000EAE5F0E6868381E08183089580E00895DE
:101560008091766408959FEF980F983050F4E82F9B
:10157000F0E03197EE0FFF1FE35CFB498589968908
:10158000089580E090E008950F931F9380914A6042
:1015900081113BC010920309E0E4F4E08CE0868303
:1015A000808583FF06C182E48A95F1F700C08091AF
:1015B000480482FD08C088E0818392E49A95F1F79F
:1015C00000C08283F6C0E0E4F4E084E08183A2E41A
:1015D000AA95F1F700C08283B2E4BA95F1F700C092
:1015E0008DE0EDE4F0E6DF011D928A95E9F7E0E099
:1015F000F9E0108212828EE5868381E083839DEE7E
:10160000958391EC938380934A6080915960811116
:10161000D0C080914A608130C9F480915A6088239B
:1016200021F086E080934A60C4C080915B6088238B
:1016300021F088E080934A60BCC00E947709892B22
:1016400009F0B7C082E080934A60B3C0863021F5CC
:10165000E3ECF3E685E38083AAE5B0E612968C918D
:101660001297818313968C911397828314968C9191
:101670001497838315968C91848345E050E0BF01D5
:1016800080E10E94630A811104C087E080934A6070
:1016900090C010924A608DC0873069F48091586084
:1016A000882319F010924A6084C081E080934A60D8
:1016B00010925A607EC08830B1F4E3ECF3E68AE31E
:1016C000808380916060818342E050E0BF0180E1CF
:1016D0000E94630A811104C089E080934A6069C056
:1016E00010924A6066C0893069F4809158608823FE
:1016F00019F010924A605DC081E080934A601092B8
:101700005B6057C08230B1F41092C36309E710E008
:101710002AE433E641E050E063EC73E680E10E94A6
:101720003D0A811104C083E080934A6042C0109258
:101730004A603FC08330A1F480915860882319F03B
:1017400010924A6036C089E7EAE4F3E6ADE3B4E616
:1017500001900D928A95E1F784E080934A6029C058
:101760008430B9F4E3ECF3E68BE380838091786412
:101770008F5F818342E050E0BF0180E10E94630AF5
:10178000811104C085E080934A6013C010924A60C2
:1017900010C0853071F480915860882319F0109240
:1017A0004A6007C081E080934A6084E690E00E942E
:1017B00070091F910F910895CF93DF9320919A6242
:1017C00030E040911463509115632417350719F4E4
:1017D000C0E0D0E002C0C0E0D0E240918C62509105
:1017E0008D622091D0623091D1622417350708F4C0
:1017F000C460882369F020918E6230918F6280915D
:10180000EC629091ED622817390770F4C1600CC04A
:1018100020918E6230918F628091D2629091D362DA
:101820002817390708F4C2602091906230919162C4
:101830008091D4629091D562821793070CF4C061B5
:1018400020919262309193628091D6629091D7629A
:10185000281739070CF4C8608091966290919762BE
:101860002091DE623091DF62281739073CF0209129
:10187000DA623091DB628217930714F4C06430C0DF
:101880002091DC623091DD62281739073CF020910D
:10189000D8623091D96282179307C4F42091106303
:1018A00030911163A8EEB3E00E941C239B01AC01B0
:1018B000609184607091856080918660909187606E
:1018C0000E94F11E882361F0C0620AC00E94E61ED9
:1018D0006093846070938560809386609093876046
:1018E0000E94B00A833029F0843039F0823031F41C
:1018F00002C0D46003C0D26001C0D86080919862F9
:1019000086FDD160209130633091316390E0822375
:1019100093238F7B9927892B49F480919962232FF8
:10192000332790E028233923232B09F0C068409106
:1019300088625091896260918A6270918B62809115
:10194000806090918160A0918260B091836048171F
:1019500059076A077B07D9F00E94E61E60937C60F6
:1019600070937D6080937E6090937F6080918862A9
:1019700090918962A0918A62B0918B62809380601D
:1019800090938160A0938260B093836010C0609157
:101990007C6070917D6080917E6090917F6028EE88
:1019A00033E040E050E00E94F11E8111D061CE0191
:1019B000DF91CF91089520918E6230918F62809156
:1019C000E6629091E76228173907A8F420911C631A
:1019D00030911D63A8EEB3E00E941C239B01AC0173
:1019E000609178607091796080917A6090917B606D
:1019F0000E94F11E08950E94E61E60937860709325
:101A0000796080937A6090937B6080E008959091F4
:101A10007760882351F140919062509191622091BA
:101A2000F0623091F162241735070CF14091926217
:101A3000509193622091EE623091EF62421753070A
:101A4000C4F020918C6230918D624091EA62509195
:101A5000EB622417350778F04091E8625091E96213
:101A60004217530750F0892F09C080E007C080E07B
:101A700005C080E003C081E001C080E0891799F0D3
:101A80008093776081110FC081E0809376600E941F
:101A9000E61E60937260709373608093746090939D
:101AA000756080E00895809176608823C1F0209170
:101AB0001E6330911F63A8EEB3E00E941C239B01BC
:101AC000AC016091726070917360809174609091CC
:101AD00075600E94F11E882321F01092766080913B
:101AE0007760089520919062309191628091F462C4
:101AF0009091F562821793075CF020919262309189
:101B000093628091F2629091F3622817390774F41E
:101B100081E0809371600E94E61E60936D60709317
:101B20006E6080936F609093706030C020918C6283
:101B300030918D628091F6629091F76282179307DF
:101B400070F481E0809371600E94E61E60936D6086
:101B500070936E6080936F609093706017C0209157
:101B6000226330912363A8EEB3E00E941C239B0103
:101B7000AC0160916D6070916E6080916F6090912A
:101B800070600E94F11E81111092716080917160ED
:101B90000895CF93DF93C82FD62F80916C60823049
:101BA00079F040919262509193622091006330915C
:101BB00001632417350724F082E080936C601AC01B
:101BC0008230C1F420919262309193628091FE62E2
:101BD0009091FF62281739076CF081E080936C6068
:101BE0000E94E61E609368607093696080936A60EB
:101BF00090936B60C11102C0DD2321F081E08093DE
:101C00006C6063C080916C60813021F52091FA6234
:101C10003091FB62A8EEB3E00E941C239B01AC0153
:101C2000609168607091696080916A6090916B606A
:101C30000E94F11E882309F448C010926C600E9433
:101C4000E61E609368607093696080936A60909309
:101C50006B603BC0811139C02091926230919362D8
:101C60008091FC629091FD628217930724F120918C
:101C7000F8623091F962A8EEB3E00E941C239B0148
:101C8000AC01609168607091696080916A60909128
:101C90006B600E94F11E8823C1F081E080936C602C
:101CA0000E94E61E609368607093696080936A602A
:101CB00090936B600AC00E94E61E60936860709308
:101CC000696080936A6090936B6080916C60DF9133
:101CD000CF910895809132630E94B30A20910463EA
:101CE000309105632817390740F4809167608111AE
:101CF00004C081E08093676010C0809132630E94CD
:101D0000B30A20910663309107638217930728F482
:101D1000809167608111109267608091676008957B
:101D2000809134630E94B30A209108633091096363
:101D30002817390740F480916660811104C081E062
:101D40008093666010C0809134630E94B30A209132
:101D50000A6330910B638217930728F480916660C1
:101D6000811110926660809166600895CF93809192
:101D700036630E94B30A20910C6330910D632817DB
:101D8000390730F0809136630E94B30AC0E001C089
:101D9000C1E080916560C817C9F02091206330913F
:101DA0002163A8EEB3E00E941C239B01AC0160916B
:101DB00061607091626080916360909164600E9444
:101DC000F11E882369F0C09365600AC00E94E61E78
:101DD00060936160709362608093636090936460CD
:101DE00080916560CF9108958091386390913963B7
:101DF000079711F080E001C081E020913A633091B3
:101E00003B632730310509F4826020913C633091B7
:101E10003D632730310509F4886020913E6330919D
:101E20003F632730310509F480622091406330918F
:101E300041632730310509F4806420914263309179
:101E400043632730310509F4806808958091386331
:101E5000909139630B9711F080E001C081E02091EF
:101E60003A6330913B632B30310509F48260209155
:101E70003C6330913D632B30310509F4886020913B
:101E80003E6330913F632B30310509F4806220912D
:101E90004063309141632B30310509F48064209117
:101EA0004263309143632B30310509F48068089513
:101EB0008091386390913963049711F080E001C0FC
:101EC00081E020913A6330913B632430310509F47D
:101ED000826020913C6330913D632430310509F4E8
:101EE000886020913E6330913F632430310509F4CE
:101EF000806220914063309141632430310509F4C0
:101F0000806420914263309143632430310509F4A9
:101F1000806808958091386390913963059711F036
:101F200080E001C081E020913A6330913B6325302D
:101F3000310511F4826004C02630310509F4846053
:101F400020913C6330913D632530310511F4886068
:101F500004C02630310509F4806120913E63309140
:101F60003F632530310509F4806220914063309150
:101F700041632530310509F480642091426330913A
:101F800043632530310509F48068089580913863F2
:101F9000909139630C9711F080E001C081E02091AD
:101FA0003A6330913B632C30310509F48260209113
:101FB0003C6330913D632C30310509F488602091F9
:101FC0003E6330913F632C30310509F480622091EB
:101FD0004063309141632C30310509F480642091D5
:101FE0004263309143632C30310509F480680895D1
:101FF00080913863909139630D9711F080E001C0B2
:1020000081E020913A6330913B632D30310509F432
:10201000826020913C6330913D632D30310509F49D
:10202000886020913E6330913F632D30310509F483
:10203000806220914063309141632D30310509F475
:10204000806420914263309143632D30310509F45F
:10205000806808958091386390913963039711F0F7
:1020600080E001C081E020913A6330913B632330EE
:10207000310509F4826020913C6330913D63233047
:10208000310509F4886020913E6330913F6323302D
:10209000310509F48062209140633091416323301F
:1020A000310509F480642091426330914363233009
:1020B000310509F4806808958091386390913963FF
:1020C000089711F080E001C081E020913A633091DF
:1020D0003B632830310509F4826020913C633091E4
:1020E0003D632830310509F4886020913E633091CA
:1020F0003F632830310509F48062209140633091BC
:1021000041632830310509F48064209142633091A5
:1021100043632830310509F480680895809138635D
:1021200090913963099711F080E001C081E020911E
:102130003A6330913B632930310509F48260209184
:102140003C6330913D632930310509F4886020916A
:102150003E6330913F632930310509F4806220915C
:102160004063309141632930310509F48064209146
:102170004263309143632930310509F48068089542
:1021800081E080930A0680910D0680FFFCCFE0E09D
:10219000F6E081E085878089918908951F920F92EA
:1021A0000FB60F92112484E08093660480918E0B09
:1021B00080FFFCCF1092800B80918E0B80FFFCCFB4
:1021C00060E082E99BE00E948223E0E6F4E088E19F
:1021D000868380E4868380E8858388E08093A604F4
:1021E0008091010180FDFCCF60E080E091E00E94E1
:1021F000822361E080E690E00E9482238091650066
:1022000082FFFCCF80E098E00197F1F780E88093AF
:102210006704F8CF80934409809143098823E4F749
:10222000809144090895CF93DF93CDB7DEB76497CB
:10223000CDBFDEBF50918762552309F480C080E096
:1022400090E889879A878FEF9FE78B879C871D820D
:102250001E828FEF9FEF8F839887198A1A8A40E03A
:1022600050C0FC012DE0429FE00DF11D1124EE0F46
:10227000FF1FE953FF49208131816F81788526173F
:10228000370710F42F8338876D817E8162177307BB
:1022900010F42D833E83019602C080E090E08630EA
:1022A0009105FCF280E01CC09DE0499FF0011124E3
:1022B000E80FF11D3896EE0FFF1FE953FF4920810B
:1022C00031816B857C852617370714F42B873C8773
:1022D00069857A856217730714F429873A878F5FB7
:1022E000823010F32AE1429FF0011124E953FF49A3
:1022F00085899A89892B8A8B86899989892B898BEB
:102300004F5F451750F280914764909148646AE0AE
:1023100070E00E94E0226F87788B0E9497036983A8
:102320007A838B839C83809187628B8B84E1FE010F
:102330003196A8E8B2E601900D928A95E1F764968D
:10234000CDBFDEBFDF91CF910895CF93DF93CDB79F
:10235000DEB76497CDBFDEBF50914760552309F4C7
:1023600080C080E090E889879A878FEF9FE78B870E
:102370009C871D821E828FEF9FEF8F839887198A1B
:102380001A8A40E050C0FC012DE0429FE00DF11D93
:102390001124EE0FFF1FE456FD49208131816F812A
:1023A00078852617370710F42F8338876D817E8153
:1023B0006217730710F42D833E83019602C080E0FC
:1023C00090E086309105FCF280E01CC09DE0499FC2
:1023D000F0011124E80FF11D3896EE0FFF1FE456AF
:1023E000FD49208131816B857C852617370714F4E0
:1023F0002B873C8769857A856217730714F42987D0
:102400003A878F5F823010F32AE1429FF001112456
:10241000E456FD4985899A89892B8A8B8689998911
:10242000892B898B4F5F451750F2809145609091C1
:1024300046608F87988B8091416090914260A09117
:102440004360B091446089839A83AB83BC835B8B88
:1024500084E1FE013196A8E8B2E601900D928A95DA
:10246000E1F76496CDBFDEBFDF91CF9108958F92E3
:102470009F92BF92CF92DF92EF92FF920F931F93A2
:10248000CF93DF9380919C6081110FC0809188620F
:1024900090918962A0918A62B0918B620397A105A5
:1024A000B10518F081E080939C600E94B60E082F61
:1024B0000E946A0ED82E0E94900EC82F80919A62B8
:1024C000882399F080919C608823A1F0802F0E943E
:1024D000070D182F6D2D0E94C90DD82F0E94DB0CFF
:1024E000B82E0E94720DC82E09C0D0E0C12C10E099
:1024F000B12C04C0D0E0C12C10E0B12C80919B60C5
:1025000081110CC0DD2051F0CC2341F081E080939B
:102510009B60109248601092496006C0882321F0A9
:10252000C11102C010929B60112349F08091486054
:10253000909149608D7F809348609093496080912D
:102540009A62882349F080919C60882341F0812F12
:102550000E94DC0B7C0105C0E12CF12C02C0E12CB7
:10256000F12CE114F10439F18091486090914960B7
:102570009701282B392B82179307E9F020911263DA
:102580003091136340E050E06091976070919860E3
:102590008091996090919A600E94F11E8823A9F021
:1025A00080914860909149608E299F29809348606E
:1025B000909349600AC00E94E61E609397607093F2
:1025C00098608093996090939A6080919A62882332
:1025D00029F090919C60992319F003C0D0E001C0CC
:1025E000D0E02091486030914960232B31F488235A
:1025F00021F080919C60811106C01092966010922B
:10260000956010E052C001110CC0DD2051F0CC23C8
:1026100041F080919560811104C081E080939560C4
:1026200010E0011102C0D11005C0809195608111A8
:102630001092956080919560811104C0111102C0C3
:10264000D230C1F480919660811109C0EF2821F049
:102650001092956010E003C081E0809396600E9424
:10266000E61E609391607093926080939360909364
:1026700094601BC0809196608823B9F020911A6302
:1026800030911B63A8EEB3E00E941C239B01AC01B8
:10269000609191607091926080919360909194604C
:1026A0000E94F11E811110929660A895809196600B
:1026B000882309F4D7C0809190609FEF980F9E3FC8
:1026C00068F08091010180FDFAC065E080E091E052
:1026D0000E94822381E080939060F1C08130C1F438
:1026E0008091010180FDEBC084E08093650483EA62
:1026F0000E94A40A0E94E61E60938C6070938D6015
:1027000080938E6090938F6082E080939060D7C0BA
:10271000823021F52091E0623091E16240E050E0AA
:1027200060918C6070918D6080918E6090918F60CF
:102730000E94F11E882309F4C2C088E080936504DA
:102740000E94E61E60938C6070938D6080938E6013
:1027500090938F6083E080939060B1C0833021F5C7
:102760002091E2623091E36240E050E060918C6041
:1027700070918D6080918E6090918F600E94F11EAB
:10278000882309F49CC080E1809365040E94E61EC2
:1027900060938C6070938D6080938E6090938F6057
:1027A00084E0809390608BC0843009F088C02091D1
:1027B000E4623091E56240E050E060918C6070919D
:1027C0008D6080918E6090918F600E94F11E8823B1
:1027D00009F475C088E08093660460E482E99BE0B8
:1027E0000E9482230F2EF0E88F2EFBE09F2EF02D0B
:1027F000F401118280E48283609116637091176303
:102800006F5F7F4F80E29EE40E94CC227B01CB0170
:10281000019786A797A7A0911863B09119639B01B0
:102820000E941C2324E630E040E050E00E94F422A5
:10283000E21AF30AF401E4A6F5A680918E0B80FF5C
:10284000FCCF81E08093800B0E94E61E60938C6039
:1028500070938D6080938E6090938F6080E88093FA
:1028600090602DC084E08093660480918E0B80FF81
:10287000FCCF1092800B80918E0B80FFFCCF60E02C
:1028800082E99BE00E94822388E180936604809124
:1028900090608F3F61F48091010180FD10C060E085
:1028A00080E091E00E9482231092906008C088230B
:1028B00031F080E00E94A40A8FEF809390608091B5
:1028C0009660811144C1002309F441C18091906058
:1028D00081113DC180919C60811121C038C120913E
:1028E0003F60309140602D3A3E4D51F42AE1829F85
:1028F000F0011124E456FD49948991FD0BC00DC0EF
:102900009AE1899FF0011124E953FF49948991FDCF
:1029100003C003C041E001C041E08F5F02C080E01E
:1029200040E090919A628917D0F2411106C120913E
:102930002E6330912F63A8EEB3E00E941C239B010D
:10294000AC01609188607091896080918A609091FB
:102950008B600E94F11E8111EAC0F9C020913F6096
:10296000309140602D3A3E4D09F062C04C2F50E04E
:102970009AE1949FF001959FF00D1124E456FD49D2
:10298000218DE82FF0E030E0082E02C03595279524
:102990000A94E2F720FF26C09DE0949FD001959F06
:1029A000B00D1124AE0FBF1FAA0FBB1FA456BD4907
:1029B0004D915C91A0918E62B0918F6220912A63BB
:1029C00030912B632A0F3B1F2417350708F091C065
:1029D00021E030E0082E02C0220F331F0A94E2F7F4
:1029E000622B87C09DE0949FD001959FB00D11246C
:1029F000AE0FBF1FAA0FBB1FA456BD494D915C91DE
:102A0000A0918E62B0918F622091286330912963EA
:102A10002A0F3B1F4217530708F46BC021E030E038
:102A2000082E02C0220F331F0A94E2F7622B61C006
:102A3000AC2FB0E09AE19A9FF0019B9FF00D11241A
:102A4000E953FF49218D482F50E030E0082E02C0A5
:102A5000359527950A94E2F720FF26C09DE09A9FBE
:102A6000F0019B9FF00D1124E40FF51FEE0FFF1FE7
:102A7000E953FF490190F081E02DA0918E62B09161
:102A80008F6220912A6330912B632A0F3B1F2E17F0
:102A90003F0778F521E030E0082E02C0220F331FF7
:102AA0000A94E2F7622B25C09DE09A9FF0019B9F5C
:102AB000F00D1124E40FF51FEE0FFF1FE953FF493E
:102AC0000190F081E02DA0918E62B0918F622091F3
:102AD0002863309129632A0F3B1FE217F30748F060
:102AE00021E030E0082E02C0220F331F0A94E2F7E3
:102AF000622B8F5F02C080E060E0863008F42ECF4A
:102B000080913F60909140608D3A9E4D39F04091A8
:102B10002C6381E08C0F0E94B10307C02AE1C29FA1
:102B2000F0011124E456FD49618FCF5F01C0C0E080
:102B300080919A62C817F8F20AC00E94E61E60935C
:102B400088607093896080938A6090938B60809195
:102B50009060803811F50E94260FC82F112319F0BC
:102B60000E94F40EC82BBB2039F080919560882319
:102B700019F00E94C60FC82BCC2039F080919560C7
:102B8000882319F00E94F80FC82B80919560882344
:102B900029F00E948E10C82B01C0C0E0002319F05C
:102BA0000E945C10C82B8FEF8D0F823018F40E94AA
:102BB0008A0FC82BD23039F480919060803819F494
:102BC0000E94580FC82B8091486090914960892BD2
:102BD00021F480919A62811102C0D11004C08091C9
:102BE0009C60811103C00E942A10C82B80919D60B7
:102BF000C81751F0C0939D60409126636091246393
:102C0000242F8C2F0E94950A81E0DF91CF911F9194
:102C10000F91FF90EF90DF90CF90BF909F908F909B
:102C2000089580E094E024E8FC012483C0E4D4E02B
:102C300021E02C83A0E6B4E014961C92149740EA9D
:102C400054E0FA01148234EDFC01308328833CED1A
:102C50003C933AE0FA013083FC01108A118A128A0F
:102C6000138A148A158A168A178A188A198A38E0EC
:102C70003A8B3B8B1C8A1D8A1E8A1F8A50961C9297
:102C8000509751961C92519752961C925297539678
:102C90001C92539754961C92549755961C92559794
:102CA00056961C92569757961C925797FA01108A7F
:102CB000118A128A138A148A158A168A178AFC01C5
:102CC00022872A871A962C93FA012287E0EEF5E0F4
:102CD000158284E0818782E08683828360E288E6D1
:102CE00090E00E9482238091650081FFFCCF61E823
:102CF00083E690E00E94822361E082E690E00E94F9
:102D0000822369E280E890E00E94822363E080E60B
:102D100090E00E9482238091650084FFFCCF0E9496
:102D20001B08E0E0FBE080E29EE48487958781E079
:102D300085838083E0E1FBE011822FEF3FEF248762
:102D400035871286138685838091A80485FF0BC082
:102D5000E0EAF4E0848182608483E0E6F4E0848148
:102D60008F7784830AC0E0EAF4E084818D7F8483D6
:102D7000E0E6F4E08481806884830E941F1FFFE7FF
:102D80002AE186E0F15020408040E1F700C00000D9
:102D900080E4809365049FEFE3E2F4EF9150E0401C
:102DA000F040E1F700C0000095E09093B000C0EA69
:102DB000D4E08A89887F8A8B8A8984608A8B8C890F
:102DC000887F8C8B8C8984608C8B8A89877F8A8BA7
:102DD0008C89877F8C8B00E016E081E0F80182838C
:102DE00086E0818390836894FF24F3F8FD8282E17A
:102DF00080878FE493EC0197F1F700C000000E94F8
:102E0000C01084E1F80180878FE493EC0197F1F71B
:102E100000C000000E94C010FE820E94210A83E3CD
:102E20008093400980E090E001C001968F3F9105BA
:102E3000E1F3D8F3C0E0D4E010E81E8383E00E9401
:102E40000A118EE00E940A1180E00E940A111D837F
:102E50001E8383E00E940A118FE00E940A1180E025
:102E60000E940A111D831E8382E00E940A118FE0D6
:102E70000E940A1183E20E940A111D83E0E2F8E039
:102E800083E890E08087918780EC868385818068E5
:102E90008583E0E0F8E08581806885837894A0E010
:102EA000BBE08C9115968C918681806886838581A4
:102EB00080688583E0EAF4E084818D7F848380915B
:102EC0002663909127634FEF489F9001499F300DF3
:102ED00011243695279536952795ABE7B4E10E94E6
:102EE0001C239695879560912463282F482F80E0B6
:102EF0000E94950A80E00E94A40A0E94A0036FE24B
:102F00008FEE0E94A7030E940B040E94C40A0E9435
:102F1000001E80913F60909140608D3A9E4D19F463
:102F20000E94A51106C010923F60109240600E945E
:102F300013110E9437120E94AA08E5CF813610F0C3
:102F400087550895813410F087530895805308956C
:102F50008A3010F4805D0895895C08951F920F9265
:102F60000FB60F9211241F932F933F934F935F93AC
:102F70006F937F938F939F93AF93BF93CF93DF9381
:102F8000EF93FF9380E8809365048091B664873067
:102F900009F44AC028F4853069F08630D1F088C041
:102FA0008A3009F46DC08B3009F475C0893009F09E
:102FB0007FC057C0E0E0F8E08AE3828384818064C8
:102FC000848310929F6010929E6086E08093B66426
:102FD00076C0E0919F608091A060E81313C080915B
:102FE0009E60819580939E6082958F700E94A81745
:102FF000E0E0F8E0828384818064848389E08093C8
:10300000B6645DC0F0E0E954FB49808182958F7021
:103010000E94A817E0E0F8E08283848180648483C2
:1030200087E08093B6644BC010919F60C12FD0E0C1
:10303000C954DB4988818F700E94A817E0E0F8E04E
:1030400082838481806484831F5F10939F60888162
:1030500090919E60890F80939E6086E08093B66415
:103060002EC080919E608F700E94A817E0E0F8E06B
:1030700082838481806484838AE08093B6641FC0E5
:10308000E0E0F8E08DE082838481806484838BE0DB
:103090008093B66414C0E0E0F8E08AE08283848123
:1030A0008064848385818F7D85831092B66407C098
:1030B000E0E0F8E085818F7D85831092B66480E83A
:1030C00080936604FF91EF91DF91CF91BF91AF9113
:1030D0009F918F917F916F915F914F913F912F9130
:1030E0001F910F900FBE0F901F9018951F920F9277
:1030F0000FB60F9211240F931F932F933F934F936B
:103100005F936F937F938F939F93AF93BF93CF936F
:10311000EF93FF9380E880936504E0E0F8E081811D
:10312000C08182FF04C080E88093660496C086FF59
:1031300004C080E88093660490C08091050885FFF4
:1031400004C080E88093660488C08091B6648430AF
:1031500020F080E88093660480C0CA3359F410924E
:10316000A0601092B66581E08093B66480E8809399
:10317000660473C0CD3079F48091B664813021F457
:103180008091A060833018F41092B66463C083E02D
:103190008093B6645FC0CA30B9F48091B66483305E
:1031A00019F01092B66456C08091B665882319F064
:1031B0001092B6644FC08091A06081508093A0604F
:1031C00084E08093B66446C08C2F90E00E94362342
:1031D000892B09F43FC08091B6648130A9F4009135
:1031E000A0600F3F19F41092B66434C010E08C2F29
:1031F0000E949E17F801E954FB498295807F8083E5
:1032000082E08093B66426C08091B664823011F566
:103210008C2F0E949E172091A060E22FF0E0E954CD
:10322000FB499081892B8083211109C03091B764BB
:103230009091A160391719F01092B6640BC02F5FFE
:103240002093A0609091B665890F8093B66581E068
:103250008093B66480E880936604FF91EF91CF91EC
:10326000BF91AF919F918F917F916F915F914F919E
:103270003F912F911F910F910F900FBE0F901F90B4
:1032800018958430910559F08630910571F00397B7
:1032900081F4662381F00E94A00380E008956623F4
:1032A00061F00E94A30880E0089560933E6080E092
:1032B000089582E0089580E0089580E00895CF9316
:1032C000DF93EB018430910551F08630910581F058
:1032D000039799F40E94A403888380E00FC00E94A2
:1032E000A70821E0892B09F420E0288380E006C0AC
:1032F00080913E60888380E001C082E0DF91CF91C1
:1033000008959F92AF92BF92CF92DF92EF92FF9279
:103310000F931F93CF93DF931F92CDB7DEB78C012E
:103320006B01693E83E0780708F043C0CB01079644
:10333000969587959695879596958795A82E8093CF
:10334000B9648D5F8093A0600F2EF3E09F2EF02D67
:103350002CC0E92CF12CF701E954FB491082B12C67
:103360001FC0C114D104F9F0BE016F5F7F4FC801C7
:103370000E945F1981111EC0898190E00B2C02C050
:10338000880F991F0A94E2F7F701E954FB499081ED
:10339000892B80830F5F1F4F81E0C81AD108B39437
:1033A00087E08B15F0F6AA949394A110D2CF80E019
:1033B00001C082E00F90DF91CF911F910F91FF909C
:1033C000EF90DF90CF90BF90AF909F9008956E37B1
:1033D000710508F085C0262F220F2093B9642D5F58
:1033E0002093A06023E076C08D339105B0F4E22FE6
:1033F000F0E0DC01AA0FBB1FA053BD4911963C9120
:103400001197E954FB493083E1E0E20FF0E02E5FD1
:103410003C91E954FB4930835AC0883E33E093071E
:1034200089F4E22FF0E030913F6040914060E95430
:10343000FB494083E1E0E20FF0E02E5FE954FB49F5
:10344000308345C0893E33E0930779F4E22FF0E002
:10345000E954FB491082E1E0E20FF0E02E5FE9540D
:10346000FB4930914760308332C08A3E33E0930796
:1034700089F4E22FF0E03091456040914660E954D4
:10348000FB494083E1E0E20FF0E02E5FE954FB49A5
:1034900030831DC0AC014B5E53404A31510510F5DD
:1034A000E22FF0E0DC01AB5EB348AA0FBB1FA456CD
:1034B000BD4911963C911197E954FB493083E1E0F5
:1034C000E20FF0E02E5F3C91E954FB4930836150FC
:1034D000710901966115710509F086CF80E00895A4
:1034E00082E0089582E00895EF92FF920F931F9378
:1034F000CF93DF93AC01FB016E37710508F0DCC0A0
:103500008091BD6490E09B01220F331F281739077B
:1035100009F0D4C086E08093A060D0E0C7E0B2C0DC
:103520004D335105C0F4AC2FB0E0A954BB498C9188
:1035300090E0982F8827A1E0AC0FB0E0CE5FA954AF
:10354000BB492C91822BDA01AA0FBB1FA053BD49A6
:103550008D939C9394C0483E83E05807A9F4AC2F08
:10356000B0E0A954BB498C9190E0982F8827A1E046
:10357000AC0FB0E0CE5FA954BB492C91822B809355
:103580003F60909340607BC0493E83E05807D1F490
:10359000AC2FB0E0A954BB498C9190E0982F8827BC
:1035A000A1E0AC0FB0E0CE5FA954BB492C91822BB7
:1035B0008330910520F082E08093476060C0809363
:1035C00047605DC04A3E83E05807A9F4AC2FB0E0E5
:1035D000A954BB498C9190E0982F8827A1E0AC0FAB
:1035E000B0E0CE5FA954BB492C91822B80934560FB
:1035F0009093466044C08A010B5E13400A31110566
:1036000008F05EC0AC2FB0E0A954BB498C9190E0AB
:10361000982F8827A1E0AC0FB0E0CE5FA954BB493A
:103620002C917C01E22A9801A5ECBEE40E941C23A7
:1036300096958795969587956DE0689F9001699F0F
:10364000300D1124C801821B930B0A9770F08091F2
:103650003E608823A1F0DA01AB5EB348AA0FBB1F1E
:10366000A456BD49ED92FC920AC0DA01AB5EB348A4
:10367000AA0FBB1FA456BD49ED92FC92D1E0319731
:103680004F5F5F4F309709F04BCFDD23D9F080912A
:10369000416090914260A0914360B0914460019676
:1036A000A11DB11D8093416090934260A09343603F
:1036B000B093446080E007C082E005C082E003C0B0
:1036C00082E001C080E0DF91CF911F910F91FF90C8
:1036D000EF900895CF92DF92EF92FF920F931F9396
:1036E000CF93DF93EC017B016E37710508F066C262
:1036F000862F880F8093B9648D5F8093A06013E05C
:1037000057C2C336D10589F4E12FF0E0E954FB49F3
:103710001082CC24C394C10ED12C1E5F0E940804D9
:10372000F601E954FB4980833FC2CE0184569109DA
:103730008034964008F083C0FE01F695E795F69533
:10374000E7959F01ABE7B4E10E941C23AC015695BD
:1037500047950FEF040F24E6249FC001259F900D8D
:103760001124BE01681B790B862F611110C0802FB8
:103770000E94E103E12FF0E0E954FB499083E1E08E
:10378000E10FF0E01E5FE954FB4980830DC26150F8
:10379000663080F4802F0E94EB03E12FF0E0E954C3
:1037A000FB499083E1E0E10FF0E01E5FE954FB4943
:1037B0008083FAC169EF680F623080F4802F0E9425
:1037C000F903E12FF0E0E954FB499083E1E0E10FD8
:1037D000F0E01E5FE954FB498083E6C18930B1F413
:1037E000C12ED12C802F0E94BD03F601E954FB4964
:1037F0008083CC24C394C10ED12C1E5F802F0E94E5
:10380000C603F601E954FB498083CEC18A3009F032
:10381000D7C1C12ED12C802F0E94CF03F601E954CD
:10382000FB498083CC24C394C10ED12C1E5F802F12
:103830000E94D803F601E954FB498083B5C1C03129
:1038400087E2D80779F4E12FF0E0E954FB491082D0
:10385000E1E0E10FF0E01E5F80914264E954FB4932
:103860008083A2C1C13127E2D207A1F4E12FF0E0A9
:10387000ADE3B4E616968C91169717969C91E95491
:10388000FB499083E1E0E10FF0E01E5FE954FB4962
:1038900080838AC1C23187E2D807A1F4E12FF0E02A
:1038A000ADE3B4E618968C91189719969C91E9545B
:1038B000FB499083E1E0E10FF0E01E5FE954FB4932
:1038C000808372C1C33127E2D207A1F4E12FF0E077
:1038D000ADE3B4E61A968C911A971B969C91E95425
:1038E000FB499083E1E0E10FF0E01E5FE954FB4902
:1038F00080835AC1C43187E2D807A1F4E12FF0E0F8
:10390000ADE3B4E61C968C911C971D969C91E954EE
:10391000FB499083E1E0E10FF0E01E5FE954FB49D1
:10392000808342C1C53127E2D207A1F4E12FF0E044
:10393000ADE3B4E61E968C911E971F969C91E954B8
:10394000FB499083E1E0E10FF0E01E5FE954FB49A1
:1039500080832AC1C63187E2D807A1F4E12FF0E0C5
:10396000ADE3B4E650968C91509751969C91E954F2
:10397000FB499083E1E0E10FF0E01E5FE954FB4971
:10398000808312C1C73127E2D207A1F4E12FF0E012
:10399000ADE3B4E652968C91529753969C91E954BC
:1039A000FB499083E1E0E10FF0E01E5FE954FB4941
:1039B0008083FAC0C83187E2D807A1F4E12FF0E094
:1039C000ADE3B4E655968C91559756969C91E95483
:1039D000FB499083E1E0E10FF0E01E5FE954FB4911
:1039E0008083E2C0C93127E2D207A1F4E12FF0E0E1
:1039F000ADE3B4E657968C91579758969C91E9544D
:103A0000FB499083E1E0E10FF0E01E5FE954FB49E0
:103A10008083CAC0CA3187E2D807A1F4E12FF0E061
:103A2000ADE3B4E659968C9159975A969C91E95416
:103A3000FB499083E1E0E10FF0E01E5FE954FB49B0
:103A40008083B2C0CB3127E2D207A1F4E12FF0E0AE
:103A5000ADE3B4E65B968C915B975C969C91E954E0
:103A6000FB499083E1E0E10FF0E01E5FE954FB4980
:103A700080839AC0CC3187E2D807A1F4E12FF0E02F
:103A8000ADE3B4E65D968C915D975E969C91E954AA
:103A9000FB499083E1E0E10FF0E01E5FE954FB4950
:103AA000808382C0CD3127E2D207A1F4E12FF0E07C
:103AB000ADE3B4E65F968C915F9790969C91E95444
:103AC000FB499083E1E0E10FF0E01E5FE954FB4920
:103AD00080836AC0CE3187E2D807A1F4E12FF0E0FD
:103AE000ADE3B4E691968C91919792969C91E954AE
:103AF000FB499083E1E0E10FF0E01E5FE954FB49F0
:103B0000808352C0CF3127E2D207A1F4E12FF0E049
:103B1000ADE3B4E693968C91939794969C91E95477
:103B2000FB499083E1E0E10FF0E01E5FE954FB49BF
:103B300080833AC0C03287E2D80779F4E12FF0E001
:103B4000E954FB491082E1E0E10FF0E01E5F809153
:103B50007264E954FB49808327C0C13227E2D2074F
:103B600079F4E12FF0E0E954FB491082E1E0E10F44
:103B7000F0E01E5F80917664E954FB49808314C0B5
:103B8000C23287E2D807F1F4E12FF0E0809148607B
:103B900090914960E954FB499083E1E0E10FF0E046
:103BA0001E5FE954FB49808321E0E21AF108219667
:103BB000E114F10409F0A5CD80E005C082E003C066
:103BC00082E001C082E0DF91CF911F910F91FF90C1
:103BD000EF90DF90CF900895882349F0E7EBF4E66B
:103BE000918190689183828383E08093A06085E0D7
:103BF0008093B664E0E0F8E0858180628583089573
:103C00008091B664843009F0A4C08091B864843097
:103C100009F44EC030F48130A9F1833009F45EC05C
:103C200087C0853021F0803109F46DC081C080915A
:103C3000A060863009F07EC08091BB648F3F81F424
:103C40009091BC6491110CC0E7EBF4E6828190E0A6
:103C5000982F8827238161E0822B0E94411977C029
:103C600081116AC08091BC64811168C0E7EBF4E601
:103C7000828190E0982F8827238160E0822B0E9428
:103C8000411965C08091A060863009F059C0E7EB0A
:103C9000F4E6648170E0762F66278581682B828147
:103CA00090E0982F88272381822B0E9481194FC092
:103CB0008091A060863009F045C0E7EBF4E66481AE
:103CC00070E0762F66278581682B828190E0982F9F
:103CD00088272381822B0E946A1B39C08091A060B3
:103CE000863091F5E7EBF4E6648170E0762F662785
:103CF0008581682B828190E0982F88272381822BF1
:103D00000E94E71924C08091A0608930F8F0E7EBA9
:103D1000F4E6648170E0762F66278581682B8281C6
:103D200090E0982F88272381822B0E94741A0FC05D
:103D300081E00DC083E00BC083E009C083E007C0D1
:103D400083E005C083E003C083E001C083E00E94FC
:103D5000EC1D08951F920F920FB60F9211242F930E
:103D60003F934F935F936F937F938F939F93AF9303
:103D7000BF93EF93FF9381E08093060B0E94F402C0
:103D80000E94850A8091A2609091A360A091A46096
:103D9000B091A5600196A11DB11D8093A260909382
:103DA000A360A093A460B093A560FF91EF91BF9131
:103DB000AF919F918F917F916F915F914F913F91C3
:103DC0002F910F900FBE0F901F901895F89460914F
:103DD000A2607091A3608091A4609091A560789496
:103DE00008958F929F92AF92BF92CF92DF92EF92FF
:103DF000FF924B015C0169017A010E94E61EDC0121
:103E0000CB0188199909AA09BB098C159D05AE0536
:103E1000BF0510F081E001C080E0FF90EF90DF90DF
:103E2000CF90BF90AF909F908F900895909104088D
:103E300095FFFCCF8093020880E090E00895E0E0D9
:103E4000F8E086EB92E08087918782E2878380E4C6
:103E5000868380E090E68093B9659093BA65089573
:103E60005058BB27AA270E94481F0C9463200E9429
:103E7000552038F00E945C2020F039F49F3F19F45F
:103E800026F40C9452200EF4E095E7FB0C944C20A1
:103E9000E92F0E94742058F3BA176207730784074A
:103EA000950720F079F4A6F50C9496200EF4E09591
:103EB0000B2EBA2FA02D0B01B90190010C01CA01E4
:103EC000A0011124FF27591B99F0593F50F4503E8F
:103ED00068F11A16F040A22F232F342F4427585F81
:103EE000F3CF469537952795A795F0405395C9F799
:103EF0007EF41F16BA0B620B730B840BBAF0915051
:103F0000A1F0FF0FBB1F661F771F881FC2F70EC0EF
:103F1000BA0F621F731F841F48F4879577956795C2
:103F2000B795F7959E3F08F0B0CF9395880F08F0AE
:103F30009927EE0F9795879508950E94B11F0C94CD
:103F400063200E945C2058F00E94552040F029F424
:103F50005F3F29F00C944C2051110C9497200C9445
:103F600052200E94742068F39923B1F3552391F3F2
:103F7000951B550BBB27AA2762177307840738F0D8
:103F80009F5F5F4F220F331F441FAA1FA9F335D035
:103F90000E2E3AF0E0E832D091505040E695001CE9
:103FA000CAF72BD0FE2F29D0660F771F881FBB1FA3
:103FB000261737074807AB07B0E809F0BB0B802D81
:103FC000BF01FF2793585F4F3AF09E3F510578F0AD
:103FD0000C944C200C9497205F3FE4F3983ED4F36C
:103FE000869577956795B795F7959F5FC9F7880F81
:103FF000911D9695879597F90895E1E0660F771FD3
:10400000881FBB1F621773078407BA0720F0621B63
:10401000730B840BBA0BEE1F88F7E0950895E894B4
:1040200009C097FB3EF490958095709561957F4F00
:104030008F4F9F4F9923A9F0F92F96E9BB279395AE
:10404000F695879577956795B795F111F8CFFAF4BE
:10405000BB0F11F460FF1BC06F5F7F4F8F4F9F4FEF
:1040600016C0882311F096E911C0772321F09EE84D
:10407000872F762F05C0662371F096E8862F70E0B3
:1040800060E02AF09A95660F771F881FDAF7880F8D
:104090009695879597F9089597F99F6780E870E05E
:1040A00060E008959FEF80EC089500240A941616AE
:1040B000170618060906089500240A941216130616
:1040C000140605060895092E0394000C11F48823A4
:1040D00052F0BB0F40F4BF2B11F460FF04C06F5FC0
:1040E0007F4F8F4F9F4F089557FD9058440F551F96
:1040F00059F05F3F71F04795880F97FB991F61F06A
:104100009F3F79F087950895121613061406551FE0
:10411000F2CF4695F1DF08C0161617061806991F4C
:10412000F1CF86957105610508940895E894BB2741
:1041300066277727CB0197F9089516F00C94212272
:104140000C94522068940C944C200E947C20A8F37C
:104150009923C1F3AEF3DF93CF931F930F93FF9295
:10416000C92FDD2788232AF02197660F771F881F24
:10417000DAF720E030E040E85FEB9FE3883920F099
:10418000803E38F021968F770E94311FE2ECF0E0FC
:1041900004C00E94311FEFEEF0E00E942F228B013D
:1041A000BE01EC01FB2E6F5771097595771F880BC7
:1041B000990B0E94112028E132E741E35FE30E945E
:1041C0003D21AF2D9801AE01FF900F911F91CF912E
:1041D000DF910E94481F0C9463200E947C20A8F16C
:1041E0009E57B0F1985160F039F1983070F5092E72
:1041F0009927660F771F881F991F0A94D1F71CC053
:10420000BB27993F4CF4B111B1E0B62B672F782F43
:104210008827985FB1F708C0869577956795B79519
:1042200008F4B1609395C1F7BB0F30F411F460FF4F
:1042300003C06F5F7F4F8F4F3EF4909580957095D0
:1042400061957F4F8F4F9F4F089568940C949720EE
:104250000C9496200E943D210C9463200E945520CE
:1042600038F00E945C2020F0952311F00C944C2033
:104270000C94522011240C9497200E94742070F307
:10428000959FC1F3950F50E0551F629FF001729FFB
:10429000BB27F00DB11D639FAA27F00DB11DAA1F0A
:1042A000649F6627B00DA11D661F829F2227B00D57
:1042B000A11D621F739FB00DA11D621F839FA00DE2
:1042C000611D221F749F3327A00D611D231F849F32
:1042D000600D211D822F762F6A2F11249F57504089
:1042E0009AF0F1F088234AF0EE0FFF1FBB1F661F04
:1042F000771F881F91505040A9F79E3F510580F0CD
:104300000C944C200C9497205F3FE4F3983ED4F338
:10431000869577956795B795F795E7959F5FC1F770
:10432000FE2B880F911D9695879597F90895FA01B0
:10433000EE0FFF1F309621053105A1F161157105C2
:1043400061F48038BFE39B0749F168949038810598
:1043500061F08038BFEF9B0741F099234AF5FF3F9A
:10436000E1053105210519F1E8940894E795D90193
:10437000AA2329F4AB2FBE2FF85FD0F310C0FF5F44
:1043800070F4A695E0F7F73950F019F0FF3A38F4D9
:104390009F779F930DD00F9007FC9058089546F09B
:1043A0000C94522060E070E080E89FE308954FE7AE
:1043B0009F775F934F933F932F930E94A5202F9158
:1043C0003F914F915F910E942A210C94EF2129F493
:1043D00016F00C944C200C9496200C9452200E94C1
:1043E0007C20A8F39638A0F707F80F92E8942BE307
:1043F0003AEA48EB5FE70E9440210F920F920F923A
:104400004DB75EB70F920E949822ECE1F1E00E9456
:104410002F224F915F91EF91FF91E595EE1FFF1FC6
:1044200049F0FE57E0684427EE0F441FFA95E1F784
:104430004195550B0E9462220F9007FE0C94562264
:1044400008959F3F31F0915020F4879577956795B7
:10445000B795880F911D9695879597F90895DF93E5
:10446000CF931F930F93FF92EF92DF927B018C010A
:10447000689406C0DA2EEF010E943D21FE01E89407
:10448000A5912591359145915591A6F3EF010E9493
:10449000481FFE019701A801DA9469F7DF90EF90B9
:1044A000FF900F911F91CF91DF9108959B01AC0177
:1044B00060E070E080E89FE30C949D1F0C944C201A
:1044C0000C9421220E947C20D8F39923C9F3940FE5
:1044D000511DA3F39150504094F059F0882332F0CD
:1044E000660F771F881F91505040C1F79E3F5105BE
:1044F0002CF7880F911D9695879597F908955F3F42
:10450000ACF0983E9CF0BB27869577956795B7955C
:1045100008F4B1609395C1F7BB0F58F711F460FF31
:10452000E8CF6F5F7F4F8F4F9F4FE3CF0C94972063
:10453000FA01DC01AA0FBB1F9B01AC01BF5728F495
:10454000222733274427507820C0B75190F4AB2F4F
:104550000024469537952795011CA395D2F300209A
:1045600071F0220F331F441FB395DAF30ED00C9471
:10457000301F61307105A0E88A07B94630F49B010D
:10458000AC016627772788279078309621F0208322
:104590003183428353830895AA1BBB1B51E107C09B
:1045A000AA1FBB1FA617B70710F0A61BB70B881FC3
:1045B000991F5A95A9F780959095BC01CD01089552
:1045C00097FB072E16F4009407D077FD09D00E94C0
:1045D000CC2207FC05D03EF4909581959F4F08951D
:1045E000709561957F4F0895A1E21A2EAA1BBB1BFF
:1045F000FD010DC0AA1FBB1FEE1FFF1FA217B307AF
:10460000E407F50720F0A21BB30BE40BF50B661FC4
:10461000771F881F991F1A9469F760957095809588
:1046200090959B01AC01BD01CF010895EE0FFF1FD6
:104630000590F491E02D0994A29FB001B39FC001B1
:10464000A39F700D811D1124911DB29F700D811DBE
:104650001124911D08950E941C23A59F900DB49FC5
:10466000900DA49F800D911D1124089591110C941B
:104670004B2380538A5028F0865C80628156865096
:10468000B0F70895FB01DC0102C005900D92415086
:104690005040D8F7089599278827089560507C4E98
:1046A0000C94882303D0808199270895FC01E05061
:1046B000FC4E08950E945623808191810895262FF3
:1046C0000E9456230080021619F00E946B23019766
:1046D00001970895262FAF93BF93E0E0F0E1328178
:1046E00031FDFDCF3DE934BF33E13083DC01A05023
:1046F000BC4E2C933DE934BF20E020830196BF914E
:10470000AF910895DC0128ED209334006C93089557
:10471000FB01DC0102C001900D9241505040D8F7DE
:064720000895F894FFCF9C
:0E4726000000000200000000161F000000004E
:00000001FF
