:100000000C94B2000C94CF000C94CF000C94CF0051
:100010000C94CF000C94CF000C94CF000C94CF0024
:100020000C94CF000C94CF000C94CF000C94CF0014
:100030000C94CF000C94CF000C94FF030C94CF00D1
:100040000C94CF000C94CF000C9438030C94CF0088
:100050000C94CF000C94CF000C94CF000C94CF00E4
:100060000C94CF000C94CF000C9434050C94CF006A
:100070000C94CF000C94CF000C94CF000C94CF00C4
:100080000C94CF000C94CF000C94CF000C94CF00B4
:1000900067056E0575057C0583058A05910598053C
:1000A0009F05A605AD05B405BB05C205C9050080C1
:1000B00001FF03000000000000000000000000003D
:1000C0000000000000000000000000000000000030
:1000D000000000FFFFFFFFFFFFFFFFFFFFFFFFFF2D
:1000E000FFFFFFFFFFFFFF00FFFFFFFFFFFFFFFF1F
:1000F000FFFFFFFFFFFFFFFFFFFFFFFFFFFFFFFF10
:10010000FFFFFFFFFFFFFFFFFFFFFFFFFFFFFFFFFF
:10011000FFFFFFFFFFFFFFFFFFFFFFFFFFFFFFFFEF
:10012000FFFFFFFFFFFFFF00440108001E02080061
:100130001D0208001C0208001B0208001A02080029
:10014000190208001802080017020800110208002E
:10015000120208001402080010020800070208102A
:100160000701080011241FBECFEFCDBFDFE7DEBFC0
:1001700010E6A0E0B0E6E0E8FFE002C005900D92D6
:10018000AA37B107D9F721E6AAE7B0E601C01D9268
:10019000A937B207E1F70E9401060C94BE070C9440
:1001A00000001F93CF93DF9380E090E00E947907D7
:1001B000182F81E090E00E947907CFEFDFEFD12781
:1001C0000D2E0294902D9F709D272D2F2025220FFC
:1001D000207E9227202D2D27207F26950D2E000C86
:1001E000221FD695D695D695DF71D227DC27C92F49
:1001F000D8270D2E0294802D8F708D279D2F90254E
:10020000990F907E8927902D9D27907F96950D2E92
:10021000000C991FD695D695D695DF71D927DC2786
:10022000C82F4CE350E062E070E08DE390E60E945E
:10023000750730E021C0E32FF0E0E35CFF49208147
:10024000CE019227092E0294202D2F702927492FA5
:100250004025440F407E2427402D4927407F469566
:10026000092E000C441F9695969596959F7194279C
:100270009827822FEC013F5F3C33E8F28EE390E059
:100280000E9481071130B9F4C817D907B1F458C0DA
:10029000E82FF0E03196EE0FFF1FEE0FFF1FE0504A
:1002A000F04ADF01DF9620E030E52D933C9315AE58
:1002B00016AE8F5F03C080E001C080E0883040F35D
:1002C00080E090E580936360909364601092616039
:1002D000109262608093676090936860109265608E
:1002E0001092666080936B6090936C60109269606E
:1002F00010926A6020E030E120936F60309370606C
:1003000010926D6010926E602093736030937460F1
:10031000109271601092726026E636E22093776048
:10032000309378602EE030E02093756030937660F3
:1003300080933F609093406010923D6010923E60C9
:10034000DF91CF911F9108952F923F924F925F922C
:100350006F927F928F929F92AF92BF92CF92DF92D5
:10036000EF92FF920F931F93CF93DF938091816061
:1003700060918060861708F068C16A3708F065C12F
:10038000E82FF0E0DF01A050B04AAF0142555F4FC7
:100390008F0109571F49C0E036C020E6033C120711
:1003A000B1F4F8019081953C41F490913C609D3608
:1003B00021F195EC90933C6020C09D3629F49091FA
:1003C0003C60953CD1F418C010923C6016C0F0E639
:1003D000043C1F0720F090913C60953C71F43C91E7
:1003E000FA019491F8012081792F70953723292300
:1003F000932F922B9C9301C0C1E011964F5F5F4FEA
:100400000F5F1F4F8F5F861740F2CC2319F08DE6E8
:1004100080933C60E0E0F0E635A826A930E02F5F4D
:100420003F4F86A9843048F40F2EFFE02F2EF02D89
:100430006BE47CE480E090E008C00F2EFBE02F2E00
:10044000F02D64EB74EC84E090E040E050E00E941A
:100450002C07E901219700E010E6F801A7A94E0159
:10046000A12CB12CB0E0A50194010E946A07C12C17
:10047000D12C7601CA94A70196010E942C0729016C
:100480003A01F801A0ADB0E0A50194010E946A070D
:10049000A70196010E942C07E0E0FAE082E0858344
:1004A000C6ABD7AB44AE55AE22AF33AF2082848308
:1004B00030FE04C088E08093650403C088E0809328
:1004C0006604832D8670823071F018F4882331F031
:1004D0001DC0843069F0863091F018C084E08093AC
:1004E000660493E014C084E08093650493E00FC039
:1004F000E0E6F4E082898F77828B93E408C0E0E63F
:10050000F4E082898068828B93E401C093E0832DBC
:100510008871883069F018F4882331F01AC080316E
:1005200059F0883181F015C082E08093660411C0D3
:1005300082E0809365040DC0E0E6F4E081898F7766
:10054000818B906206C0E0E6F4E081898068818B4F
:1005500090629093010A35FE04C088E080934504C0
:1005600003C088E08093460436FE04C080E1809397
:10057000650403C080E180936604332024F480E2A4
:100580008093650403C080E280936604E0E0F0E6B7
:100590008381948184E0989F812D992711248093F1
:1005A000B20083819481002496958795079496954F
:1005B00087950794982F802D8093A2069093A30689
:1005C00093AD80918460981739F088EC80938560B2
:1005D00080913B608093846090913A6080918360C9
:1005E000981799F1E0E0F0E682AD8093836082ADE8
:1005F000833A31F580911260909113608037974172
:1006000038F488E08093A60483E0809339601DC0AD
:100610008091080482FF0DC088E08093A50488ECD7
:100620008093856084E18093866081E08093396067
:100630000CC088E08093A60482E08093396005C0F6
:1006400088E08093A60410923960DF91CF911F91CA
:100650000F91FF90EF90DF90CF90BF90AF909F9061
:100660008F907F906F905F904F903F902F90089564
:100670001F920F920FB60F9211242F933F934F9317
:100680005F936F937F938F939F93AF93BF93EF93FA
:10069000FF93CF93DF9300D0CDB7DEB780910B09E6
:1006A0008983898186FF39C0898180FF20C0E0E08D
:1006B000F9E085858A8381E08093826010927E6074
:1006C00010927D6010927C6080917B6080937A6054
:1006D00083E08287898181FF7DC089E7E0E0F0E6E1
:1006E000A0E0B1E601900D928A95E1F773C082E037
:1006F00080930A0980917C60882361F010927C606D
:1007000080917B608093816080917A60809380602B
:100710000E94A401109282605DC0898188230CF040
:1007200059C0898181FF1EC08981887121F0809123
:100730007D60811148C081E080937D6080917A6006
:10074000893710F010927A60E0917A6081E08E0F24
:1007500080937A60F0E0E050FF49808180930D093A
:1007600083E036C080910D098A8380917E60882362
:10077000D1F0E0917A60E93740F580917C60811199
:1007800007C0109281601092806081E080937C604D
:1007900081E08E0F80937A60F0E08A81E957FF490B
:1007A000808383E015C08A81893788F48A818093A9
:1007B0007B608A8180937A6081E080937E60109272
:1007C0007C6083E005C082E003C086E001C086E073
:1007D00080930A090F900F90DF91CF91FF91EF91D5
:1007E000BF91AF919F918F917F916F915F914F9149
:1007F0003F912F910F900FBE0F901F9018951F9251
:100800000F920FB60F9211248F939F9381E08093E4
:10081000060B809139608130C1F48091080482FD1B
:1008200011C080918660882331F08091866081506C
:10083000809386600AC088E08093A60482E080935B
:10084000396003C084E1809386608091856088234D
:1008500031F08091856081508093856016C088E07A
:100860008093A60493E09093010A9EE3909366041C
:10087000809346041092A2061092A30680913960DC
:10088000882319F084E0809339609F918F910F90B5
:100890000FBE0F901F901895E0E0F6E0108281E007
:1008A0008093B00092E490879EE1958311828083CB
:1008B00082870895A0E0B6E01C92677011966C9351
:1008C0001197E82FF0E0EE0FFF1FEE0FFF1F9F01C3
:1008D000295D3E4FC9010396FC01849115968C93C6
:1008E0001597C9010196FC01849118968C93C90152
:1008F0000296FC0184918093B000F90184918111EA
:1009000007C0E0E0F6E080E4818781E0808308951D
:10091000E0E0F6E0818781E2808308950F931F93E2
:10092000E82FF0E0EE0FFF1FEE0FFF1FE050F04A40
:1009300045AD56ADFF96A081B18120911006309152
:1009400011060E945407AA27BB278A01550F220BC4
:10095000330B800F911FA21FB31FBB2334F00097EE
:1009600021E0A207B10524F405C080E090E002C0B8
:100970008FEF9FEF1F910F9108950F931F93E82F13
:10098000F0E0EE0FFF1FEE0FFF1FE050F04A45AD05
:1009900056ADFF9620813181A0911006B0911106CD
:1009A0000E9463078B019C01992324F40150104895
:1009B0002F4F3F4FD901C801072E7FE0B595A7956E
:1009C000979587957A95D1F7702D052E000C660BBB
:1009D000770B840F951FA61FB71F811520E892077C
:1009E0002FEFA207B2073CF0811520E89207A1057E
:1009F000B10524F405C080E090E802C08FEF9FE7C6
:100A00001F910F910895E0E0F1E126813781A481E3
:100A1000B581809110069091110628173907F0F0E2
:100A2000281B390B0E945407DC01CB01985FAF4FA4
:100A3000BF4F072E7CE0B695A795979587957A9539
:100A4000D1F7702DBC016151714060382FEF7207F2
:100A50003CF06038710534F4862F089580E80895DD
:100A600080E808958FE708951F920F920FB60F92B6
:100A700011242F933F934F935F936F937F938F93A3
:100A80009F93AF93BF93EF93FF93E0E0F6E08085F1
:100A900091E09587823471F40E940305809305608C
:100AA00010927F6067E080E00E945A0481E08093AA
:100AB0000A0696C080917F60482F50E04F30510564
:100AC00008F06DC0FA01E85BFF4F0C944E070E94DE
:100AD0008E04809308609093096061C00E948E0428
:100AE00080931560909316605AC00E948E04809384
:100AF00017609093186053C00E948E048093196011
:100B000090931A604CC00E948E0480931B60909357
:100B10001C6045C00E948E0480931D6090931E60EF
:100B20003EC00E948E0480931F609093206037C067
:100B30000E948E04809321609093226030C00E94B6
:100B40008E04809323609093246029C00E948E04B9
:100B5000809306609093076022C00E948E04809369
:100B60000C6090930D601BC00E948E0480931260F5
:100B70009093136014C00E948E0480930E60909333
:100B80000F600DC00E948E048093106090931160DE
:100B900006C00E94BD0480930A6090930B60809110
:100BA0007F608E3050F48F5F80937F6067E00E949B
:100BB0005A0481E080930A0613C0809112609091DC
:100BC00013608037974150F480913960813031F45F
:100BD00088E08093A60483E0809339600E944C04EF
:100BE000FF91EF91BF91AF919F918F917F916F9105
:100BF0005F914F913F912F910F900FBE0F901F90DB
:100C00001895E0E0F4E0148280E494E0DC011496AE
:100C10001C92C0E6D4E01C8260EA74E020E2DB01B2
:100C200014962C93108228E0DC012C933EE3388349
:100C300048E2DB014C9344E04387248747E0DC0132
:100C40001C964C9340EC4C8747E1DB011C964C937F
:100C5000138647EF4487DC011C962C933C8728EED3
:100C6000DB011C962C9321E02287DC011A962C9341
:100C70002A87DB011A962C9380898860808B818972
:100C80008860818BE0EEF5E083E08683878360E215
:100C900088E690E00E94AF078091650081FFFCCF5D
:100CA000E0E0FBE080E593EC8487958721E02583F5
:100CB00083E08083E0E0F0E617AA10AE93E696ABFF
:100CC000E0E0FAE0818344E35CE046A357A314A686
:100CD00015A612A613A69AE09083E0EBF0E012822C
:100CE000A0EAB6E012961D921C92139791E49C9391
:100CF00092E09083E0E0F6E094E0918395E09283C7
:100D000090E4938338E035839187908785872487A3
:100D1000E0E0F9E01082128280E2848781EE818730
:100D20000E94D10067E080E091E00E94AF077894D4
:100D30000E944C0480913C608D3609F078C02FEF02
:100D40003FEF81E03827032E0294802D8F70832798
:100D5000932F9025990F907E8927902D9327907F30
:100D60009695032E000C991F3695369536953F7152
:100D700039273227282F8FEF3827032E0294802D12
:100D80008F708327932F9025990F907E8927902D20
:100D90009327907F9695032E000C991F36953695D4
:100DA00036953F7139273227282F6901A89561E0D0
:100DB00080E090E00E948607A8956FEF81E090E0C8
:100DC0000E948607A8950DE310E66894FF24F1F8C9
:100DD00022C0E801699196013627032E0294402D26
:100DE0004F704327532F5025550F507E4527502DC8
:100DF0005327507F5695032E000C551F3695369578
:100E000036953F7135273227242F69010E948607C6
:100E1000A895F3948E018F2D90E08E3391050CF4FC
:100E2000D8CFB6010E94910785EC80933C60A895CD
:100E3000E0E5F0E08081897F8083F89480913C60D8
:100E40008D3641F08081816080837894889580819F
:100E50008E7F808378946ECFA1E21A2EAA1BBB1BD3
:100E6000FD010DC0AA1FBB1FEE1FFF1FA217B30776
:100E7000E407F50720F0A21BB30BE40BF50B661F8C
:100E8000771F881F991F1A9469F760957095809550
:100E900090959B01AC01BD01CF010895EE0FFF1F9E
:100EA0000590F491E02D0994A29FB001B39FC00179
:100EB000A39F700D811D1124911DB29F700D811D86
:100EC0001124911D08950E945407B7FF0895821BB5
:100ED000930B08950E945407A59F900DB49F900D09
:100EE000A49F800D911D1124089560507C4E0C9498
:100EF000B50703D0808199270895FC01E050FC4E8E
:100F000008950E947D07808191810895262F0E9477
:100F10007D070080021619F00E949807019701973B
:100F200008950196272F0E9487070C948607262F85
:100F3000AF93BF93E0E0F0E1328131FDFDCF3DE9B9
:100F400034BF33E13083DC01A050BC4E2C933DE92B
:100F500034BF20E020830196BF91AF910895DC015A
:100F600028ED209334006C930895FB01DC0102C04E
:100F700001900D9241505040D8F70895F894FFCF5A
:100F80000100000000000000000000000000000060
:100F90000000000000000000000000000000000051
:100FA0000000000000000000000000000000000041
:100FB0000000000000000000000000000000000031
:100FC0000000000000000000000000000000000021
:100FD0000000000000000000000000000000000011
:100FE0000000000000000000000000000000000001
:0A0FF00000000000000000000000F7
:00000001FF
